{
  "_format": "hh-sol-artifact-1",
  "contractName": "CoffeeShopRWAWithPurchase",
  "sourceName": "contracts/CoffeeShopRWAWithPurchase.sol",
  "abi": [
    {
      "inputs": [
        {
          "internalType": "string",
          "name": "_shopName",
          "type": "string"
        },
        {
          "internalType": "string",
          "name": "_location",
          "type": "string"
        },
        {
          "internalType": "string",
          "name": "_description",
          "type": "string"
        },
        {
          "internalType": "uint256",
          "name": "_totalValuation",
          "type": "uint256"
        },
        {
          "internalType": "uint256",
          "name": "_tokenizedPercentage",
          "type": "uint256"
        },
        {
          "internalType": "uint256",
          "name": "_initialTokenSupply",
          "type": "uint256"
        },
        {
          "internalType": "uint256",
          "name": "_tokenPrice",
          "type": "uint256"
        }
      ],
      "stateMutability": "nonpayable",
      "type": "constructor"
    },
    {
      "inputs": [
        {
          "internalType": "address",
          "name": "spender",
          "type": "address"
        },
        {
          "internalType": "uint256",
          "name": "allowance",
          "type": "uint256"
        },
        {
          "internalType": "uint256",
          "name": "needed",
          "type": "uint256"
        }
      ],
      "name": "ERC20InsufficientAllowance",
      "type": "error"
    },
    {
      "inputs": [
        {
          "internalType": "address",
          "name": "sender",
          "type": "address"
        },
        {
          "internalType": "uint256",
          "name": "balance",
          "type": "uint256"
        },
        {
          "internalType": "uint256",
          "name": "needed",
          "type": "uint256"
        }
      ],
      "name": "ERC20InsufficientBalance",
      "type": "error"
    },
    {
      "inputs": [
        {
          "internalType": "address",
          "name": "approver",
          "type": "address"
        }
      ],
      "name": "ERC20InvalidApprover",
      "type": "error"
    },
    {
      "inputs": [
        {
          "internalType": "address",
          "name": "receiver",
          "type": "address"
        }
      ],
      "name": "ERC20InvalidReceiver",
      "type": "error"
    },
    {
      "inputs": [
        {
          "internalType": "address",
          "name": "sender",
          "type": "address"
        }
      ],
      "name": "ERC20InvalidSender",
      "type": "error"
    },
    {
      "inputs": [
        {
          "internalType": "address",
          "name": "spender",
          "type": "address"
        }
      ],
      "name": "ERC20InvalidSpender",
      "type": "error"
    },
    {
      "inputs": [
        {
          "internalType": "address",
          "name": "owner",
          "type": "address"
        }
      ],
      "name": "OwnableInvalidOwner",
      "type": "error"
    },
    {
      "inputs": [
        {
          "internalType": "address",
          "name": "account",
          "type": "address"
        }
      ],
      "name": "OwnableUnauthorizedAccount",
      "type": "error"
    },
    {
      "anonymous": false,
      "inputs": [
        {
          "indexed": true,
          "internalType": "address",
          "name": "owner",
          "type": "address"
        },
        {
          "indexed": true,
          "internalType": "address",
          "name": "spender",
          "type": "address"
        },
        {
          "indexed": false,
          "internalType": "uint256",
          "name": "value",
          "type": "uint256"
        }
      ],
      "name": "Approval",
      "type": "event"
    },
    {
      "anonymous": false,
      "inputs": [
        {
          "indexed": false,
          "internalType": "string",
          "name": "shopName",
          "type": "string"
        },
        {
          "indexed": false,
          "internalType": "string",
          "name": "location",
          "type": "string"
        },
        {
          "indexed": false,
          "internalType": "uint256",
          "name": "totalValuation",
          "type": "uint256"
        },
        {
          "indexed": false,
          "internalType": "uint256",
          "name": "tokenizedPercentage",
          "type": "uint256"
        },
        {
          "indexed": false,
          "internalType": "uint256",
          "name": "tokensIssued",
          "type": "uint256"
        }
      ],
      "name": "AssetTokenized",
      "type": "event"
    },
    {
      "anonymous": false,
      "inputs": [
        {
          "indexed": true,
          "internalType": "address",
          "name": "previousOwner",
          "type": "address"
        },
        {
          "indexed": true,
          "internalType": "address",
          "name": "newOwner",
          "type": "address"
        }
      ],
      "name": "OwnershipTransferred",
      "type": "event"
    },
    {
      "anonymous": false,
      "inputs": [
        {
          "indexed": false,
          "internalType": "uint256",
          "name": "oldPrice",
          "type": "uint256"
        },
        {
          "indexed": false,
          "internalType": "uint256",
          "name": "newPrice",
          "type": "uint256"
        }
      ],
      "name": "PriceUpdated",
      "type": "event"
    },
    {
      "anonymous": false,
      "inputs": [
        {
          "indexed": true,
          "internalType": "address",
          "name": "buyer",
          "type": "address"
        },
        {
          "indexed": false,
          "internalType": "uint256",
          "name": "amount",
          "type": "uint256"
        },
        {
          "indexed": false,
          "internalType": "uint256",
          "name": "totalCost",
          "type": "uint256"
        }
      ],
      "name": "TokensPurchased",
      "type": "event"
    },
    {
      "anonymous": false,
      "inputs": [
        {
          "indexed": true,
          "internalType": "address",
          "name": "from",
          "type": "address"
        },
        {
          "indexed": true,
          "internalType": "address",
          "name": "to",
          "type": "address"
        },
        {
          "indexed": false,
          "internalType": "uint256",
          "name": "value",
          "type": "uint256"
        }
      ],
      "name": "Transfer",
      "type": "event"
    },
    {
      "inputs": [
        {
          "internalType": "address",
          "name": "owner",
          "type": "address"
        },
        {
          "internalType": "address",
          "name": "spender",
          "type": "address"
        }
      ],
      "name": "allowance",
      "outputs": [
        {
          "internalType": "uint256",
          "name": "",
          "type": "uint256"
        }
      ],
      "stateMutability": "view",
      "type": "function"
    },
    {
      "inputs": [
        {
          "internalType": "address",
          "name": "spender",
          "type": "address"
        },
        {
          "internalType": "uint256",
          "name": "value",
          "type": "uint256"
        }
      ],
      "name": "approve",
      "outputs": [
        {
          "internalType": "bool",
          "name": "",
          "type": "bool"
        }
      ],
      "stateMutability": "nonpayable",
      "type": "function"
    },
    {
      "inputs": [],
      "name": "assetInfo",
      "outputs": [
        {
          "internalType": "string",
          "name": "shopName",
          "type": "string"
        },
        {
          "internalType": "string",
          "name": "location",
          "type": "string"
        },
        {
          "internalType": "string",
          "name": "description",
          "type": "string"
        },
        {
          "internalType": "uint256",
          "name": "totalValuation",
          "type": "uint256"
        },
        {
          "internalType": "uint256",
          "name": "tokenizedPercentage",
          "type": "uint256"
        },
        {
          "internalType": "bool",
          "name": "isVerified",
          "type": "bool"
        }
      ],
      "stateMutability": "view",
      "type": "function"
    },
    {
      "inputs": [
        {
          "internalType": "address",
          "name": "account",
          "type": "address"
        }
      ],
      "name": "balanceOf",
      "outputs": [
        {
          "internalType": "uint256",
          "name": "",
          "type": "uint256"
        }
      ],
      "stateMutability": "view",
      "type": "function"
    },
    {
      "inputs": [
        {
          "internalType": "uint256",
          "name": "_tokenAmount",
          "type": "uint256"
        }
      ],
      "name": "buyTokens",
      "outputs": [],
      "stateMutability": "payable",
      "type": "function"
    },
    {
      "inputs": [],
      "name": "decimals",
      "outputs": [
        {
          "internalType": "uint8",
          "name": "",
          "type": "uint8"
        }
      ],
      "stateMutability": "view",
      "type": "function"
    },
    {
      "inputs": [],
      "name": "getAssetInfo",
      "outputs": [
        {
          "internalType": "string",
          "name": "shopName",
          "type": "string"
        },
        {
          "internalType": "string",
          "name": "location",
          "type": "string"
        },
        {
          "internalType": "string",
          "name": "description",
          "type": "string"
        },
        {
          "internalType": "uint256",
          "name": "totalValuation",
          "type": "uint256"
        },
        {
          "internalType": "uint256",
          "name": "tokenizedPercentage",
          "type": "uint256"
        },
        {
          "internalType": "bool",
          "name": "isVerified",
          "type": "bool"
        }
      ],
      "stateMutability": "view",
      "type": "function"
    },
    {
      "inputs": [],
      "name": "getTokenValue",
      "outputs": [
        {
          "internalType": "uint256",
          "name": "",
          "type": "uint256"
        }
      ],
      "stateMutability": "view",
      "type": "function"
    },
    {
      "inputs": [
        {
          "internalType": "address",
          "name": "_to",
          "type": "address"
        },
        {
          "internalType": "uint256",
          "name": "_amount",
          "type": "uint256"
        }
      ],
      "name": "issueTokens",
      "outputs": [],
      "stateMutability": "nonpayable",
      "type": "function"
    },
    {
      "inputs": [],
      "name": "maxTotalSupply",
      "outputs": [
        {
          "internalType": "uint256",
          "name": "",
          "type": "uint256"
        }
      ],
      "stateMutability": "view",
      "type": "function"
    },
    {
      "inputs": [],
      "name": "name",
      "outputs": [
        {
          "internalType": "string",
          "name": "",
          "type": "string"
        }
      ],
      "stateMutability": "view",
      "type": "function"
    },
    {
      "inputs": [],
      "name": "owner",
      "outputs": [
        {
          "internalType": "address",
          "name": "",
          "type": "address"
        }
      ],
      "stateMutability": "view",
      "type": "function"
    },
    {
      "inputs": [],
      "name": "renounceOwnership",
      "outputs": [],
      "stateMutability": "nonpayable",
      "type": "function"
    },
    {
      "inputs": [],
      "name": "symbol",
      "outputs": [
        {
          "internalType": "string",
          "name": "",
          "type": "string"
        }
      ],
      "stateMutability": "view",
      "type": "function"
    },
    {
      "inputs": [],
      "name": "tokenPrice",
      "outputs": [
        {
          "internalType": "uint256",
          "name": "",
          "type": "uint256"
        }
      ],
      "stateMutability": "view",
      "type": "function"
    },
    {
      "inputs": [],
      "name": "totalSupply",
      "outputs": [
        {
          "internalType": "uint256",
          "name": "",
          "type": "uint256"
        }
      ],
      "stateMutability": "view",
      "type": "function"
    },
    {
      "inputs": [
        {
          "internalType": "address",
          "name": "to",
          "type": "address"
        },
        {
          "internalType": "uint256",
          "name": "value",
          "type": "uint256"
        }
      ],
      "name": "transfer",
      "outputs": [
        {
          "internalType": "bool",
          "name": "",
          "type": "bool"
        }
      ],
      "stateMutability": "nonpayable",
      "type": "function"
    },
    {
      "inputs": [
        {
          "internalType": "address",
          "name": "from",
          "type": "address"
        },
        {
          "internalType": "address",
          "name": "to",
          "type": "address"
        },
        {
          "internalType": "uint256",
          "name": "value",
          "type": "uint256"
        }
      ],
      "name": "transferFrom",
      "outputs": [
        {
          "internalType": "bool",
          "name": "",
          "type": "bool"
        }
      ],
      "stateMutability": "nonpayable",
      "type": "function"
    },
    {
      "inputs": [
        {
          "internalType": "address",
          "name": "newOwner",
          "type": "address"
        }
      ],
      "name": "transferOwnership",
      "outputs": [],
      "stateMutability": "nonpayable",
      "type": "function"
    },
    {
      "inputs": [
        {
          "internalType": "uint256",
          "name": "_newPrice",
          "type": "uint256"
        }
      ],
      "name": "updateTokenPrice",
      "outputs": [],
      "stateMutability": "nonpayable",
      "type": "function"
    },
    {
      "inputs": [],
      "name": "withdraw",
      "outputs": [],
      "stateMutability": "nonpayable",
      "type": "function"
    }
  ],
  "bytecode": "0x60806040523480156200001157600080fd5b5060405162001b1d38038062001b1d8339810160408190526200003491620005c1565b336040518060400160405280601181526020017021b7b33332b29029b437b8102a37b5b2b760791b81525060405180604001604052806006815260200165434f4646454560d01b81525081600390816200008f919062000708565b5060046200009e828262000708565b5050506001600160a01b038116620000d157604051631e4fbdf760e01b8152600060048201526024015b60405180910390fd5b620000dc8162000331565b50612710831115620001315760405162461bcd60e51b815260206004820152601e60248201527f43616e6e6f7420746f6b656e697a65206d6f7265207468616e203130302500006044820152606401620000c8565b60008411620001835760405162461bcd60e51b815260206004820152601a60248201527f56616c756174696f6e206d75737420626520706f7369746976650000000000006044820152606401620000c8565b60008211620001d55760405162461bcd60e51b815260206004820152601f60248201527f496e697469616c20737570706c79206d75737420626520706f736974697665006044820152606401620000c8565b60008111620002275760405162461bcd60e51b815260206004820152601c60248201527f546f6b656e207072696365206d75737420626520706f736974697665000000006044820152606401620000c8565b6040805160c081018252888152602081018890529081018690526060810185905260808101849052600060a0820152600680620002658a8262000708565b50602082015160018201906200027c908262000708565b506040820151600282019062000293908262000708565b50606082015160038201556080820151600482015560a0909101516005909101805460ff1916911515919091179055620002cf826002620007ea565b600c55600d819055620002e3338362000383565b7f15cbbc35f7783ea0c9f7d492a8029ee85e7383ea1948eb95ed67130e830f1ec087878686866040516200031c95949392919062000838565b60405180910390a15050505050505062000895565b600580546001600160a01b038381166001600160a01b0319831681179093556040519116919082907f8be0079c531659141344cd1fd0a4f28419497f9722a3daafe3b4186f6b6457e090600090a35050565b6001600160a01b038216620003af5760405163ec442f0560e01b815260006004820152602401620000c8565b620003bd60008383620003c1565b5050565b6001600160a01b038316620003f0578060026000828254620003e491906200087f565b90915550620004649050565b6001600160a01b03831660009081526020819052604090205481811015620004455760405163391434e360e21b81526001600160a01b03851660048201526024810182905260448101839052606401620000c8565b6001600160a01b03841660009081526020819052604090209082900390555b6001600160a01b0382166200048257600280548290039055620004a1565b6001600160a01b03821660009081526020819052604090208054820190555b816001600160a01b0316836001600160a01b03167fddf252ad1be2c89b69c2b068fc378daa952ba7f163c4a11628f55a4df523b3ef83604051620004e791815260200190565b60405180910390a3505050565b634e487b7160e01b600052604160045260246000fd5b60005b83811015620005275781810151838201526020016200050d565b50506000910152565b600082601f8301126200054257600080fd5b81516001600160401b03808211156200055f576200055f620004f4565b604051601f8301601f19908116603f011681019082821181831017156200058a576200058a620004f4565b81604052838152866020858801011115620005a457600080fd5b620005b78460208301602089016200050a565b9695505050505050565b600080600080600080600060e0888a031215620005dd57600080fd5b87516001600160401b0380821115620005f557600080fd5b620006038b838c0162000530565b985060208a01519150808211156200061a57600080fd5b620006288b838c0162000530565b975060408a01519150808211156200063f57600080fd5b506200064e8a828b0162000530565b955050606088015193506080880151925060a0880151915060c0880151905092959891949750929550565b600181811c908216806200068e57607f821691505b602082108103620006af57634e487b7160e01b600052602260045260246000fd5b50919050565b601f8211156200070357600081815260208120601f850160051c81016020861015620006de5750805b601f850160051c820191505b81811015620006ff57828155600101620006ea565b5050505b505050565b81516001600160401b03811115620007245762000724620004f4565b6200073c8162000735845462000679565b84620006b5565b602080601f8311600181146200077457600084156200075b5750858301515b600019600386901b1c1916600185901b178555620006ff565b600085815260208120601f198616915b82811015620007a55788860151825594840194600190910190840162000784565b5085821015620007c45787850151600019600388901b60f8161c191681555b5050505050600190811b01905550565b634e487b7160e01b600052601160045260246000fd5b8082028115828204841417620008045762000804620007d4565b92915050565b60008151808452620008248160208601602086016200050a565b601f01601f19169290920160200192915050565b60a0815260006200084d60a08301886200080a565b82810360208401526200086181886200080a565b60408401969096525050606081019290925260809091015292915050565b80820180821115620008045762000804620007d4565b61127880620008a56000396000f3fe60806040526004361061012a5760003560e01c80635e3109e7116100ab5780638da5cb5b1161006f5780638da5cb5b1461030657806395d89b411461032e578063a40bee5014610343578063a9059cbb14610358578063dd62ed3e14610378578063f2fde38b146103be57600080fd5b80635e3109e71461025e578063676c0d771461028557806370a08231146102a5578063715018a6146102db5780637ff9b596146102f057600080fd5b80632ab4d052116100f25780632ab4d052146101e2578063313ce567146101f85780633610724e146102145780633ccfd60b14610229578063475a9fa91461023e57600080fd5b806306fdde031461012f57806306ffce531461015a578063095ea7b31461017d57806318160ddd146101ad57806323b872dd146101c2575b600080fd5b34801561013b57600080fd5b506101446103de565b6040516101519190611036565b60405180910390f35b34801561016657600080fd5b5061016f610470565b604051908152602001610151565b34801561018957600080fd5b5061019d61019836600461106c565b6104c4565b6040519015158152602001610151565b3480156101b957600080fd5b5060025461016f565b3480156101ce57600080fd5b5061019d6101dd366004611096565b6104de565b3480156101ee57600080fd5b5061016f600c5481565b34801561020457600080fd5b5060405160128152602001610151565b6102276102223660046110d2565b610502565b005b34801561023557600080fd5b5061022761069f565b34801561024a57600080fd5b5061022761025936600461106c565b61072a565b34801561026a57600080fd5b506102736107a1565b604051610151969594939291906110eb565b34801561029157600080fd5b506102276102a03660046110d2565b610982565b3480156102b157600080fd5b5061016f6102c0366004611145565b6001600160a01b031660009081526020819052604090205490565b3480156102e757600080fd5b50610227610a18565b3480156102fc57600080fd5b5061016f600d5481565b34801561031257600080fd5b506005546040516001600160a01b039091168152602001610151565b34801561033a57600080fd5b50610144610a2c565b34801561034f57600080fd5b50610273610a3b565b34801561036457600080fd5b5061019d61037336600461106c565b610c00565b34801561038457600080fd5b5061016f610393366004611160565b6001600160a01b03918216600090815260016020908152604080832093909416825291909152205490565b3480156103ca57600080fd5b506102276103d9366004611145565b610c0e565b6060600380546103ed90611193565b80601f016020809104026020016040519081016040528092919081815260200182805461041990611193565b80156104665780601f1061043b57610100808354040283529160200191610466565b820191906000526020600020905b81548152906001019060200180831161044957829003601f168201915b5050505050905090565b600061047b60025490565b6000036104885750600090565b600a546009546000916127109161049f91906111e3565b6104a991906111fa565b90506104b460025490565b6104be90826111fa565b91505090565b6000336104d2818585610c4c565b60019150505b92915050565b6000336104ec858285610c5e565b6104f7858585610cdd565b506001949350505050565b600081116105575760405162461bcd60e51b815260206004820152601d60248201527f546f6b656e20616d6f756e74206d75737420626520706f73697469766500000060448201526064015b60405180910390fd5b600c548161056460025490565b61056e919061121c565b11156105bc5760405162461bcd60e51b815260206004820152601c60248201527f45786365656473206d6178696d756d20746f74616c20737570706c7900000000604482015260640161054e565b6000600d54826105cc91906111e3565b9050803410156106165760405162461bcd60e51b8152602060048201526015602482015274125b9cdd59999a58da595b9d08115512081cd95b9d605a1b604482015260640161054e565b6106203383610d3c565b8034111561066057336108fc610636833461122f565b6040518115909202916000818181858888f1935050505015801561065e573d6000803e3d6000fd5b505b604080518381526020810183905233917f8fafebcaf9d154343dad25669bfa277f4fbacd7ac6b0c4fed522580e040a0f33910160405180910390a25050565b6106a7610d72565b47806106ec5760405162461bcd60e51b81526020600482015260146024820152734e6f2066756e647320746f20776974686472617760601b604482015260640161054e565b6005546040516001600160a01b039091169082156108fc029083906000818181858888f19350505050158015610726573d6000803e3d6000fd5b5050565b610732610d72565b600c548161073f60025490565b610749919061121c565b11156107975760405162461bcd60e51b815260206004820152601c60248201527f45786365656473206d6178696d756d20746f74616c20737570706c7900000000604482015260640161054e565b6107268282610d3c565b600954600a54600b5460068054606094859485946000948594859491936007936008939260ff9091169086906107d690611193565b80601f016020809104026020016040519081016040528092919081815260200182805461080290611193565b801561084f5780601f106108245761010080835404028352916020019161084f565b820191906000526020600020905b81548152906001019060200180831161083257829003601f168201915b5050505050955084805461086290611193565b80601f016020809104026020016040519081016040528092919081815260200182805461088e90611193565b80156108db5780601f106108b0576101008083540402835291602001916108db565b820191906000526020600020905b8154815290600101906020018083116108be57829003601f168201915b505050505094508380546108ee90611193565b80601f016020809104026020016040519081016040528092919081815260200182805461091a90611193565b80156109675780601f1061093c57610100808354040283529160200191610967565b820191906000526020600020905b81548152906001019060200180831161094a57829003601f168201915b50505050509350955095509550955095509550909192939495565b61098a610d72565b600081116109d35760405162461bcd60e51b81526020600482015260166024820152755072696365206d75737420626520706f73697469766560501b604482015260640161054e565b600d80549082905560408051828152602081018490527f945c1c4e99aa89f648fbfe3df471b916f719e16d960fcec0737d4d56bd696838910160405180910390a15050565b610a20610d72565b610a2a6000610d9f565b565b6060600480546103ed90611193565b600680548190610a4a90611193565b80601f0160208091040260200160405190810160405280929190818152602001828054610a7690611193565b8015610ac35780601f10610a9857610100808354040283529160200191610ac3565b820191906000526020600020905b815481529060010190602001808311610aa657829003601f168201915b505050505090806001018054610ad890611193565b80601f0160208091040260200160405190810160405280929190818152602001828054610b0490611193565b8015610b515780601f10610b2657610100808354040283529160200191610b51565b820191906000526020600020905b815481529060010190602001808311610b3457829003601f168201915b505050505090806002018054610b6690611193565b80601f0160208091040260200160405190810160405280929190818152602001828054610b9290611193565b8015610bdf5780601f10610bb457610100808354040283529160200191610bdf565b820191906000526020600020905b815481529060010190602001808311610bc257829003601f168201915b50505050600383015460048401546005909401549293909290915060ff1686565b6000336104d2818585610cdd565b610c16610d72565b6001600160a01b038116610c4057604051631e4fbdf760e01b81526000600482015260240161054e565b610c4981610d9f565b50565b610c598383836001610df1565b505050565b6001600160a01b03838116600090815260016020908152604080832093861683529290522054600019811015610cd75781811015610cc857604051637dc7a0d960e11b81526001600160a01b0384166004820152602481018290526044810183905260640161054e565b610cd784848484036000610df1565b50505050565b6001600160a01b038316610d0757604051634b637e8f60e11b81526000600482015260240161054e565b6001600160a01b038216610d315760405163ec442f0560e01b81526000600482015260240161054e565b610c59838383610ec6565b6001600160a01b038216610d665760405163ec442f0560e01b81526000600482015260240161054e565b61072660008383610ec6565b6005546001600160a01b03163314610a2a5760405163118cdaa760e01b815233600482015260240161054e565b600580546001600160a01b038381166001600160a01b0319831681179093556040519116919082907f8be0079c531659141344cd1fd0a4f28419497f9722a3daafe3b4186f6b6457e090600090a35050565b6001600160a01b038416610e1b5760405163e602df0560e01b81526000600482015260240161054e565b6001600160a01b038316610e4557604051634a1406b160e11b81526000600482015260240161054e565b6001600160a01b0380851660009081526001602090815260408083209387168352929052208290558015610cd757826001600160a01b0316846001600160a01b03167f8c5be1e5ebec7d5bd14f71427d1e84f3dd0314c0f7b2291e5b200ac8c7c3b92584604051610eb891815260200190565b60405180910390a350505050565b6001600160a01b038316610ef1578060026000828254610ee6919061121c565b90915550610f639050565b6001600160a01b03831660009081526020819052604090205481811015610f445760405163391434e360e21b81526001600160a01b0385166004820152602481018290526044810183905260640161054e565b6001600160a01b03841660009081526020819052604090209082900390555b6001600160a01b038216610f7f57600280548290039055610f9e565b6001600160a01b03821660009081526020819052604090208054820190555b816001600160a01b0316836001600160a01b03167fddf252ad1be2c89b69c2b068fc378daa952ba7f163c4a11628f55a4df523b3ef83604051610fe391815260200190565b60405180910390a3505050565b6000815180845260005b8181101561101657602081850181015186830182015201610ffa565b506000602082860101526020601f19601f83011685010191505092915050565b6020815260006110496020830184610ff0565b9392505050565b80356001600160a01b038116811461106757600080fd5b919050565b6000806040838503121561107f57600080fd5b61108883611050565b946020939093013593505050565b6000806000606084860312156110ab57600080fd5b6110b484611050565b92506110c260208501611050565b9150604084013590509250925092565b6000602082840312156110e457600080fd5b5035919050565b60c0815260006110fe60c0830189610ff0565b82810360208401526111108189610ff0565b905082810360408401526111248188610ff0565b606084019690965250506080810192909252151560a0909101529392505050565b60006020828403121561115757600080fd5b61104982611050565b6000806040838503121561117357600080fd5b61117c83611050565b915061118a60208401611050565b90509250929050565b600181811c908216806111a757607f821691505b6020821081036111c757634e487b7160e01b600052602260045260246000fd5b50919050565b634e487b7160e01b600052601160045260246000fd5b80820281158282048414176104d8576104d86111cd565b60008261121757634e487b7160e01b600052601260045260246000fd5b500490565b808201808211156104d8576104d86111cd565b818103818111156104d8576104d86111cd56fea2646970667358221220040f77f3f38b8f5a3b8160f6c07125361a667f21ae66b868cdd0824f02f9060c64736f6c63430008140033",
  "linkReferences": {},
  "deployedLinkReferences": {}
}