{
  "_format": "hh-sol-artifact-1",
  "contractName": "CoffeeShopRWAComplete",
  "sourceName": "contracts/CoffeeShopRWAComplete.sol",
  "abi": [
    {
      "inputs": [
        {
          "internalType": "string",
          "name": "_shopName",
          "type": "string"
        },
        {
          "internalType": "string",
          "name": "_location",
          "type": "string"
        },
        {
          "internalType": "string",
          "name": "_description",
          "type": "string"
        },
        {
          "internalType": "uint256",
          "name": "_totalValuation",
          "type": "uint256"
        },
        {
          "internalType": "uint256",
          "name": "_tokenizedPercentage",
          "type": "uint256"
        },
        {
          "internalType": "uint256",
          "name": "_initialTokenSupply",
          "type": "uint256"
        },
        {
          "internalType": "uint256",
          "name": "_tokenPrice",
          "type": "uint256"
        }
      ],
      "stateMutability": "nonpayable",
      "type": "constructor"
    },
    {
      "inputs": [
        {
          "internalType": "address",
          "name": "spender",
          "type": "address"
        },
        {
          "internalType": "uint256",
          "name": "allowance",
          "type": "uint256"
        },
        {
          "internalType": "uint256",
          "name": "needed",
          "type": "uint256"
        }
      ],
      "name": "ERC20InsufficientAllowance",
      "type": "error"
    },
    {
      "inputs": [
        {
          "internalType": "address",
          "name": "sender",
          "type": "address"
        },
        {
          "internalType": "uint256",
          "name": "balance",
          "type": "uint256"
        },
        {
          "internalType": "uint256",
          "name": "needed",
          "type": "uint256"
        }
      ],
      "name": "ERC20InsufficientBalance",
      "type": "error"
    },
    {
      "inputs": [
        {
          "internalType": "address",
          "name": "approver",
          "type": "address"
        }
      ],
      "name": "ERC20InvalidApprover",
      "type": "error"
    },
    {
      "inputs": [
        {
          "internalType": "address",
          "name": "receiver",
          "type": "address"
        }
      ],
      "name": "ERC20InvalidReceiver",
      "type": "error"
    },
    {
      "inputs": [
        {
          "internalType": "address",
          "name": "sender",
          "type": "address"
        }
      ],
      "name": "ERC20InvalidSender",
      "type": "error"
    },
    {
      "inputs": [
        {
          "internalType": "address",
          "name": "spender",
          "type": "address"
        }
      ],
      "name": "ERC20InvalidSpender",
      "type": "error"
    },
    {
      "inputs": [
        {
          "internalType": "address",
          "name": "owner",
          "type": "address"
        }
      ],
      "name": "OwnableInvalidOwner",
      "type": "error"
    },
    {
      "inputs": [
        {
          "internalType": "address",
          "name": "account",
          "type": "address"
        }
      ],
      "name": "OwnableUnauthorizedAccount",
      "type": "error"
    },
    {
      "inputs": [],
      "name": "ReentrancyGuardReentrantCall",
      "type": "error"
    },
    {
      "anonymous": false,
      "inputs": [
        {
          "indexed": true,
          "internalType": "address",
          "name": "owner",
          "type": "address"
        },
        {
          "indexed": true,
          "internalType": "address",
          "name": "spender",
          "type": "address"
        },
        {
          "indexed": false,
          "internalType": "uint256",
          "name": "value",
          "type": "uint256"
        }
      ],
      "name": "Approval",
      "type": "event"
    },
    {
      "anonymous": false,
      "inputs": [
        {
          "indexed": false,
          "internalType": "string",
          "name": "shopName",
          "type": "string"
        },
        {
          "indexed": false,
          "internalType": "string",
          "name": "location",
          "type": "string"
        },
        {
          "indexed": false,
          "internalType": "uint256",
          "name": "totalValuation",
          "type": "uint256"
        },
        {
          "indexed": false,
          "internalType": "uint256",
          "name": "tokenizedPercentage",
          "type": "uint256"
        },
        {
          "indexed": false,
          "internalType": "uint256",
          "name": "tokensIssued",
          "type": "uint256"
        }
      ],
      "name": "AssetTokenized",
      "type": "event"
    },
    {
      "anonymous": false,
      "inputs": [
        {
          "indexed": true,
          "internalType": "uint256",
          "name": "reportId",
          "type": "uint256"
        },
        {
          "indexed": false,
          "internalType": "uint256",
          "name": "month",
          "type": "uint256"
        },
        {
          "indexed": false,
          "internalType": "uint256",
          "name": "year",
          "type": "uint256"
        },
        {
          "indexed": false,
          "internalType": "uint256",
          "name": "revenue",
          "type": "uint256"
        },
        {
          "indexed": false,
          "internalType": "uint256",
          "name": "netProfit",
          "type": "uint256"
        }
      ],
      "name": "FinancialReportSubmitted",
      "type": "event"
    },
    {
      "anonymous": false,
      "inputs": [
        {
          "indexed": true,
          "internalType": "address",
          "name": "previousOwner",
          "type": "address"
        },
        {
          "indexed": true,
          "internalType": "address",
          "name": "newOwner",
          "type": "address"
        }
      ],
      "name": "OwnershipTransferred",
      "type": "event"
    },
    {
      "anonymous": false,
      "inputs": [
        {
          "indexed": false,
          "internalType": "uint256",
          "name": "oldPrice",
          "type": "uint256"
        },
        {
          "indexed": false,
          "internalType": "uint256",
          "name": "newPrice",
          "type": "uint256"
        }
      ],
      "name": "PriceUpdated",
      "type": "event"
    },
    {
      "anonymous": false,
      "inputs": [
        {
          "indexed": true,
          "internalType": "uint256",
          "name": "proposalId",
          "type": "uint256"
        },
        {
          "indexed": true,
          "internalType": "address",
          "name": "creator",
          "type": "address"
        },
        {
          "indexed": false,
          "internalType": "string",
          "name": "title",
          "type": "string"
        },
        {
          "indexed": false,
          "internalType": "uint256",
          "name": "votingDeadline",
          "type": "uint256"
        }
      ],
      "name": "ProposalCreated",
      "type": "event"
    },
    {
      "anonymous": false,
      "inputs": [
        {
          "indexed": true,
          "internalType": "uint256",
          "name": "proposalId",
          "type": "uint256"
        },
        {
          "indexed": false,
          "internalType": "bool",
          "name": "passed",
          "type": "bool"
        }
      ],
      "name": "ProposalExecuted",
      "type": "event"
    },
    {
      "anonymous": false,
      "inputs": [
        {
          "indexed": true,
          "internalType": "address",
          "name": "buyer",
          "type": "address"
        },
        {
          "indexed": false,
          "internalType": "uint256",
          "name": "amount",
          "type": "uint256"
        },
        {
          "indexed": false,
          "internalType": "uint256",
          "name": "totalCost",
          "type": "uint256"
        }
      ],
      "name": "TokensPurchased",
      "type": "event"
    },
    {
      "anonymous": false,
      "inputs": [
        {
          "indexed": true,
          "internalType": "address",
          "name": "from",
          "type": "address"
        },
        {
          "indexed": true,
          "internalType": "address",
          "name": "to",
          "type": "address"
        },
        {
          "indexed": false,
          "internalType": "uint256",
          "name": "value",
          "type": "uint256"
        }
      ],
      "name": "Transfer",
      "type": "event"
    },
    {
      "anonymous": false,
      "inputs": [
        {
          "indexed": true,
          "internalType": "uint256",
          "name": "proposalId",
          "type": "uint256"
        },
        {
          "indexed": true,
          "internalType": "address",
          "name": "voter",
          "type": "address"
        },
        {
          "indexed": false,
          "internalType": "bool",
          "name": "support",
          "type": "bool"
        },
        {
          "indexed": false,
          "internalType": "uint256",
          "name": "votingPower",
          "type": "uint256"
        }
      ],
      "name": "VoteCast",
      "type": "event"
    },
    {
      "inputs": [],
      "name": "MIN_VOTING_PERIOD",
      "outputs": [
        {
          "internalType": "uint256",
          "name": "",
          "type": "uint256"
        }
      ],
      "stateMutability": "view",
      "type": "function"
    },
    {
      "inputs": [
        {
          "internalType": "address",
          "name": "owner",
          "type": "address"
        },
        {
          "internalType": "address",
          "name": "spender",
          "type": "address"
        }
      ],
      "name": "allowance",
      "outputs": [
        {
          "internalType": "uint256",
          "name": "",
          "type": "uint256"
        }
      ],
      "stateMutability": "view",
      "type": "function"
    },
    {
      "inputs": [
        {
          "internalType": "address",
          "name": "spender",
          "type": "address"
        },
        {
          "internalType": "uint256",
          "name": "value",
          "type": "uint256"
        }
      ],
      "name": "approve",
      "outputs": [
        {
          "internalType": "bool",
          "name": "",
          "type": "bool"
        }
      ],
      "stateMutability": "nonpayable",
      "type": "function"
    },
    {
      "inputs": [],
      "name": "assetInfo",
      "outputs": [
        {
          "internalType": "string",
          "name": "shopName",
          "type": "string"
        },
        {
          "internalType": "string",
          "name": "location",
          "type": "string"
        },
        {
          "internalType": "string",
          "name": "description",
          "type": "string"
        },
        {
          "internalType": "uint256",
          "name": "totalValuation",
          "type": "uint256"
        },
        {
          "internalType": "uint256",
          "name": "tokenizedPercentage",
          "type": "uint256"
        },
        {
          "internalType": "bool",
          "name": "isVerified",
          "type": "bool"
        }
      ],
      "stateMutability": "view",
      "type": "function"
    },
    {
      "inputs": [
        {
          "internalType": "address",
          "name": "_reporter",
          "type": "address"
        }
      ],
      "name": "authorizeReporter",
      "outputs": [],
      "stateMutability": "nonpayable",
      "type": "function"
    },
    {
      "inputs": [
        {
          "internalType": "address",
          "name": "",
          "type": "address"
        }
      ],
      "name": "authorizedReporters",
      "outputs": [
        {
          "internalType": "bool",
          "name": "",
          "type": "bool"
        }
      ],
      "stateMutability": "view",
      "type": "function"
    },
    {
      "inputs": [
        {
          "internalType": "address",
          "name": "account",
          "type": "address"
        }
      ],
      "name": "balanceOf",
      "outputs": [
        {
          "internalType": "uint256",
          "name": "",
          "type": "uint256"
        }
      ],
      "stateMutability": "view",
      "type": "function"
    },
    {
      "inputs": [
        {
          "internalType": "uint256",
          "name": "_tokenAmount",
          "type": "uint256"
        }
      ],
      "name": "buyTokens",
      "outputs": [],
      "stateMutability": "payable",
      "type": "function"
    },
    {
      "inputs": [
        {
          "internalType": "string",
          "name": "_title",
          "type": "string"
        },
        {
          "internalType": "string",
          "name": "_description",
          "type": "string"
        },
        {
          "internalType": "uint256",
          "name": "_votingPeriod",
          "type": "uint256"
        }
      ],
      "name": "createProposal",
      "outputs": [
        {
          "internalType": "uint256",
          "name": "",
          "type": "uint256"
        }
      ],
      "stateMutability": "nonpayable",
      "type": "function"
    },
    {
      "inputs": [],
      "name": "currentProposalId",
      "outputs": [
        {
          "internalType": "uint256",
          "name": "",
          "type": "uint256"
        }
      ],
      "stateMutability": "view",
      "type": "function"
    },
    {
      "inputs": [],
      "name": "currentReportId",
      "outputs": [
        {
          "internalType": "uint256",
          "name": "",
          "type": "uint256"
        }
      ],
      "stateMutability": "view",
      "type": "function"
    },
    {
      "inputs": [],
      "name": "decimals",
      "outputs": [
        {
          "internalType": "uint8",
          "name": "",
          "type": "uint8"
        }
      ],
      "stateMutability": "view",
      "type": "function"
    },
    {
      "inputs": [
        {
          "internalType": "uint256",
          "name": "_proposalId",
          "type": "uint256"
        }
      ],
      "name": "executeProposal",
      "outputs": [],
      "stateMutability": "nonpayable",
      "type": "function"
    },
    {
      "inputs": [
        {
          "internalType": "uint256",
          "name": "",
          "type": "uint256"
        }
      ],
      "name": "financialReports",
      "outputs": [
        {
          "internalType": "uint256",
          "name": "reportId",
          "type": "uint256"
        },
        {
          "internalType": "uint256",
          "name": "month",
          "type": "uint256"
        },
        {
          "internalType": "uint256",
          "name": "year",
          "type": "uint256"
        },
        {
          "internalType": "uint256",
          "name": "revenue",
          "type": "uint256"
        },
        {
          "internalType": "uint256",
          "name": "expenses",
          "type": "uint256"
        },
        {
          "internalType": "uint256",
          "name": "netProfit",
          "type": "uint256"
        },
        {
          "internalType": "string",
          "name": "reportHash",
          "type": "string"
        },
        {
          "internalType": "uint256",
          "name": "timestamp",
          "type": "uint256"
        },
        {
          "internalType": "bool",
          "name": "isApproved",
          "type": "bool"
        }
      ],
      "stateMutability": "view",
      "type": "function"
    },
    {
      "inputs": [],
      "name": "getAllProposalIds",
      "outputs": [
        {
          "internalType": "uint256[]",
          "name": "",
          "type": "uint256[]"
        }
      ],
      "stateMutability": "view",
      "type": "function"
    },
    {
      "inputs": [],
      "name": "getAllReportIds",
      "outputs": [
        {
          "internalType": "uint256[]",
          "name": "",
          "type": "uint256[]"
        }
      ],
      "stateMutability": "view",
      "type": "function"
    },
    {
      "inputs": [],
      "name": "getAssetInfo",
      "outputs": [
        {
          "internalType": "string",
          "name": "shopName",
          "type": "string"
        },
        {
          "internalType": "string",
          "name": "location",
          "type": "string"
        },
        {
          "internalType": "string",
          "name": "description",
          "type": "string"
        },
        {
          "internalType": "uint256",
          "name": "totalValuation",
          "type": "uint256"
        },
        {
          "internalType": "uint256",
          "name": "tokenizedPercentage",
          "type": "uint256"
        },
        {
          "internalType": "bool",
          "name": "isVerified",
          "type": "bool"
        }
      ],
      "stateMutability": "view",
      "type": "function"
    },
    {
      "inputs": [
        {
          "internalType": "uint256",
          "name": "_reportId",
          "type": "uint256"
        }
      ],
      "name": "getFinancialReport",
      "outputs": [
        {
          "internalType": "uint256",
          "name": "month",
          "type": "uint256"
        },
        {
          "internalType": "uint256",
          "name": "year",
          "type": "uint256"
        },
        {
          "internalType": "uint256",
          "name": "revenue",
          "type": "uint256"
        },
        {
          "internalType": "uint256",
          "name": "expenses",
          "type": "uint256"
        },
        {
          "internalType": "uint256",
          "name": "netProfit",
          "type": "uint256"
        },
        {
          "internalType": "string",
          "name": "reportHash",
          "type": "string"
        },
        {
          "internalType": "uint256",
          "name": "timestamp",
          "type": "uint256"
        },
        {
          "internalType": "bool",
          "name": "isApproved",
          "type": "bool"
        }
      ],
      "stateMutability": "view",
      "type": "function"
    },
    {
      "inputs": [
        {
          "internalType": "uint256",
          "name": "_proposalId",
          "type": "uint256"
        }
      ],
      "name": "getProposal",
      "outputs": [
        {
          "internalType": "string",
          "name": "title",
          "type": "string"
        },
        {
          "internalType": "string",
          "name": "description",
          "type": "string"
        },
        {
          "internalType": "uint256",
          "name": "votingDeadline",
          "type": "uint256"
        },
        {
          "internalType": "uint256",
          "name": "forVotes",
          "type": "uint256"
        },
        {
          "internalType": "uint256",
          "name": "againstVotes",
          "type": "uint256"
        },
        {
          "internalType": "bool",
          "name": "executed",
          "type": "bool"
        },
        {
          "internalType": "bool",
          "name": "passed",
          "type": "bool"
        }
      ],
      "stateMutability": "view",
      "type": "function"
    },
    {
      "inputs": [],
      "name": "getTokenValue",
      "outputs": [
        {
          "internalType": "uint256",
          "name": "",
          "type": "uint256"
        }
      ],
      "stateMutability": "view",
      "type": "function"
    },
    {
      "inputs": [
        {
          "internalType": "uint256",
          "name": "_proposalId",
          "type": "uint256"
        },
        {
          "internalType": "address",
          "name": "_voter",
          "type": "address"
        }
      ],
      "name": "hasVoted",
      "outputs": [
        {
          "internalType": "bool",
          "name": "",
          "type": "bool"
        }
      ],
      "stateMutability": "view",
      "type": "function"
    },
    {
      "inputs": [
        {
          "internalType": "address",
          "name": "_to",
          "type": "address"
        },
        {
          "internalType": "uint256",
          "name": "_amount",
          "type": "uint256"
        }
      ],
      "name": "issueTokens",
      "outputs": [],
      "stateMutability": "nonpayable",
      "type": "function"
    },
    {
      "inputs": [],
      "name": "maxTotalSupply",
      "outputs": [
        {
          "internalType": "uint256",
          "name": "",
          "type": "uint256"
        }
      ],
      "stateMutability": "view",
      "type": "function"
    },
    {
      "inputs": [],
      "name": "name",
      "outputs": [
        {
          "internalType": "string",
          "name": "",
          "type": "string"
        }
      ],
      "stateMutability": "view",
      "type": "function"
    },
    {
      "inputs": [],
      "name": "owner",
      "outputs": [
        {
          "internalType": "address",
          "name": "",
          "type": "address"
        }
      ],
      "stateMutability": "view",
      "type": "function"
    },
    {
      "inputs": [
        {
          "internalType": "uint256",
          "name": "",
          "type": "uint256"
        },
        {
          "internalType": "address",
          "name": "",
          "type": "address"
        }
      ],
      "name": "proposalHasVoted",
      "outputs": [
        {
          "internalType": "bool",
          "name": "",
          "type": "bool"
        }
      ],
      "stateMutability": "view",
      "type": "function"
    },
    {
      "inputs": [
        {
          "internalType": "uint256",
          "name": "",
          "type": "uint256"
        }
      ],
      "name": "proposalIds",
      "outputs": [
        {
          "internalType": "uint256",
          "name": "",
          "type": "uint256"
        }
      ],
      "stateMutability": "view",
      "type": "function"
    },
    {
      "inputs": [],
      "name": "proposalThreshold",
      "outputs": [
        {
          "internalType": "uint256",
          "name": "",
          "type": "uint256"
        }
      ],
      "stateMutability": "view",
      "type": "function"
    },
    {
      "inputs": [
        {
          "internalType": "uint256",
          "name": "",
          "type": "uint256"
        },
        {
          "internalType": "address",
          "name": "",
          "type": "address"
        }
      ],
      "name": "proposalVotingPower",
      "outputs": [
        {
          "internalType": "uint256",
          "name": "",
          "type": "uint256"
        }
      ],
      "stateMutability": "view",
      "type": "function"
    },
    {
      "inputs": [
        {
          "internalType": "uint256",
          "name": "",
          "type": "uint256"
        }
      ],
      "name": "proposals",
      "outputs": [
        {
          "internalType": "uint256",
          "name": "id",
          "type": "uint256"
        },
        {
          "internalType": "string",
          "name": "title",
          "type": "string"
        },
        {
          "internalType": "string",
          "name": "description",
          "type": "string"
        },
        {
          "internalType": "uint256",
          "name": "votingDeadline",
          "type": "uint256"
        },
        {
          "internalType": "uint256",
          "name": "forVotes",
          "type": "uint256"
        },
        {
          "internalType": "uint256",
          "name": "againstVotes",
          "type": "uint256"
        },
        {
          "internalType": "uint256",
          "name": "totalVotingPower",
          "type": "uint256"
        },
        {
          "internalType": "bool",
          "name": "executed",
          "type": "bool"
        },
        {
          "internalType": "bool",
          "name": "passed",
          "type": "bool"
        }
      ],
      "stateMutability": "view",
      "type": "function"
    },
    {
      "inputs": [],
      "name": "renounceOwnership",
      "outputs": [],
      "stateMutability": "nonpayable",
      "type": "function"
    },
    {
      "inputs": [
        {
          "internalType": "uint256",
          "name": "",
          "type": "uint256"
        }
      ],
      "name": "reportIds",
      "outputs": [
        {
          "internalType": "uint256",
          "name": "",
          "type": "uint256"
        }
      ],
      "stateMutability": "view",
      "type": "function"
    },
    {
      "inputs": [
        {
          "internalType": "address",
          "name": "_reporter",
          "type": "address"
        }
      ],
      "name": "revokeReporter",
      "outputs": [],
      "stateMutability": "nonpayable",
      "type": "function"
    },
    {
      "inputs": [
        {
          "internalType": "uint256",
          "name": "_month",
          "type": "uint256"
        },
        {
          "internalType": "uint256",
          "name": "_year",
          "type": "uint256"
        },
        {
          "internalType": "uint256",
          "name": "_revenue",
          "type": "uint256"
        },
        {
          "internalType": "uint256",
          "name": "_expenses",
          "type": "uint256"
        },
        {
          "internalType": "string",
          "name": "_reportHash",
          "type": "string"
        }
      ],
      "name": "submitFinancialReport",
      "outputs": [],
      "stateMutability": "nonpayable",
      "type": "function"
    },
    {
      "inputs": [],
      "name": "symbol",
      "outputs": [
        {
          "internalType": "string",
          "name": "",
          "type": "string"
        }
      ],
      "stateMutability": "view",
      "type": "function"
    },
    {
      "inputs": [],
      "name": "tokenPrice",
      "outputs": [
        {
          "internalType": "uint256",
          "name": "",
          "type": "uint256"
        }
      ],
      "stateMutability": "view",
      "type": "function"
    },
    {
      "inputs": [],
      "name": "totalSupply",
      "outputs": [
        {
          "internalType": "uint256",
          "name": "",
          "type": "uint256"
        }
      ],
      "stateMutability": "view",
      "type": "function"
    },
    {
      "inputs": [
        {
          "internalType": "address",
          "name": "to",
          "type": "address"
        },
        {
          "internalType": "uint256",
          "name": "value",
          "type": "uint256"
        }
      ],
      "name": "transfer",
      "outputs": [
        {
          "internalType": "bool",
          "name": "",
          "type": "bool"
        }
      ],
      "stateMutability": "nonpayable",
      "type": "function"
    },
    {
      "inputs": [
        {
          "internalType": "address",
          "name": "from",
          "type": "address"
        },
        {
          "internalType": "address",
          "name": "to",
          "type": "address"
        },
        {
          "internalType": "uint256",
          "name": "value",
          "type": "uint256"
        }
      ],
      "name": "transferFrom",
      "outputs": [
        {
          "internalType": "bool",
          "name": "",
          "type": "bool"
        }
      ],
      "stateMutability": "nonpayable",
      "type": "function"
    },
    {
      "inputs": [
        {
          "internalType": "address",
          "name": "newOwner",
          "type": "address"
        }
      ],
      "name": "transferOwnership",
      "outputs": [],
      "stateMutability": "nonpayable",
      "type": "function"
    },
    {
      "inputs": [
        {
          "internalType": "uint256",
          "name": "_newPrice",
          "type": "uint256"
        }
      ],
      "name": "updateTokenPrice",
      "outputs": [],
      "stateMutability": "nonpayable",
      "type": "function"
    },
    {
      "inputs": [
        {
          "internalType": "uint256",
          "name": "_proposalId",
          "type": "uint256"
        },
        {
          "internalType": "bool",
          "name": "_support",
          "type": "bool"
        }
      ],
      "name": "vote",
      "outputs": [],
      "stateMutability": "nonpayable",
      "type": "function"
    },
    {
      "inputs": [],
      "name": "withdraw",
      "outputs": [],
      "stateMutability": "nonpayable",
      "type": "function"
    }
  ],
  "bytecode": "0x608060405260646011553480156200001657600080fd5b506040516200341f3803806200341f8339810160408190526200003991620005cb565b336040518060400160405280601181526020017021b7b33332b29029b437b8102a37b5b2b760791b81525060405180604001604052806006815260200165434f4646454560d01b815250816003908162000094919062000712565b506004620000a3828262000712565b5050506001600160a01b038116620000d657604051631e4fbdf760e01b8152600060048201526024015b60405180910390fd5b620000e1816200033b565b5060016006556127108311156200013b5760405162461bcd60e51b815260206004820152601e60248201527f43616e6e6f7420746f6b656e697a65206d6f7265207468616e203130302500006044820152606401620000cd565b600084116200018d5760405162461bcd60e51b815260206004820152601a60248201527f56616c756174696f6e206d75737420626520706f7369746976650000000000006044820152606401620000cd565b60008211620001df5760405162461bcd60e51b815260206004820152601f60248201527f496e697469616c20737570706c79206d75737420626520706f736974697665006044820152606401620000cd565b60008111620002315760405162461bcd60e51b815260206004820152601c60248201527f546f6b656e207072696365206d75737420626520706f736974697665000000006044820152606401620000cd565b6040805160c081018252888152602081018890529081018690526060810185905260808101849052600060a08201526007806200026f8a8262000712565b506020820151600182019062000286908262000712565b50604082015160028201906200029d908262000712565b50606082015160038201556080820151600482015560a0909101516005909101805460ff1916911515919091179055620002d9826002620007f4565b600d55600e819055620002ed33836200038d565b7f15cbbc35f7783ea0c9f7d492a8029ee85e7383ea1948eb95ed67130e830f1ec087878686866040516200032695949392919062000842565b60405180910390a1505050505050506200089f565b600580546001600160a01b038381166001600160a01b0319831681179093556040519116919082907f8be0079c531659141344cd1fd0a4f28419497f9722a3daafe3b4186f6b6457e090600090a35050565b6001600160a01b038216620003b95760405163ec442f0560e01b815260006004820152602401620000cd565b620003c760008383620003cb565b5050565b6001600160a01b038316620003fa578060026000828254620003ee919062000889565b909155506200046e9050565b6001600160a01b038316600090815260208190526040902054818110156200044f5760405163391434e360e21b81526001600160a01b03851660048201526024810182905260448101839052606401620000cd565b6001600160a01b03841660009081526020819052604090209082900390555b6001600160a01b0382166200048c57600280548290039055620004ab565b6001600160a01b03821660009081526020819052604090208054820190555b816001600160a01b0316836001600160a01b03167fddf252ad1be2c89b69c2b068fc378daa952ba7f163c4a11628f55a4df523b3ef83604051620004f191815260200190565b60405180910390a3505050565b634e487b7160e01b600052604160045260246000fd5b60005b838110156200053157818101518382015260200162000517565b50506000910152565b600082601f8301126200054c57600080fd5b81516001600160401b0380821115620005695762000569620004fe565b604051601f8301601f19908116603f01168101908282118183101715620005945762000594620004fe565b81604052838152866020858801011115620005ae57600080fd5b620005c184602083016020890162000514565b9695505050505050565b600080600080600080600060e0888a031215620005e757600080fd5b87516001600160401b0380821115620005ff57600080fd5b6200060d8b838c016200053a565b985060208a01519150808211156200062457600080fd5b620006328b838c016200053a565b975060408a01519150808211156200064957600080fd5b50620006588a828b016200053a565b955050606088015193506080880151925060a0880151915060c0880151905092959891949750929550565b600181811c908216806200069857607f821691505b602082108103620006b957634e487b7160e01b600052602260045260246000fd5b50919050565b601f8211156200070d57600081815260208120601f850160051c81016020861015620006e85750805b601f850160051c820191505b818110156200070957828155600101620006f4565b5050505b505050565b81516001600160401b038111156200072e576200072e620004fe565b62000746816200073f845462000683565b84620006bf565b602080601f8311600181146200077e5760008415620007655750858301515b600019600386901b1c1916600185901b17855562000709565b600085815260208120601f198616915b82811015620007af578886015182559484019460019091019084016200078e565b5085821015620007ce5787850151600019600388901b60f8161c191681555b5050505050600190811b01905550565b634e487b7160e01b600052601160045260246000fd5b80820281158282048414176200080e576200080e620007de565b92915050565b600081518084526200082e81602086016020860162000514565b601f01601f19169290920160200192915050565b60a0815260006200085760a083018862000814565b82810360208401526200086b818862000814565b60408401969096525050606081019290925260809091015292915050565b808201808211156200080e576200080e620007de565b612b7080620008af6000396000f3fe60806040526004361061025c5760003560e01c8063676c0d7711610144578063a3026426116100b6578063c7f758a81161007a578063c7f758a814610776578063c9d27afe146107a9578063dd62ed3e146107c9578063efa90d361461080f578063f2fde38b14610824578063feac729d1461084457600080fd5b8063a3026426146106f5578063a40bee5014610715578063a9059cbb1461072a578063b13545941461074a578063b58131b01461076057600080fd5b80638cdcc955116101085780638cdcc955146106205780638da5cb5b146106405780638da712871461066857806395d89b41146106a05780639b5b6ddc146106b55780639b644a23146106d557600080fd5b8063676c0d771461057f57806370a082311461059f578063715018a6146105d55780637ff9b596146105ea57806387cc66de1461060057600080fd5b806323b872dd116101dd5780633a41429a116101a15780633a41429a146104725780633ccfd60b146104a257806343859632146104b7578063475a9fa9146104fd57806357c70c041461051d5780635e3109e71461055857600080fd5b806323b872dd146103d857806324fb10c0146103f85780632ab4d0521461042d578063313ce567146104435780633610724e1461045f57600080fd5b80630d61b519116102245780630d61b51914610334578063131eb28e1461035657806318160ddd14610378578063215809ca1461038d57806322b6ed26146103a457600080fd5b8063013cf08b1461026157806306fdde031461029f57806306ffce53146102c1578063095ea7b3146102e45780630ce0ebf414610314575b600080fd5b34801561026d57600080fd5b5061028161027c36600461242e565b61085a565b6040516102969998979695949392919061248d565b60405180910390f35b3480156102ab57600080fd5b506102b46109b8565b60405161029691906124f4565b3480156102cd57600080fd5b506102d6610a4a565b604051908152602001610296565b3480156102f057600080fd5b506103046102ff36600461252a565b610a9e565b6040519015158152602001610296565b34801561032057600080fd5b506102d661032f3660046125f7565b610ab8565b34801561034057600080fd5b5061035461034f36600461242e565b610d2f565b005b34801561036257600080fd5b5061036b610eb4565b6040516102969190612664565b34801561038457600080fd5b506002546102d6565b34801561039957600080fd5b506102d662093a8081565b3480156103b057600080fd5b506103c46103bf36600461242e565b610f0b565b6040516102969897969594939291906126a8565b3480156103e457600080fd5b506103046103f33660046126f7565b611073565b34801561040457600080fd5b5061041861041336600461242e565b611097565b60405161029699989796959493929190612733565b34801561043957600080fd5b506102d6600d5481565b34801561044f57600080fd5b5060405160128152602001610296565b61035461046d36600461242e565b611171565b34801561047e57600080fd5b5061030461048d36600461278a565b60166020526000908152604090205460ff1681565b3480156104ae57600080fd5b50610354611309565b3480156104c357600080fd5b506103046104d23660046127a5565b60009182526014602090815260408084206001600160a01b0393909316845291905290205460ff1690565b34801561050957600080fd5b5061035461051836600461252a565b611394565b34801561052957600080fd5b506103046105383660046127a5565b601460209081526000928352604080842090915290825290205460ff1681565b34801561056457600080fd5b5061056d61140b565b604051610296969594939291906127d1565b34801561058b57600080fd5b5061035461059a36600461242e565b6115ec565b3480156105ab57600080fd5b506102d66105ba36600461278a565b6001600160a01b031660009081526020819052604090205490565b3480156105e157600080fd5b50610354611682565b3480156105f657600080fd5b506102d6600e5481565b34801561060c57600080fd5b506102d661061b36600461242e565b611696565b34801561062c57600080fd5b5061035461063b36600461278a565b6116b7565b34801561064c57600080fd5b506005546040516001600160a01b039091168152602001610296565b34801561067457600080fd5b506102d66106833660046127a5565b601560209081526000928352604080842090915290825290205481565b3480156106ac57600080fd5b506102b46116e0565b3480156106c157600080fd5b506103546106d036600461278a565b6116ef565b3480156106e157600080fd5b506102d66106f036600461242e565b61171b565b34801561070157600080fd5b5061035461071036600461282b565b61172b565b34801561072157600080fd5b5061056d611a16565b34801561073657600080fd5b5061030461074536600461252a565b611bdb565b34801561075657600080fd5b506102d660105481565b34801561076c57600080fd5b506102d660115481565b34801561078257600080fd5b5061079661079136600461242e565b611be9565b604051610296979695949392919061288f565b3480156107b557600080fd5b506103546107c43660046128e3565b611de0565b3480156107d557600080fd5b506102d66107e4366004612918565b6001600160a01b03918216600090815260016020908152604080832093909416825291909152205490565b34801561081b57600080fd5b5061036b611ff6565b34801561083057600080fd5b5061035461083f36600461278a565b61204c565b34801561085057600080fd5b506102d6600f5481565b6012602052600090815260409020805460018201805491929161087c90612942565b80601f01602080910402602001604051908101604052809291908181526020018280546108a890612942565b80156108f55780601f106108ca576101008083540402835291602001916108f5565b820191906000526020600020905b8154815290600101906020018083116108d857829003601f168201915b50505050509080600201805461090a90612942565b80601f016020809104026020016040519081016040528092919081815260200182805461093690612942565b80156109835780601f1061095857610100808354040283529160200191610983565b820191906000526020600020905b81548152906001019060200180831161096657829003601f168201915b505050600384015460048501546005860154600687015460079097015495969295919450925060ff8082169161010090041689565b6060600380546109c790612942565b80601f01602080910402602001604051908101604052809291908181526020018280546109f390612942565b8015610a405780601f10610a1557610100808354040283529160200191610a40565b820191906000526020600020905b815481529060010190602001808311610a2357829003601f168201915b5050505050905090565b6000610a5560025490565b600003610a625750600090565b600b54600a5460009161271091610a799190612992565b610a8391906129a9565b9050610a8e60025490565b610a9890826129a9565b91505090565b600033610aac81858561208a565b60019150505b92915050565b600062093a80821015610b125760405162461bcd60e51b815260206004820152601760248201527f566f74696e6720706572696f6420746f6f2073686f727400000000000000000060448201526064015b60405180910390fd5b6000612710601154610b2360025490565b610b2d9190612992565b610b3791906129a9565b33600090815260208190526040902054909150811115610ba85760405162461bcd60e51b815260206004820152602660248201527f496e73756666696369656e7420746f6b656e7320746f206372656174652070726044820152651bdc1bdcd85b60d21b6064820152608401610b09565b600f8054906000610bb8836129cb565b9091555060009050610bca84426129e4565b9050604051806101200160405280600f5481526020018781526020018681526020018281526020016000815260200160008152602001610c0960025490565b8152600060208083018290526040928301829052600f5482526012815291902082518155908201516001820190610c409082612a45565b5060408201516002820190610c559082612a45565b50606082015160038201556080820151600482015560a0820151600582015560c0820151600682015560e0820151600790910180546101009384015161ffff1990911692151561ff00191692909217911515909202179055600f54601780546001810182556000919091527fc624b66cc0138b8fabc209247f72d758e1cf3343756d543badbf24212bed8c15018190556040513391907f98120a6aaa04295520ab4e01c6c1235dd316e822cc9ff31db7b3f197366d18bd90610d1a908a908690612b05565b60405180910390a35050600f54949350505050565b80600081118015610d425750600f548111155b610d845760405162461bcd60e51b8152602060048201526013602482015272125b9d985b1a59081c1c9bdc1bdcd85b081251606a1b6044820152606401610b09565b600082815260126020526040902060038101544211610de55760405162461bcd60e51b815260206004820152601760248201527f566f74696e6720706572696f64206e6f7420656e6465640000000000000000006044820152606401610b09565b600781015460ff1615610e3a5760405162461bcd60e51b815260206004820152601960248201527f50726f706f73616c20616c7265616479206578656375746564000000000000006044820152606401610b09565b60078101805460ff19166001179055600581015460048201541115610e6b5760078101805461ff0019166101001790555b600781015460405161010090910460ff161515815283907f948f4a9cd986f1118c3fbd459f7a22b23c0693e1ca3ef06a6a8be5aa7d39cc039060200160405180910390a2505050565b60606018805480602002602001604051908101604052809291908181526020018280548015610a4057602002820191906000526020600020905b815481526020019060010190808311610eee575050505050905090565b600080600080600060606000806000601360008b815260200190815260200160002060405180610120016040529081600082015481526020016001820154815260200160028201548152602001600382015481526020016004820154815260200160058201548152602001600682018054610f8590612942565b80601f0160208091040260200160405190810160405280929190818152602001828054610fb190612942565b8015610ffe5780601f10610fd357610100808354040283529160200191610ffe565b820191906000526020600020905b815481529060010190602001808311610fe157829003601f168201915b50505050508152602001600782015481526020016008820160009054906101000a900460ff161515151581525050905080602001518160400151826060015183608001518460a001518560c001518660e001518761010001519850985098509850985098509850985050919395975091939597565b60003361108185828561209c565b61108c85858561211b565b506001949350505050565b60136020528060005260406000206000915090508060000154908060010154908060020154908060030154908060040154908060050154908060060180546110de90612942565b80601f016020809104026020016040519081016040528092919081815260200182805461110a90612942565b80156111575780601f1061112c57610100808354040283529160200191611157565b820191906000526020600020905b81548152906001019060200180831161113a57829003601f168201915b50505050600783015460089093015491929160ff16905089565b600081116111c15760405162461bcd60e51b815260206004820152601d60248201527f546f6b656e20616d6f756e74206d75737420626520706f7369746976650000006044820152606401610b09565b600d54816111ce60025490565b6111d891906129e4565b11156112265760405162461bcd60e51b815260206004820152601c60248201527f45786365656473206d6178696d756d20746f74616c20737570706c79000000006044820152606401610b09565b6000600e54826112369190612992565b9050803410156112805760405162461bcd60e51b8152602060048201526015602482015274125b9cdd59999a58da595b9d08115512081cd95b9d605a1b6044820152606401610b09565b61128a338361217a565b803411156112ca57336108fc6112a08334612b27565b6040518115909202916000818181858888f193505050501580156112c8573d6000803e3d6000fd5b505b604080518381526020810183905233917f8fafebcaf9d154343dad25669bfa277f4fbacd7ac6b0c4fed522580e040a0f33910160405180910390a25050565b6113116121b0565b47806113565760405162461bcd60e51b81526020600482015260146024820152734e6f2066756e647320746f20776974686472617760601b6044820152606401610b09565b6005546040516001600160a01b039091169082156108fc029083906000818181858888f19350505050158015611390573d6000803e3d6000fd5b5050565b61139c6121b0565b600d54816113a960025490565b6113b391906129e4565b11156114015760405162461bcd60e51b815260206004820152601c60248201527f45786365656473206d6178696d756d20746f74616c20737570706c79000000006044820152606401610b09565b611390828261217a565b600a54600b54600c5460078054606094859485946000948594859491936008936009939260ff90911690869061144090612942565b80601f016020809104026020016040519081016040528092919081815260200182805461146c90612942565b80156114b95780601f1061148e576101008083540402835291602001916114b9565b820191906000526020600020905b81548152906001019060200180831161149c57829003601f168201915b505050505095508480546114cc90612942565b80601f01602080910402602001604051908101604052809291908181526020018280546114f890612942565b80156115455780601f1061151a57610100808354040283529160200191611545565b820191906000526020600020905b81548152906001019060200180831161152857829003601f168201915b5050505050945083805461155890612942565b80601f016020809104026020016040519081016040528092919081815260200182805461158490612942565b80156115d15780601f106115a6576101008083540402835291602001916115d1565b820191906000526020600020905b8154815290600101906020018083116115b457829003601f168201915b50505050509350955095509550955095509550909192939495565b6115f46121b0565b6000811161163d5760405162461bcd60e51b81526020600482015260166024820152755072696365206d75737420626520706f73697469766560501b6044820152606401610b09565b600e80549082905560408051828152602081018490527f945c1c4e99aa89f648fbfe3df471b916f719e16d960fcec0737d4d56bd696838910160405180910390a15050565b61168a6121b0565b61169460006121dd565b565b601881815481106116a657600080fd5b600091825260209091200154905081565b6116bf6121b0565b6001600160a01b03166000908152601660205260409020805460ff19169055565b6060600480546109c790612942565b6116f76121b0565b6001600160a01b03166000908152601660205260409020805460ff19166001179055565b601781815481106116a657600080fd5b3360009081526016602052604090205460ff168061175357506005546001600160a01b031633145b61179f5760405162461bcd60e51b815260206004820152601760248201527f4e6f7420617574686f72697a6564207265706f727465720000000000000000006044820152606401610b09565b600185101580156117b15750600c8511155b6117ed5760405162461bcd60e51b815260206004820152600d60248201526c092dcecc2d8d2c840dadedce8d609b1b6044820152606401610b09565b6107e484101561182e5760405162461bcd60e51b815260206004820152600c60248201526b24b73b30b634b2103cb2b0b960a11b6044820152606401610b09565b8183101561188a5760405162461bcd60e51b8152602060048201526024808201527f526576656e75652063616e6e6f74206265206c657373207468616e20657870656044820152636e73657360e01b6064820152608401610b09565b6010805490600061189a836129cb565b90915550600090506118ac8385612b27565b905060405180610120016040528060105481526020018781526020018681526020018581526020018481526020018281526020018381526020014281526020016118fe6005546001600160a01b031690565b6001600160a01b03163314905260105460009081526013602090815260409182902083518155908301516001820155908201516002820155606082015160038201556080820151600482015560a0820151600582015560c082015160068201906119689082612a45565b5060e08201516007820155610100909101516008909101805460ff1916911515919091179055601054601880546001810182556000919091527fb13d2d76d1f4b7be834882e410b3e3a8afaf69f83600ae24db354391d2378d2e018190556040805188815260208101889052908101869052606081018390527f0a5342e2dc60d42f90a8de88adc54e84fe166fb034fc8fad7e6855c86e5cb1759060800160405180910390a2505050505050565b600780548190611a2590612942565b80601f0160208091040260200160405190810160405280929190818152602001828054611a5190612942565b8015611a9e5780601f10611a7357610100808354040283529160200191611a9e565b820191906000526020600020905b815481529060010190602001808311611a8157829003601f168201915b505050505090806001018054611ab390612942565b80601f0160208091040260200160405190810160405280929190818152602001828054611adf90612942565b8015611b2c5780601f10611b0157610100808354040283529160200191611b2c565b820191906000526020600020905b815481529060010190602001808311611b0f57829003601f168201915b505050505090806002018054611b4190612942565b80601f0160208091040260200160405190810160405280929190818152602001828054611b6d90612942565b8015611bba5780601f10611b8f57610100808354040283529160200191611bba565b820191906000526020600020905b815481529060010190602001808311611b9d57829003601f168201915b50505050600383015460048401546005909401549293909290915060ff1686565b600033610aac81858561211b565b606080600080600080600080601260008a81526020019081526020016000206040518061012001604052908160008201548152602001600182018054611c2e90612942565b80601f0160208091040260200160405190810160405280929190818152602001828054611c5a90612942565b8015611ca75780601f10611c7c57610100808354040283529160200191611ca7565b820191906000526020600020905b815481529060010190602001808311611c8a57829003601f168201915b50505050508152602001600282018054611cc090612942565b80601f0160208091040260200160405190810160405280929190818152602001828054611cec90612942565b8015611d395780601f10611d0e57610100808354040283529160200191611d39565b820191906000526020600020905b815481529060010190602001808311611d1c57829003601f168201915b50505050508152602001600382015481526020016004820154815260200160058201548152602001600682015481526020016007820160009054906101000a900460ff161515151581526020016007820160019054906101000a900460ff161515151581525050905080602001518160400151826060015183608001518460a001518560e00151866101000151975097509750975097509750975050919395979092949650565b81600081118015611df35750600f548111155b611e355760405162461bcd60e51b8152602060048201526013602482015272125b9d985b1a59081c1c9bdc1bdcd85b081251606a1b6044820152606401610b09565b60008381526012602052604090206003810154421115611e8d5760405162461bcd60e51b8152602060048201526013602482015272159bdd1a5b99c81c195c9a5bd908195b991959606a1b6044820152606401610b09565b600084815260146020908152604080832033845290915290205460ff1615611ee75760405162461bcd60e51b815260206004820152600d60248201526c105b1c9958591e481d9bdd1959609a1b6044820152606401610b09565b3360009081526020819052604090205480611f365760405162461bcd60e51b815260206004820152600f60248201526e2737903b37ba34b733903837bbb2b960891b6044820152606401610b09565b600085815260146020908152604080832033808552908352818420805460ff191660011790558884526015835281842090845290915290208190558315611f965780826004016000828254611f8b91906129e4565b90915550611fb09050565b80826005016000828254611faa91906129e4565b90915550505b60408051851515815260208101839052339187917fcbdf6214089cba887ecbf35a0b6a734589959c9763342c756bb2a80ca2bc9f6e910160405180910390a35050505050565b60606017805480602002602001604051908101604052809291908181526020018280548015610a405760200282019190600052602060002090815481526020019060010190808311610eee575050505050905090565b6120546121b0565b6001600160a01b03811661207e57604051631e4fbdf760e01b815260006004820152602401610b09565b612087816121dd565b50565b612097838383600161222f565b505050565b6001600160a01b03838116600090815260016020908152604080832093861683529290522054600019811015612115578181101561210657604051637dc7a0d960e11b81526001600160a01b03841660048201526024810182905260448101839052606401610b09565b6121158484848403600061222f565b50505050565b6001600160a01b03831661214557604051634b637e8f60e11b815260006004820152602401610b09565b6001600160a01b03821661216f5760405163ec442f0560e01b815260006004820152602401610b09565b612097838383612304565b6001600160a01b0382166121a45760405163ec442f0560e01b815260006004820152602401610b09565b61139060008383612304565b6005546001600160a01b031633146116945760405163118cdaa760e01b8152336004820152602401610b09565b600580546001600160a01b038381166001600160a01b0319831681179093556040519116919082907f8be0079c531659141344cd1fd0a4f28419497f9722a3daafe3b4186f6b6457e090600090a35050565b6001600160a01b0384166122595760405163e602df0560e01b815260006004820152602401610b09565b6001600160a01b03831661228357604051634a1406b160e11b815260006004820152602401610b09565b6001600160a01b038085166000908152600160209081526040808320938716835292905220829055801561211557826001600160a01b0316846001600160a01b03167f8c5be1e5ebec7d5bd14f71427d1e84f3dd0314c0f7b2291e5b200ac8c7c3b925846040516122f691815260200190565b60405180910390a350505050565b6001600160a01b03831661232f57806002600082825461232491906129e4565b909155506123a19050565b6001600160a01b038316600090815260208190526040902054818110156123825760405163391434e360e21b81526001600160a01b03851660048201526024810182905260448101839052606401610b09565b6001600160a01b03841660009081526020819052604090209082900390555b6001600160a01b0382166123bd576002805482900390556123dc565b6001600160a01b03821660009081526020819052604090208054820190555b816001600160a01b0316836001600160a01b03167fddf252ad1be2c89b69c2b068fc378daa952ba7f163c4a11628f55a4df523b3ef8360405161242191815260200190565b60405180910390a3505050565b60006020828403121561244057600080fd5b5035919050565b6000815180845260005b8181101561246d57602081850181015186830182015201612451565b506000602082860101526020601f19601f83011685010191505092915050565b60006101208b83528060208401526124a78184018c612447565b905082810360408401526124bb818b612447565b60608401999099525050608081019590955260a085019390935260c0840191909152151560e08301521515610100909101529392505050565b6020815260006125076020830184612447565b9392505050565b80356001600160a01b038116811461252557600080fd5b919050565b6000806040838503121561253d57600080fd5b6125468361250e565b946020939093013593505050565b634e487b7160e01b600052604160045260246000fd5b600082601f83011261257b57600080fd5b813567ffffffffffffffff8082111561259657612596612554565b604051601f8301601f19908116603f011681019082821181831017156125be576125be612554565b816040528381528660208588010111156125d757600080fd5b836020870160208301376000602085830101528094505050505092915050565b60008060006060848603121561260c57600080fd5b833567ffffffffffffffff8082111561262457600080fd5b6126308783880161256a565b9450602086013591508082111561264657600080fd5b506126538682870161256a565b925050604084013590509250925092565b6020808252825182820181905260009190848201906040850190845b8181101561269c57835183529284019291840191600101612680565b50909695505050505050565b60006101008a83528960208401528860408401528760608401528660808401528060a08401526126da81840187612447565b60c0840195909552505090151560e0909101529695505050505050565b60008060006060848603121561270c57600080fd5b6127158461250e565b92506127236020850161250e565b9150604084013590509250925092565b60006101208b83528a60208401528960408401528860608401528760808401528660a08401528060c084015261276b81840187612447565b60e0840195909552505090151561010090910152979650505050505050565b60006020828403121561279c57600080fd5b6125078261250e565b600080604083850312156127b857600080fd5b823591506127c86020840161250e565b90509250929050565b60c0815260006127e460c0830189612447565b82810360208401526127f68189612447565b9050828103604084015261280a8188612447565b606084019690965250506080810192909252151560a0909101529392505050565b600080600080600060a0868803121561284357600080fd5b85359450602086013593506040860135925060608601359150608086013567ffffffffffffffff81111561287657600080fd5b6128828882890161256a565b9150509295509295909350565b60e0815260006128a260e083018a612447565b82810360208401526128b4818a612447565b6040840198909852505060608101949094526080840192909252151560a0830152151560c09091015292915050565b600080604083850312156128f657600080fd5b823591506020830135801515811461290d57600080fd5b809150509250929050565b6000806040838503121561292b57600080fd5b6129348361250e565b91506127c86020840161250e565b600181811c9082168061295657607f821691505b60208210810361297657634e487b7160e01b600052602260045260246000fd5b50919050565b634e487b7160e01b600052601160045260246000fd5b8082028115828204841417610ab257610ab261297c565b6000826129c657634e487b7160e01b600052601260045260246000fd5b500490565b6000600182016129dd576129dd61297c565b5060010190565b80820180821115610ab257610ab261297c565b601f82111561209757600081815260208120601f850160051c81016020861015612a1e5750805b601f850160051c820191505b81811015612a3d57828155600101612a2a565b505050505050565b815167ffffffffffffffff811115612a5f57612a5f612554565b612a7381612a6d8454612942565b846129f7565b602080601f831160018114612aa85760008415612a905750858301515b600019600386901b1c1916600185901b178555612a3d565b600085815260208120601f198616915b82811015612ad757888601518255948401946001909101908401612ab8565b5085821015612af55787850151600019600388901b60f8161c191681555b5050505050600190811b01905550565b604081526000612b186040830185612447565b90508260208301529392505050565b81810381811115610ab257610ab261297c56fea2646970667358221220161ae351a27d7a2000b5808048afedb29e809e1e27a4c4f4dd9ab4d9fd9c95c364736f6c63430008140033",
  "linkReferences": {},
  "deployedLinkReferences": {}
}