{
  "_format": "hh-sol-artifact-1",
  "contractName": "CoffeeShopRWASimple",
  "sourceName": "contracts/CoffeeShopRWASimple.sol",
  "abi": [
    {
      "inputs": [
        {
          "internalType": "string",
          "name": "_shopName",
          "type": "string"
        },
        {
          "internalType": "string",
          "name": "_location",
          "type": "string"
        },
        {
          "internalType": "string",
          "name": "_description",
          "type": "string"
        },
        {
          "internalType": "uint256",
          "name": "_totalValuation",
          "type": "uint256"
        },
        {
          "internalType": "uint256",
          "name": "_tokenizedPercentage",
          "type": "uint256"
        },
        {
          "internalType": "uint256",
          "name": "_initialTokenSupply",
          "type": "uint256"
        }
      ],
      "stateMutability": "nonpayable",
      "type": "constructor"
    },
    {
      "inputs": [
        {
          "internalType": "address",
          "name": "spender",
          "type": "address"
        },
        {
          "internalType": "uint256",
          "name": "allowance",
          "type": "uint256"
        },
        {
          "internalType": "uint256",
          "name": "needed",
          "type": "uint256"
        }
      ],
      "name": "ERC20InsufficientAllowance",
      "type": "error"
    },
    {
      "inputs": [
        {
          "internalType": "address",
          "name": "sender",
          "type": "address"
        },
        {
          "internalType": "uint256",
          "name": "balance",
          "type": "uint256"
        },
        {
          "internalType": "uint256",
          "name": "needed",
          "type": "uint256"
        }
      ],
      "name": "ERC20InsufficientBalance",
      "type": "error"
    },
    {
      "inputs": [
        {
          "internalType": "address",
          "name": "approver",
          "type": "address"
        }
      ],
      "name": "ERC20InvalidApprover",
      "type": "error"
    },
    {
      "inputs": [
        {
          "internalType": "address",
          "name": "receiver",
          "type": "address"
        }
      ],
      "name": "ERC20InvalidReceiver",
      "type": "error"
    },
    {
      "inputs": [
        {
          "internalType": "address",
          "name": "sender",
          "type": "address"
        }
      ],
      "name": "ERC20InvalidSender",
      "type": "error"
    },
    {
      "inputs": [
        {
          "internalType": "address",
          "name": "spender",
          "type": "address"
        }
      ],
      "name": "ERC20InvalidSpender",
      "type": "error"
    },
    {
      "inputs": [
        {
          "internalType": "address",
          "name": "owner",
          "type": "address"
        }
      ],
      "name": "OwnableInvalidOwner",
      "type": "error"
    },
    {
      "inputs": [
        {
          "internalType": "address",
          "name": "account",
          "type": "address"
        }
      ],
      "name": "OwnableUnauthorizedAccount",
      "type": "error"
    },
    {
      "anonymous": false,
      "inputs": [
        {
          "indexed": true,
          "internalType": "address",
          "name": "owner",
          "type": "address"
        },
        {
          "indexed": true,
          "internalType": "address",
          "name": "spender",
          "type": "address"
        },
        {
          "indexed": false,
          "internalType": "uint256",
          "name": "value",
          "type": "uint256"
        }
      ],
      "name": "Approval",
      "type": "event"
    },
    {
      "anonymous": false,
      "inputs": [
        {
          "indexed": false,
          "internalType": "string",
          "name": "shopName",
          "type": "string"
        },
        {
          "indexed": false,
          "internalType": "string",
          "name": "location",
          "type": "string"
        },
        {
          "indexed": false,
          "internalType": "uint256",
          "name": "totalValuation",
          "type": "uint256"
        },
        {
          "indexed": false,
          "internalType": "uint256",
          "name": "tokenizedPercentage",
          "type": "uint256"
        },
        {
          "indexed": false,
          "internalType": "uint256",
          "name": "tokensIssued",
          "type": "uint256"
        }
      ],
      "name": "AssetTokenized",
      "type": "event"
    },
    {
      "anonymous": false,
      "inputs": [
        {
          "indexed": true,
          "internalType": "address",
          "name": "previousOwner",
          "type": "address"
        },
        {
          "indexed": true,
          "internalType": "address",
          "name": "newOwner",
          "type": "address"
        }
      ],
      "name": "OwnershipTransferred",
      "type": "event"
    },
    {
      "anonymous": false,
      "inputs": [
        {
          "indexed": true,
          "internalType": "address",
          "name": "from",
          "type": "address"
        },
        {
          "indexed": true,
          "internalType": "address",
          "name": "to",
          "type": "address"
        },
        {
          "indexed": false,
          "internalType": "uint256",
          "name": "value",
          "type": "uint256"
        }
      ],
      "name": "Transfer",
      "type": "event"
    },
    {
      "inputs": [
        {
          "internalType": "address",
          "name": "owner",
          "type": "address"
        },
        {
          "internalType": "address",
          "name": "spender",
          "type": "address"
        }
      ],
      "name": "allowance",
      "outputs": [
        {
          "internalType": "uint256",
          "name": "",
          "type": "uint256"
        }
      ],
      "stateMutability": "view",
      "type": "function"
    },
    {
      "inputs": [
        {
          "internalType": "address",
          "name": "spender",
          "type": "address"
        },
        {
          "internalType": "uint256",
          "name": "value",
          "type": "uint256"
        }
      ],
      "name": "approve",
      "outputs": [
        {
          "internalType": "bool",
          "name": "",
          "type": "bool"
        }
      ],
      "stateMutability": "nonpayable",
      "type": "function"
    },
    {
      "inputs": [],
      "name": "assetInfo",
      "outputs": [
        {
          "internalType": "string",
          "name": "shopName",
          "type": "string"
        },
        {
          "internalType": "string",
          "name": "location",
          "type": "string"
        },
        {
          "internalType": "string",
          "name": "description",
          "type": "string"
        },
        {
          "internalType": "uint256",
          "name": "totalValuation",
          "type": "uint256"
        },
        {
          "internalType": "uint256",
          "name": "tokenizedPercentage",
          "type": "uint256"
        },
        {
          "internalType": "bool",
          "name": "isVerified",
          "type": "bool"
        }
      ],
      "stateMutability": "view",
      "type": "function"
    },
    {
      "inputs": [
        {
          "internalType": "address",
          "name": "account",
          "type": "address"
        }
      ],
      "name": "balanceOf",
      "outputs": [
        {
          "internalType": "uint256",
          "name": "",
          "type": "uint256"
        }
      ],
      "stateMutability": "view",
      "type": "function"
    },
    {
      "inputs": [],
      "name": "decimals",
      "outputs": [
        {
          "internalType": "uint8",
          "name": "",
          "type": "uint8"
        }
      ],
      "stateMutability": "view",
      "type": "function"
    },
    {
      "inputs": [],
      "name": "getAssetInfo",
      "outputs": [
        {
          "internalType": "string",
          "name": "shopName",
          "type": "string"
        },
        {
          "internalType": "string",
          "name": "location",
          "type": "string"
        },
        {
          "internalType": "string",
          "name": "description",
          "type": "string"
        },
        {
          "internalType": "uint256",
          "name": "totalValuation",
          "type": "uint256"
        },
        {
          "internalType": "uint256",
          "name": "tokenizedPercentage",
          "type": "uint256"
        },
        {
          "internalType": "bool",
          "name": "isVerified",
          "type": "bool"
        }
      ],
      "stateMutability": "view",
      "type": "function"
    },
    {
      "inputs": [],
      "name": "getTokenValue",
      "outputs": [
        {
          "internalType": "uint256",
          "name": "",
          "type": "uint256"
        }
      ],
      "stateMutability": "view",
      "type": "function"
    },
    {
      "inputs": [
        {
          "internalType": "address",
          "name": "_to",
          "type": "address"
        },
        {
          "internalType": "uint256",
          "name": "_amount",
          "type": "uint256"
        }
      ],
      "name": "issueTokens",
      "outputs": [],
      "stateMutability": "nonpayable",
      "type": "function"
    },
    {
      "inputs": [],
      "name": "maxTotalSupply",
      "outputs": [
        {
          "internalType": "uint256",
          "name": "",
          "type": "uint256"
        }
      ],
      "stateMutability": "view",
      "type": "function"
    },
    {
      "inputs": [],
      "name": "name",
      "outputs": [
        {
          "internalType": "string",
          "name": "",
          "type": "string"
        }
      ],
      "stateMutability": "view",
      "type": "function"
    },
    {
      "inputs": [],
      "name": "owner",
      "outputs": [
        {
          "internalType": "address",
          "name": "",
          "type": "address"
        }
      ],
      "stateMutability": "view",
      "type": "function"
    },
    {
      "inputs": [],
      "name": "renounceOwnership",
      "outputs": [],
      "stateMutability": "nonpayable",
      "type": "function"
    },
    {
      "inputs": [],
      "name": "symbol",
      "outputs": [
        {
          "internalType": "string",
          "name": "",
          "type": "string"
        }
      ],
      "stateMutability": "view",
      "type": "function"
    },
    {
      "inputs": [],
      "name": "totalSupply",
      "outputs": [
        {
          "internalType": "uint256",
          "name": "",
          "type": "uint256"
        }
      ],
      "stateMutability": "view",
      "type": "function"
    },
    {
      "inputs": [
        {
          "internalType": "address",
          "name": "to",
          "type": "address"
        },
        {
          "internalType": "uint256",
          "name": "value",
          "type": "uint256"
        }
      ],
      "name": "transfer",
      "outputs": [
        {
          "internalType": "bool",
          "name": "",
          "type": "bool"
        }
      ],
      "stateMutability": "nonpayable",
      "type": "function"
    },
    {
      "inputs": [
        {
          "internalType": "address",
          "name": "from",
          "type": "address"
        },
        {
          "internalType": "address",
          "name": "to",
          "type": "address"
        },
        {
          "internalType": "uint256",
          "name": "value",
          "type": "uint256"
        }
      ],
      "name": "transferFrom",
      "outputs": [
        {
          "internalType": "bool",
          "name": "",
          "type": "bool"
        }
      ],
      "stateMutability": "nonpayable",
      "type": "function"
    },
    {
      "inputs": [
        {
          "internalType": "address",
          "name": "newOwner",
          "type": "address"
        }
      ],
      "name": "transferOwnership",
      "outputs": [],
      "stateMutability": "nonpayable",
      "type": "function"
    }
  ],
  "bytecode": "0x60806040523480156200001157600080fd5b506040516200167f3803806200167f833981016040819052620000349162000569565b336040518060400160405280601181526020017021b7b33332b29029b437b8102a37b5b2b760791b81525060405180604001604052806006815260200165434f4646454560d01b81525081600390816200008f9190620006a5565b5060046200009e8282620006a5565b5050506001600160a01b038116620000d157604051631e4fbdf760e01b8152600060048201526024015b60405180910390fd5b620000dc81620002d9565b50612710821115620001315760405162461bcd60e51b815260206004820152601e60248201527f43616e6e6f7420746f6b656e697a65206d6f7265207468616e203130302500006044820152606401620000c8565b60008311620001835760405162461bcd60e51b815260206004820152601a60248201527f56616c756174696f6e206d75737420626520706f7369746976650000000000006044820152606401620000c8565b60008111620001d55760405162461bcd60e51b815260206004820152601f60248201527f496e697469616c20737570706c79206d75737420626520706f736974697665006044820152606401620000c8565b6040805160c081018252878152602081018790529081018590526060810184905260808101839052600060a0820152600680620002138982620006a5565b50602082015160018201906200022a9082620006a5565b5060408201516002820190620002419082620006a5565b50606082015160038201556080820151600482015560a0909101516005909101805460ff19169115159190911790556200027d81600262000787565b600c556200028c33826200032b565b7f15cbbc35f7783ea0c9f7d492a8029ee85e7383ea1948eb95ed67130e830f1ec08686858585604051620002c5959493929190620007d5565b60405180910390a150505050505062000832565b600580546001600160a01b038381166001600160a01b0319831681179093556040519116919082907f8be0079c531659141344cd1fd0a4f28419497f9722a3daafe3b4186f6b6457e090600090a35050565b6001600160a01b038216620003575760405163ec442f0560e01b815260006004820152602401620000c8565b620003656000838362000369565b5050565b6001600160a01b038316620003985780600260008282546200038c91906200081c565b909155506200040c9050565b6001600160a01b03831660009081526020819052604090205481811015620003ed5760405163391434e360e21b81526001600160a01b03851660048201526024810182905260448101839052606401620000c8565b6001600160a01b03841660009081526020819052604090209082900390555b6001600160a01b0382166200042a5760028054829003905562000449565b6001600160a01b03821660009081526020819052604090208054820190555b816001600160a01b0316836001600160a01b03167fddf252ad1be2c89b69c2b068fc378daa952ba7f163c4a11628f55a4df523b3ef836040516200048f91815260200190565b60405180910390a3505050565b634e487b7160e01b600052604160045260246000fd5b60005b83811015620004cf578181015183820152602001620004b5565b50506000910152565b600082601f830112620004ea57600080fd5b81516001600160401b03808211156200050757620005076200049c565b604051601f8301601f19908116603f011681019082821181831017156200053257620005326200049c565b816040528381528660208588010111156200054c57600080fd5b6200055f846020830160208901620004b2565b9695505050505050565b60008060008060008060c087890312156200058357600080fd5b86516001600160401b03808211156200059b57600080fd5b620005a98a838b01620004d8565b97506020890151915080821115620005c057600080fd5b620005ce8a838b01620004d8565b96506040890151915080821115620005e557600080fd5b50620005f489828a01620004d8565b945050606087015192506080870151915060a087015190509295509295509295565b600181811c908216806200062b57607f821691505b6020821081036200064c57634e487b7160e01b600052602260045260246000fd5b50919050565b601f821115620006a057600081815260208120601f850160051c810160208610156200067b5750805b601f850160051c820191505b818110156200069c5782815560010162000687565b5050505b505050565b81516001600160401b03811115620006c157620006c16200049c565b620006d981620006d2845462000616565b8462000652565b602080601f831160018114620007115760008415620006f85750858301515b600019600386901b1c1916600185901b1785556200069c565b600085815260208120601f198616915b82811015620007425788860151825594840194600190910190840162000721565b5085821015620007615787850151600019600388901b60f8161c191681555b5050505050600190811b01905550565b634e487b7160e01b600052601160045260246000fd5b8082028115828204841417620007a157620007a162000771565b92915050565b60008151808452620007c1816020860160208601620004b2565b601f01601f19169290920160200192915050565b60a081526000620007ea60a0830188620007a7565b8281036020840152620007fe8188620007a7565b60408401969096525050606081019290925260809091015292915050565b80820180821115620007a157620007a162000771565b610e3d80620008426000396000f3fe608060405234801561001057600080fd5b506004361061010b5760003560e01c80635e3109e7116100a257806395d89b411161007157806395d89b4114610215578063a40bee501461021d578063a9059cbb14610225578063dd62ed3e14610238578063f2fde38b1461027157600080fd5b80635e3109e7146101af57806370a08231146101c9578063715018a6146101f25780638da5cb5b146101fa57600080fd5b806323b872dd116100de57806323b872dd1461016f5780632ab4d05214610182578063313ce5671461018b578063475a9fa91461019a57600080fd5b806306fdde031461011057806306ffce531461012e578063095ea7b31461014457806318160ddd14610167575b600080fd5b610118610284565b6040516101259190610c27565b60405180910390f35b610136610316565b604051908152602001610125565b610157610152366004610c5d565b61036a565b6040519015158152602001610125565b600254610136565b61015761017d366004610c87565b610384565b610136600c5481565b60405160128152602001610125565b6101ad6101a8366004610c5d565b6103a8565b005b6101b7610428565b60405161012596959493929190610cc3565b6101366101d7366004610d1d565b6001600160a01b031660009081526020819052604090205490565b6101ad610609565b6005546040516001600160a01b039091168152602001610125565b61011861061d565b6101b761062c565b610157610233366004610c5d565b6107f1565b610136610246366004610d38565b6001600160a01b03918216600090815260016020908152604080832093909416825291909152205490565b6101ad61027f366004610d1d565b6107ff565b60606003805461029390610d6b565b80601f01602080910402602001604051908101604052809291908181526020018280546102bf90610d6b565b801561030c5780601f106102e15761010080835404028352916020019161030c565b820191906000526020600020905b8154815290600101906020018083116102ef57829003601f168201915b5050505050905090565b600061032160025490565b60000361032e5750600090565b600a54600954600091612710916103459190610dbb565b61034f9190610dd2565b905061035a60025490565b6103649082610dd2565b91505090565b60003361037881858561083d565b60019150505b92915050565b60003361039285828561084f565b61039d8585856108ce565b506001949350505050565b6103b061092d565b600c54816103bd60025490565b6103c79190610df4565b111561041a5760405162461bcd60e51b815260206004820152601c60248201527f45786365656473206d6178696d756d20746f74616c20737570706c790000000060448201526064015b60405180910390fd5b610424828261095a565b5050565b600954600a54600b5460068054606094859485946000948594859491936007936008939260ff90911690869061045d90610d6b565b80601f016020809104026020016040519081016040528092919081815260200182805461048990610d6b565b80156104d65780601f106104ab576101008083540402835291602001916104d6565b820191906000526020600020905b8154815290600101906020018083116104b957829003601f168201915b505050505095508480546104e990610d6b565b80601f016020809104026020016040519081016040528092919081815260200182805461051590610d6b565b80156105625780601f1061053757610100808354040283529160200191610562565b820191906000526020600020905b81548152906001019060200180831161054557829003601f168201915b5050505050945083805461057590610d6b565b80601f01602080910402602001604051908101604052809291908181526020018280546105a190610d6b565b80156105ee5780601f106105c3576101008083540402835291602001916105ee565b820191906000526020600020905b8154815290600101906020018083116105d157829003601f168201915b50505050509350955095509550955095509550909192939495565b61061161092d565b61061b6000610990565b565b60606004805461029390610d6b565b60068054819061063b90610d6b565b80601f016020809104026020016040519081016040528092919081815260200182805461066790610d6b565b80156106b45780601f10610689576101008083540402835291602001916106b4565b820191906000526020600020905b81548152906001019060200180831161069757829003601f168201915b5050505050908060010180546106c990610d6b565b80601f01602080910402602001604051908101604052809291908181526020018280546106f590610d6b565b80156107425780601f1061071757610100808354040283529160200191610742565b820191906000526020600020905b81548152906001019060200180831161072557829003601f168201915b50505050509080600201805461075790610d6b565b80601f016020809104026020016040519081016040528092919081815260200182805461078390610d6b565b80156107d05780601f106107a5576101008083540402835291602001916107d0565b820191906000526020600020905b8154815290600101906020018083116107b357829003601f168201915b50505050600383015460048401546005909401549293909290915060ff1686565b6000336103788185856108ce565b61080761092d565b6001600160a01b03811661083157604051631e4fbdf760e01b815260006004820152602401610411565b61083a81610990565b50565b61084a83838360016109e2565b505050565b6001600160a01b038381166000908152600160209081526040808320938616835292905220546000198110156108c857818110156108b957604051637dc7a0d960e11b81526001600160a01b03841660048201526024810182905260448101839052606401610411565b6108c8848484840360006109e2565b50505050565b6001600160a01b0383166108f857604051634b637e8f60e11b815260006004820152602401610411565b6001600160a01b0382166109225760405163ec442f0560e01b815260006004820152602401610411565b61084a838383610ab7565b6005546001600160a01b0316331461061b5760405163118cdaa760e01b8152336004820152602401610411565b6001600160a01b0382166109845760405163ec442f0560e01b815260006004820152602401610411565b61042460008383610ab7565b600580546001600160a01b038381166001600160a01b0319831681179093556040519116919082907f8be0079c531659141344cd1fd0a4f28419497f9722a3daafe3b4186f6b6457e090600090a35050565b6001600160a01b038416610a0c5760405163e602df0560e01b815260006004820152602401610411565b6001600160a01b038316610a3657604051634a1406b160e11b815260006004820152602401610411565b6001600160a01b03808516600090815260016020908152604080832093871683529290522082905580156108c857826001600160a01b0316846001600160a01b03167f8c5be1e5ebec7d5bd14f71427d1e84f3dd0314c0f7b2291e5b200ac8c7c3b92584604051610aa991815260200190565b60405180910390a350505050565b6001600160a01b038316610ae2578060026000828254610ad79190610df4565b90915550610b549050565b6001600160a01b03831660009081526020819052604090205481811015610b355760405163391434e360e21b81526001600160a01b03851660048201526024810182905260448101839052606401610411565b6001600160a01b03841660009081526020819052604090209082900390555b6001600160a01b038216610b7057600280548290039055610b8f565b6001600160a01b03821660009081526020819052604090208054820190555b816001600160a01b0316836001600160a01b03167fddf252ad1be2c89b69c2b068fc378daa952ba7f163c4a11628f55a4df523b3ef83604051610bd491815260200190565b60405180910390a3505050565b6000815180845260005b81811015610c0757602081850181015186830182015201610beb565b506000602082860101526020601f19601f83011685010191505092915050565b602081526000610c3a6020830184610be1565b9392505050565b80356001600160a01b0381168114610c5857600080fd5b919050565b60008060408385031215610c7057600080fd5b610c7983610c41565b946020939093013593505050565b600080600060608486031215610c9c57600080fd5b610ca584610c41565b9250610cb360208501610c41565b9150604084013590509250925092565b60c081526000610cd660c0830189610be1565b8281036020840152610ce88189610be1565b90508281036040840152610cfc8188610be1565b606084019690965250506080810192909252151560a0909101529392505050565b600060208284031215610d2f57600080fd5b610c3a82610c41565b60008060408385031215610d4b57600080fd5b610d5483610c41565b9150610d6260208401610c41565b90509250929050565b600181811c90821680610d7f57607f821691505b602082108103610d9f57634e487b7160e01b600052602260045260246000fd5b50919050565b634e487b7160e01b600052601160045260246000fd5b808202811582820484141761037e5761037e610da5565b600082610def57634e487b7160e01b600052601260045260246000fd5b500490565b8082018082111561037e5761037e610da556fea2646970667358221220ecf8dece8d391a91a29591ad52fb99813405fa8cc5cf71e549ab3584a4db660e64736f6c63430008140033",
  "linkReferences": {},
  "deployedLinkReferences": {}
}