{
  "_format": "hh-sol-artifact-1",
  "contractName": "TestCoffeeStep1",
  "sourceName": "contracts/TestCoffeeStep1.sol",
  "abi": [
    {
      "inputs": [
        {
          "internalType": "string",
          "name": "_shopName",
          "type": "string"
        },
        {
          "internalType": "string",
          "name": "_location",
          "type": "string"
        },
        {
          "internalType": "string",
          "name": "_description",
          "type": "string"
        },
        {
          "internalType": "uint256",
          "name": "_totalValuation",
          "type": "uint256"
        },
        {
          "internalType": "uint256",
          "name": "_tokenizedPercentage",
          "type": "uint256"
        },
        {
          "internalType": "uint256",
          "name": "_initialTokenSupply",
          "type": "uint256"
        }
      ],
      "stateMutability": "nonpayable",
      "type": "constructor"
    },
    {
      "inputs": [
        {
          "internalType": "address",
          "name": "spender",
          "type": "address"
        },
        {
          "internalType": "uint256",
          "name": "allowance",
          "type": "uint256"
        },
        {
          "internalType": "uint256",
          "name": "needed",
          "type": "uint256"
        }
      ],
      "name": "ERC20InsufficientAllowance",
      "type": "error"
    },
    {
      "inputs": [
        {
          "internalType": "address",
          "name": "sender",
          "type": "address"
        },
        {
          "internalType": "uint256",
          "name": "balance",
          "type": "uint256"
        },
        {
          "internalType": "uint256",
          "name": "needed",
          "type": "uint256"
        }
      ],
      "name": "ERC20InsufficientBalance",
      "type": "error"
    },
    {
      "inputs": [
        {
          "internalType": "address",
          "name": "approver",
          "type": "address"
        }
      ],
      "name": "ERC20InvalidApprover",
      "type": "error"
    },
    {
      "inputs": [
        {
          "internalType": "address",
          "name": "receiver",
          "type": "address"
        }
      ],
      "name": "ERC20InvalidReceiver",
      "type": "error"
    },
    {
      "inputs": [
        {
          "internalType": "address",
          "name": "sender",
          "type": "address"
        }
      ],
      "name": "ERC20InvalidSender",
      "type": "error"
    },
    {
      "inputs": [
        {
          "internalType": "address",
          "name": "spender",
          "type": "address"
        }
      ],
      "name": "ERC20InvalidSpender",
      "type": "error"
    },
    {
      "inputs": [
        {
          "internalType": "address",
          "name": "owner",
          "type": "address"
        }
      ],
      "name": "OwnableInvalidOwner",
      "type": "error"
    },
    {
      "inputs": [
        {
          "internalType": "address",
          "name": "account",
          "type": "address"
        }
      ],
      "name": "OwnableUnauthorizedAccount",
      "type": "error"
    },
    {
      "anonymous": false,
      "inputs": [
        {
          "indexed": true,
          "internalType": "address",
          "name": "owner",
          "type": "address"
        },
        {
          "indexed": true,
          "internalType": "address",
          "name": "spender",
          "type": "address"
        },
        {
          "indexed": false,
          "internalType": "uint256",
          "name": "value",
          "type": "uint256"
        }
      ],
      "name": "Approval",
      "type": "event"
    },
    {
      "anonymous": false,
      "inputs": [
        {
          "indexed": true,
          "internalType": "address",
          "name": "previousOwner",
          "type": "address"
        },
        {
          "indexed": true,
          "internalType": "address",
          "name": "newOwner",
          "type": "address"
        }
      ],
      "name": "OwnershipTransferred",
      "type": "event"
    },
    {
      "anonymous": false,
      "inputs": [
        {
          "indexed": true,
          "internalType": "address",
          "name": "from",
          "type": "address"
        },
        {
          "indexed": true,
          "internalType": "address",
          "name": "to",
          "type": "address"
        },
        {
          "indexed": false,
          "internalType": "uint256",
          "name": "value",
          "type": "uint256"
        }
      ],
      "name": "Transfer",
      "type": "event"
    },
    {
      "inputs": [
        {
          "internalType": "address",
          "name": "owner",
          "type": "address"
        },
        {
          "internalType": "address",
          "name": "spender",
          "type": "address"
        }
      ],
      "name": "allowance",
      "outputs": [
        {
          "internalType": "uint256",
          "name": "",
          "type": "uint256"
        }
      ],
      "stateMutability": "view",
      "type": "function"
    },
    {
      "inputs": [
        {
          "internalType": "address",
          "name": "spender",
          "type": "address"
        },
        {
          "internalType": "uint256",
          "name": "value",
          "type": "uint256"
        }
      ],
      "name": "approve",
      "outputs": [
        {
          "internalType": "bool",
          "name": "",
          "type": "bool"
        }
      ],
      "stateMutability": "nonpayable",
      "type": "function"
    },
    {
      "inputs": [],
      "name": "assetInfo",
      "outputs": [
        {
          "internalType": "string",
          "name": "shopName",
          "type": "string"
        },
        {
          "internalType": "string",
          "name": "location",
          "type": "string"
        },
        {
          "internalType": "string",
          "name": "description",
          "type": "string"
        },
        {
          "internalType": "uint256",
          "name": "totalValuation",
          "type": "uint256"
        },
        {
          "internalType": "uint256",
          "name": "tokenizedPercentage",
          "type": "uint256"
        },
        {
          "internalType": "string",
          "name": "legalDocumentHash",
          "type": "string"
        },
        {
          "internalType": "bool",
          "name": "isVerified",
          "type": "bool"
        }
      ],
      "stateMutability": "view",
      "type": "function"
    },
    {
      "inputs": [
        {
          "internalType": "address",
          "name": "account",
          "type": "address"
        }
      ],
      "name": "balanceOf",
      "outputs": [
        {
          "internalType": "uint256",
          "name": "",
          "type": "uint256"
        }
      ],
      "stateMutability": "view",
      "type": "function"
    },
    {
      "inputs": [],
      "name": "decimals",
      "outputs": [
        {
          "internalType": "uint8",
          "name": "",
          "type": "uint8"
        }
      ],
      "stateMutability": "view",
      "type": "function"
    },
    {
      "inputs": [],
      "name": "name",
      "outputs": [
        {
          "internalType": "string",
          "name": "",
          "type": "string"
        }
      ],
      "stateMutability": "view",
      "type": "function"
    },
    {
      "inputs": [],
      "name": "owner",
      "outputs": [
        {
          "internalType": "address",
          "name": "",
          "type": "address"
        }
      ],
      "stateMutability": "view",
      "type": "function"
    },
    {
      "inputs": [],
      "name": "renounceOwnership",
      "outputs": [],
      "stateMutability": "nonpayable",
      "type": "function"
    },
    {
      "inputs": [],
      "name": "symbol",
      "outputs": [
        {
          "internalType": "string",
          "name": "",
          "type": "string"
        }
      ],
      "stateMutability": "view",
      "type": "function"
    },
    {
      "inputs": [],
      "name": "totalSupply",
      "outputs": [
        {
          "internalType": "uint256",
          "name": "",
          "type": "uint256"
        }
      ],
      "stateMutability": "view",
      "type": "function"
    },
    {
      "inputs": [
        {
          "internalType": "address",
          "name": "to",
          "type": "address"
        },
        {
          "internalType": "uint256",
          "name": "value",
          "type": "uint256"
        }
      ],
      "name": "transfer",
      "outputs": [
        {
          "internalType": "bool",
          "name": "",
          "type": "bool"
        }
      ],
      "stateMutability": "nonpayable",
      "type": "function"
    },
    {
      "inputs": [
        {
          "internalType": "address",
          "name": "from",
          "type": "address"
        },
        {
          "internalType": "address",
          "name": "to",
          "type": "address"
        },
        {
          "internalType": "uint256",
          "name": "value",
          "type": "uint256"
        }
      ],
      "name": "transferFrom",
      "outputs": [
        {
          "internalType": "bool",
          "name": "",
          "type": "bool"
        }
      ],
      "stateMutability": "nonpayable",
      "type": "function"
    },
    {
      "inputs": [
        {
          "internalType": "address",
          "name": "newOwner",
          "type": "address"
        }
      ],
      "name": "transferOwnership",
      "outputs": [],
      "stateMutability": "nonpayable",
      "type": "function"
    }
  ],
  "bytecode": "0x60806040523480156200001157600080fd5b50604051620012d5380380620012d5833981016040819052620000349162000548565b336040518060400160405280601181526020017021b7b33332b29029b437b8102a37b5b2b760791b81525060405180604001604052806006815260200165434f4646454560d01b81525081600390816200008f919062000684565b5060046200009e828262000684565b5050506001600160a01b038116620000d157604051631e4fbdf760e01b8152600060048201526024015b60405180910390fd5b620000dc81620002c0565b50612710821115620001315760405162461bcd60e51b815260206004820152601e60248201527f43616e6e6f7420746f6b656e697a65206d6f7265207468616e203130302500006044820152606401620000c8565b60008311620001835760405162461bcd60e51b815260206004820152601a60248201527f56616c756174696f6e206d75737420626520706f7369746976650000000000006044820152606401620000c8565b60008111620001d55760405162461bcd60e51b815260206004820152601f60248201527f496e697469616c20737570706c79206d75737420626520706f736974697665006044820152606401620000c8565b6040518060e00160405280878152602001868152602001858152602001848152602001838152602001604051806020016040528060008152508152602001600015158152506006600082015181600001908162000233919062000684565b50602082015160018201906200024a908262000684565b506040820151600282019062000261908262000684565b50606082015160038201556080820151600482015560a082015160058201906200028c908262000684565b5060c091909101516006909101805460ff1916911515919091179055620002b4338262000312565b50505050505062000778565b600580546001600160a01b038381166001600160a01b0319831681179093556040519116919082907f8be0079c531659141344cd1fd0a4f28419497f9722a3daafe3b4186f6b6457e090600090a35050565b6001600160a01b0382166200033e5760405163ec442f0560e01b815260006004820152602401620000c8565b6200034c6000838362000350565b5050565b6001600160a01b0383166200037f57806002600082825462000373919062000750565b90915550620003f39050565b6001600160a01b03831660009081526020819052604090205481811015620003d45760405163391434e360e21b81526001600160a01b03851660048201526024810182905260448101839052606401620000c8565b6001600160a01b03841660009081526020819052604090209082900390555b6001600160a01b038216620004115760028054829003905562000430565b6001600160a01b03821660009081526020819052604090208054820190555b816001600160a01b0316836001600160a01b03167fddf252ad1be2c89b69c2b068fc378daa952ba7f163c4a11628f55a4df523b3ef836040516200047691815260200190565b60405180910390a3505050565b634e487b7160e01b600052604160045260246000fd5b600082601f830112620004ab57600080fd5b81516001600160401b0380821115620004c857620004c862000483565b604051601f8301601f19908116603f01168101908282118183101715620004f357620004f362000483565b816040528381526020925086838588010111156200051057600080fd5b600091505b8382101562000534578582018301518183018401529082019062000515565b600093810190920192909252949350505050565b60008060008060008060c087890312156200056257600080fd5b86516001600160401b03808211156200057a57600080fd5b620005888a838b0162000499565b975060208901519150808211156200059f57600080fd5b620005ad8a838b0162000499565b96506040890151915080821115620005c457600080fd5b50620005d389828a0162000499565b945050606087015192506080870151915060a087015190509295509295509295565b600181811c908216806200060a57607f821691505b6020821081036200062b57634e487b7160e01b600052602260045260246000fd5b50919050565b601f8211156200067f57600081815260208120601f850160051c810160208610156200065a5750805b601f850160051c820191505b818110156200067b5782815560010162000666565b5050505b505050565b81516001600160401b03811115620006a057620006a062000483565b620006b881620006b18454620005f5565b8462000631565b602080601f831160018114620006f05760008415620006d75750858301515b600019600386901b1c1916600185901b1785556200067b565b600085815260208120601f198616915b82811015620007215788860151825594840194600190910190840162000700565b5085821015620007405787850151600019600388901b60f8161c191681555b5050505050600190811b01905550565b808201808211156200077257634e487b7160e01b600052601160045260246000fd5b92915050565b610b4d80620007886000396000f3fe608060405234801561001057600080fd5b50600436106100cf5760003560e01c8063715018a61161008c578063a40bee5011610066578063a40bee501461019f578063a9059cbb146101ba578063dd62ed3e146101cd578063f2fde38b1461020657600080fd5b8063715018a6146101725780638da5cb5b1461017c57806395d89b411461019757600080fd5b806306fdde03146100d4578063095ea7b3146100f257806318160ddd1461011557806323b872dd14610127578063313ce5671461013a57806370a0823114610149575b600080fd5b6100dc610219565b6040516100e99190610962565b60405180910390f35b610105610100366004610998565b6102ab565b60405190151581526020016100e9565b6002545b6040519081526020016100e9565b6101056101353660046109c2565b6102c5565b604051601281526020016100e9565b6101196101573660046109fe565b6001600160a01b031660009081526020819052604090205490565b61017a6102e9565b005b6005546040516001600160a01b0390911681526020016100e9565b6100dc6102fd565b6101a761030c565b6040516100e99796959493929190610a19565b6101056101c8366004610998565b61055d565b6101196101db366004610a89565b6001600160a01b03918216600090815260016020908152604080832093909416825291909152205490565b61017a6102143660046109fe565b61056b565b60606003805461022890610abc565b80601f016020809104026020016040519081016040528092919081815260200182805461025490610abc565b80156102a15780601f10610276576101008083540402835291602001916102a1565b820191906000526020600020905b81548152906001019060200180831161028457829003601f168201915b5050505050905090565b6000336102b98185856105ae565b60019150505b92915050565b6000336102d38582856105c0565b6102de85858561063f565b506001949350505050565b6102f161069e565b6102fb60006106cb565b565b60606004805461022890610abc565b60068054819061031b90610abc565b80601f016020809104026020016040519081016040528092919081815260200182805461034790610abc565b80156103945780601f1061036957610100808354040283529160200191610394565b820191906000526020600020905b81548152906001019060200180831161037757829003601f168201915b5050505050908060010180546103a990610abc565b80601f01602080910402602001604051908101604052809291908181526020018280546103d590610abc565b80156104225780601f106103f757610100808354040283529160200191610422565b820191906000526020600020905b81548152906001019060200180831161040557829003601f168201915b50505050509080600201805461043790610abc565b80601f016020809104026020016040519081016040528092919081815260200182805461046390610abc565b80156104b05780601f10610485576101008083540402835291602001916104b0565b820191906000526020600020905b81548152906001019060200180831161049357829003601f168201915b5050505050908060030154908060040154908060050180546104d190610abc565b80601f01602080910402602001604051908101604052809291908181526020018280546104fd90610abc565b801561054a5780601f1061051f5761010080835404028352916020019161054a565b820191906000526020600020905b81548152906001019060200180831161052d57829003601f168201915b5050506006909301549192505060ff1687565b6000336102b981858561063f565b61057361069e565b6001600160a01b0381166105a257604051631e4fbdf760e01b8152600060048201526024015b60405180910390fd5b6105ab816106cb565b50565b6105bb838383600161071d565b505050565b6001600160a01b03838116600090815260016020908152604080832093861683529290522054600019811015610639578181101561062a57604051637dc7a0d960e11b81526001600160a01b03841660048201526024810182905260448101839052606401610599565b6106398484848403600061071d565b50505050565b6001600160a01b03831661066957604051634b637e8f60e11b815260006004820152602401610599565b6001600160a01b0382166106935760405163ec442f0560e01b815260006004820152602401610599565b6105bb8383836107f2565b6005546001600160a01b031633146102fb5760405163118cdaa760e01b8152336004820152602401610599565b600580546001600160a01b038381166001600160a01b0319831681179093556040519116919082907f8be0079c531659141344cd1fd0a4f28419497f9722a3daafe3b4186f6b6457e090600090a35050565b6001600160a01b0384166107475760405163e602df0560e01b815260006004820152602401610599565b6001600160a01b03831661077157604051634a1406b160e11b815260006004820152602401610599565b6001600160a01b038085166000908152600160209081526040808320938716835292905220829055801561063957826001600160a01b0316846001600160a01b03167f8c5be1e5ebec7d5bd14f71427d1e84f3dd0314c0f7b2291e5b200ac8c7c3b925846040516107e491815260200190565b60405180910390a350505050565b6001600160a01b03831661081d5780600260008282546108129190610af6565b9091555061088f9050565b6001600160a01b038316600090815260208190526040902054818110156108705760405163391434e360e21b81526001600160a01b03851660048201526024810182905260448101839052606401610599565b6001600160a01b03841660009081526020819052604090209082900390555b6001600160a01b0382166108ab576002805482900390556108ca565b6001600160a01b03821660009081526020819052604090208054820190555b816001600160a01b0316836001600160a01b03167fddf252ad1be2c89b69c2b068fc378daa952ba7f163c4a11628f55a4df523b3ef8360405161090f91815260200190565b60405180910390a3505050565b6000815180845260005b8181101561094257602081850181015186830182015201610926565b506000602082860101526020601f19601f83011685010191505092915050565b602081526000610975602083018461091c565b9392505050565b80356001600160a01b038116811461099357600080fd5b919050565b600080604083850312156109ab57600080fd5b6109b48361097c565b946020939093013593505050565b6000806000606084860312156109d757600080fd5b6109e08461097c565b92506109ee6020850161097c565b9150604084013590509250925092565b600060208284031215610a1057600080fd5b6109758261097c565b60e081526000610a2c60e083018a61091c565b8281036020840152610a3e818a61091c565b90508281036040840152610a52818961091c565b905086606084015285608084015282810360a0840152610a72818661091c565b91505082151560c083015298975050505050505050565b60008060408385031215610a9c57600080fd5b610aa58361097c565b9150610ab36020840161097c565b90509250929050565b600181811c90821680610ad057607f821691505b602082108103610af057634e487b7160e01b600052602260045260246000fd5b50919050565b808201808211156102bf57634e487b7160e01b600052601160045260246000fdfea264697066735822122017332425143ee4be2da71aa808f70bbce3d2ee52f94371ca731753c89802b2c264736f6c63430008140033",
  "linkReferences": {},
  "deployedLinkReferences": {}
}