{
  "_format": "hh-sol-artifact-1",
  "contractName": "TestCoffeeStep2",
  "sourceName": "contracts/TestCoffeeStep2.sol",
  "abi": [
    {
      "inputs": [
        {
          "internalType": "string",
          "name": "_shopName",
          "type": "string"
        },
        {
          "internalType": "string",
          "name": "_location",
          "type": "string"
        },
        {
          "internalType": "string",
          "name": "_description",
          "type": "string"
        },
        {
          "internalType": "uint256",
          "name": "_totalValuation",
          "type": "uint256"
        },
        {
          "internalType": "uint256",
          "name": "_tokenizedPercentage",
          "type": "uint256"
        },
        {
          "internalType": "uint256",
          "name": "_initialTokenSupply",
          "type": "uint256"
        }
      ],
      "stateMutability": "nonpayable",
      "type": "constructor"
    },
    {
      "inputs": [
        {
          "internalType": "address",
          "name": "spender",
          "type": "address"
        },
        {
          "internalType": "uint256",
          "name": "allowance",
          "type": "uint256"
        },
        {
          "internalType": "uint256",
          "name": "needed",
          "type": "uint256"
        }
      ],
      "name": "ERC20InsufficientAllowance",
      "type": "error"
    },
    {
      "inputs": [
        {
          "internalType": "address",
          "name": "sender",
          "type": "address"
        },
        {
          "internalType": "uint256",
          "name": "balance",
          "type": "uint256"
        },
        {
          "internalType": "uint256",
          "name": "needed",
          "type": "uint256"
        }
      ],
      "name": "ERC20InsufficientBalance",
      "type": "error"
    },
    {
      "inputs": [
        {
          "internalType": "address",
          "name": "approver",
          "type": "address"
        }
      ],
      "name": "ERC20InvalidApprover",
      "type": "error"
    },
    {
      "inputs": [
        {
          "internalType": "address",
          "name": "receiver",
          "type": "address"
        }
      ],
      "name": "ERC20InvalidReceiver",
      "type": "error"
    },
    {
      "inputs": [
        {
          "internalType": "address",
          "name": "sender",
          "type": "address"
        }
      ],
      "name": "ERC20InvalidSender",
      "type": "error"
    },
    {
      "inputs": [
        {
          "internalType": "address",
          "name": "spender",
          "type": "address"
        }
      ],
      "name": "ERC20InvalidSpender",
      "type": "error"
    },
    {
      "inputs": [],
      "name": "EnforcedPause",
      "type": "error"
    },
    {
      "inputs": [],
      "name": "ExpectedPause",
      "type": "error"
    },
    {
      "inputs": [
        {
          "internalType": "address",
          "name": "owner",
          "type": "address"
        }
      ],
      "name": "OwnableInvalidOwner",
      "type": "error"
    },
    {
      "inputs": [
        {
          "internalType": "address",
          "name": "account",
          "type": "address"
        }
      ],
      "name": "OwnableUnauthorizedAccount",
      "type": "error"
    },
    {
      "inputs": [],
      "name": "ReentrancyGuardReentrantCall",
      "type": "error"
    },
    {
      "anonymous": false,
      "inputs": [
        {
          "indexed": true,
          "internalType": "address",
          "name": "owner",
          "type": "address"
        },
        {
          "indexed": true,
          "internalType": "address",
          "name": "spender",
          "type": "address"
        },
        {
          "indexed": false,
          "internalType": "uint256",
          "name": "value",
          "type": "uint256"
        }
      ],
      "name": "Approval",
      "type": "event"
    },
    {
      "anonymous": false,
      "inputs": [
        {
          "indexed": true,
          "internalType": "address",
          "name": "previousOwner",
          "type": "address"
        },
        {
          "indexed": true,
          "internalType": "address",
          "name": "newOwner",
          "type": "address"
        }
      ],
      "name": "OwnershipTransferred",
      "type": "event"
    },
    {
      "anonymous": false,
      "inputs": [
        {
          "indexed": false,
          "internalType": "address",
          "name": "account",
          "type": "address"
        }
      ],
      "name": "Paused",
      "type": "event"
    },
    {
      "anonymous": false,
      "inputs": [
        {
          "indexed": true,
          "internalType": "address",
          "name": "from",
          "type": "address"
        },
        {
          "indexed": true,
          "internalType": "address",
          "name": "to",
          "type": "address"
        },
        {
          "indexed": false,
          "internalType": "uint256",
          "name": "value",
          "type": "uint256"
        }
      ],
      "name": "Transfer",
      "type": "event"
    },
    {
      "anonymous": false,
      "inputs": [
        {
          "indexed": false,
          "internalType": "address",
          "name": "account",
          "type": "address"
        }
      ],
      "name": "Unpaused",
      "type": "event"
    },
    {
      "inputs": [
        {
          "internalType": "address",
          "name": "owner",
          "type": "address"
        },
        {
          "internalType": "address",
          "name": "spender",
          "type": "address"
        }
      ],
      "name": "allowance",
      "outputs": [
        {
          "internalType": "uint256",
          "name": "",
          "type": "uint256"
        }
      ],
      "stateMutability": "view",
      "type": "function"
    },
    {
      "inputs": [
        {
          "internalType": "address",
          "name": "spender",
          "type": "address"
        },
        {
          "internalType": "uint256",
          "name": "value",
          "type": "uint256"
        }
      ],
      "name": "approve",
      "outputs": [
        {
          "internalType": "bool",
          "name": "",
          "type": "bool"
        }
      ],
      "stateMutability": "nonpayable",
      "type": "function"
    },
    {
      "inputs": [],
      "name": "assetInfo",
      "outputs": [
        {
          "internalType": "string",
          "name": "shopName",
          "type": "string"
        },
        {
          "internalType": "string",
          "name": "location",
          "type": "string"
        },
        {
          "internalType": "string",
          "name": "description",
          "type": "string"
        },
        {
          "internalType": "uint256",
          "name": "totalValuation",
          "type": "uint256"
        },
        {
          "internalType": "uint256",
          "name": "tokenizedPercentage",
          "type": "uint256"
        },
        {
          "internalType": "string",
          "name": "legalDocumentHash",
          "type": "string"
        },
        {
          "internalType": "bool",
          "name": "isVerified",
          "type": "bool"
        }
      ],
      "stateMutability": "view",
      "type": "function"
    },
    {
      "inputs": [
        {
          "internalType": "address",
          "name": "account",
          "type": "address"
        }
      ],
      "name": "balanceOf",
      "outputs": [
        {
          "internalType": "uint256",
          "name": "",
          "type": "uint256"
        }
      ],
      "stateMutability": "view",
      "type": "function"
    },
    {
      "inputs": [],
      "name": "decimals",
      "outputs": [
        {
          "internalType": "uint8",
          "name": "",
          "type": "uint8"
        }
      ],
      "stateMutability": "view",
      "type": "function"
    },
    {
      "inputs": [],
      "name": "maxTotalSupply",
      "outputs": [
        {
          "internalType": "uint256",
          "name": "",
          "type": "uint256"
        }
      ],
      "stateMutability": "view",
      "type": "function"
    },
    {
      "inputs": [],
      "name": "name",
      "outputs": [
        {
          "internalType": "string",
          "name": "",
          "type": "string"
        }
      ],
      "stateMutability": "view",
      "type": "function"
    },
    {
      "inputs": [],
      "name": "owner",
      "outputs": [
        {
          "internalType": "address",
          "name": "",
          "type": "address"
        }
      ],
      "stateMutability": "view",
      "type": "function"
    },
    {
      "inputs": [],
      "name": "paused",
      "outputs": [
        {
          "internalType": "bool",
          "name": "",
          "type": "bool"
        }
      ],
      "stateMutability": "view",
      "type": "function"
    },
    {
      "inputs": [],
      "name": "renounceOwnership",
      "outputs": [],
      "stateMutability": "nonpayable",
      "type": "function"
    },
    {
      "inputs": [],
      "name": "symbol",
      "outputs": [
        {
          "internalType": "string",
          "name": "",
          "type": "string"
        }
      ],
      "stateMutability": "view",
      "type": "function"
    },
    {
      "inputs": [],
      "name": "totalSupply",
      "outputs": [
        {
          "internalType": "uint256",
          "name": "",
          "type": "uint256"
        }
      ],
      "stateMutability": "view",
      "type": "function"
    },
    {
      "inputs": [
        {
          "internalType": "address",
          "name": "to",
          "type": "address"
        },
        {
          "internalType": "uint256",
          "name": "value",
          "type": "uint256"
        }
      ],
      "name": "transfer",
      "outputs": [
        {
          "internalType": "bool",
          "name": "",
          "type": "bool"
        }
      ],
      "stateMutability": "nonpayable",
      "type": "function"
    },
    {
      "inputs": [
        {
          "internalType": "address",
          "name": "from",
          "type": "address"
        },
        {
          "internalType": "address",
          "name": "to",
          "type": "address"
        },
        {
          "internalType": "uint256",
          "name": "value",
          "type": "uint256"
        }
      ],
      "name": "transferFrom",
      "outputs": [
        {
          "internalType": "bool",
          "name": "",
          "type": "bool"
        }
      ],
      "stateMutability": "nonpayable",
      "type": "function"
    },
    {
      "inputs": [
        {
          "internalType": "address",
          "name": "newOwner",
          "type": "address"
        }
      ],
      "name": "transferOwnership",
      "outputs": [],
      "stateMutability": "nonpayable",
      "type": "function"
    }
  ],
  "bytecode": "0x60806040523480156200001157600080fd5b50604051620013c1380380620013c18339810160408190526200003491620005a0565b336040518060400160405280601181526020017021b7b33332b29029b437b8102a37b5b2b760791b81525060405180604001604052806006815260200165434f4646454560d01b81525081600390816200008f9190620006db565b5060046200009e8282620006db565b5050506001600160a01b038116620000d157604051631e4fbdf760e01b8152600060048201526024015b60405180910390fd5b620000dc81620002d5565b506001600655612710821115620001365760405162461bcd60e51b815260206004820152601e60248201527f43616e6e6f7420746f6b656e697a65206d6f7265207468616e203130302500006044820152606401620000c8565b60008311620001885760405162461bcd60e51b815260206004820152601a60248201527f56616c756174696f6e206d75737420626520706f7369746976650000000000006044820152606401620000c8565b60008111620001da5760405162461bcd60e51b815260206004820152601f60248201527f496e697469616c20737570706c79206d75737420626520706f736974697665006044820152606401620000c8565b6040518060e001604052808781526020018681526020018581526020018481526020018381526020016040518060200160405280600081525081526020016000151581525060086000820151816000019081620002389190620006db565b50602082015160018201906200024f9082620006db565b5060408201516002820190620002669082620006db565b50606082015160038201556080820151600482015560a08201516005820190620002919082620006db565b5060c091909101516006909101805460ff1916911515919091179055620002ba816002620007bd565b600f55620002c9338262000327565b505050505050620007f3565b600580546001600160a01b038381166001600160a01b0319831681179093556040519116919082907f8be0079c531659141344cd1fd0a4f28419497f9722a3daafe3b4186f6b6457e090600090a35050565b6001600160a01b038216620003535760405163ec442f0560e01b815260006004820152602401620000c8565b620003616000838362000365565b5050565b6200036f62000381565b6200037c838383620003a8565b505050565b60075460ff1615620003a65760405163d93c066560e01b815260040160405180910390fd5b565b6001600160a01b038316620003d7578060026000828254620003cb9190620007dd565b909155506200044b9050565b6001600160a01b038316600090815260208190526040902054818110156200042c5760405163391434e360e21b81526001600160a01b03851660048201526024810182905260448101839052606401620000c8565b6001600160a01b03841660009081526020819052604090209082900390555b6001600160a01b038216620004695760028054829003905562000488565b6001600160a01b03821660009081526020819052604090208054820190555b816001600160a01b0316836001600160a01b03167fddf252ad1be2c89b69c2b068fc378daa952ba7f163c4a11628f55a4df523b3ef83604051620004ce91815260200190565b60405180910390a3505050565b634e487b7160e01b600052604160045260246000fd5b600082601f8301126200050357600080fd5b81516001600160401b0380821115620005205762000520620004db565b604051601f8301601f19908116603f011681019082821181831017156200054b576200054b620004db565b816040528381526020925086838588010111156200056857600080fd5b600091505b838210156200058c57858201830151818301840152908201906200056d565b600093810190920192909252949350505050565b60008060008060008060c08789031215620005ba57600080fd5b86516001600160401b0380821115620005d257600080fd5b620005e08a838b01620004f1565b97506020890151915080821115620005f757600080fd5b620006058a838b01620004f1565b965060408901519150808211156200061c57600080fd5b506200062b89828a01620004f1565b945050606087015192506080870151915060a087015190509295509295509295565b600181811c908216806200066257607f821691505b6020821081036200068357634e487b7160e01b600052602260045260246000fd5b50919050565b601f8211156200037c57600081815260208120601f850160051c81016020861015620006b25750805b601f850160051c820191505b81811015620006d357828155600101620006be565b505050505050565b81516001600160401b03811115620006f757620006f7620004db565b6200070f816200070884546200064d565b8462000689565b602080601f8311600181146200074757600084156200072e5750858301515b600019600386901b1c1916600185901b178555620006d3565b600085815260208120601f198616915b82811015620007785788860151825594840194600190910190840162000757565b5085821015620007975787850151600019600388901b60f8161c191681555b5050505050600190811b01905550565b634e487b7160e01b600052601160045260246000fd5b8082028115828204841417620007d757620007d7620007a7565b92915050565b80820180821115620007d757620007d7620007a7565b610bbe80620008036000396000f3fe608060405234801561001057600080fd5b50600436106100f55760003560e01c806370a0823111610097578063a40bee5011610066578063a40bee50146101d9578063a9059cbb146101f4578063dd62ed3e14610207578063f2fde38b1461024057600080fd5b806370a0823114610183578063715018a6146101ac5780638da5cb5b146101b657806395d89b41146101d157600080fd5b806323b872dd116100d357806323b872dd1461014d5780632ab4d05214610160578063313ce567146101695780635c975abb1461017857600080fd5b806306fdde03146100fa578063095ea7b31461011857806318160ddd1461013b575b600080fd5b610102610253565b60405161010f91906109d3565b60405180910390f35b61012b610126366004610a09565b6102e5565b604051901515815260200161010f565b6002545b60405190815260200161010f565b61012b61015b366004610a33565b6102ff565b61013f600f5481565b6040516012815260200161010f565b60075460ff1661012b565b61013f610191366004610a6f565b6001600160a01b031660009081526020819052604090205490565b6101b4610323565b005b6005546040516001600160a01b03909116815260200161010f565b610102610337565b6101e1610346565b60405161010f9796959493929190610a8a565b61012b610202366004610a09565b610597565b61013f610215366004610afa565b6001600160a01b03918216600090815260016020908152604080832093909416825291909152205490565b6101b461024e366004610a6f565b6105a5565b60606003805461026290610b2d565b80601f016020809104026020016040519081016040528092919081815260200182805461028e90610b2d565b80156102db5780601f106102b0576101008083540402835291602001916102db565b820191906000526020600020905b8154815290600101906020018083116102be57829003601f168201915b5050505050905090565b6000336102f38185856105e8565b60019150505b92915050565b60003361030d8582856105fa565b610318858585610679565b506001949350505050565b61032b6106d8565b6103356000610705565b565b60606004805461026290610b2d565b60088054819061035590610b2d565b80601f016020809104026020016040519081016040528092919081815260200182805461038190610b2d565b80156103ce5780601f106103a3576101008083540402835291602001916103ce565b820191906000526020600020905b8154815290600101906020018083116103b157829003601f168201915b5050505050908060010180546103e390610b2d565b80601f016020809104026020016040519081016040528092919081815260200182805461040f90610b2d565b801561045c5780601f106104315761010080835404028352916020019161045c565b820191906000526020600020905b81548152906001019060200180831161043f57829003601f168201915b50505050509080600201805461047190610b2d565b80601f016020809104026020016040519081016040528092919081815260200182805461049d90610b2d565b80156104ea5780601f106104bf576101008083540402835291602001916104ea565b820191906000526020600020905b8154815290600101906020018083116104cd57829003601f168201915b50505050509080600301549080600401549080600501805461050b90610b2d565b80601f016020809104026020016040519081016040528092919081815260200182805461053790610b2d565b80156105845780601f1061055957610100808354040283529160200191610584565b820191906000526020600020905b81548152906001019060200180831161056757829003601f168201915b5050506006909301549192505060ff1687565b6000336102f3818585610679565b6105ad6106d8565b6001600160a01b0381166105dc57604051631e4fbdf760e01b8152600060048201526024015b60405180910390fd5b6105e581610705565b50565b6105f58383836001610757565b505050565b6001600160a01b03838116600090815260016020908152604080832093861683529290522054600019811015610673578181101561066457604051637dc7a0d960e11b81526001600160a01b038416600482015260248101829052604481018390526064016105d3565b61067384848484036000610757565b50505050565b6001600160a01b0383166106a357604051634b637e8f60e11b8152600060048201526024016105d3565b6001600160a01b0382166106cd5760405163ec442f0560e01b8152600060048201526024016105d3565b6105f583838361082c565b6005546001600160a01b031633146103355760405163118cdaa760e01b81523360048201526024016105d3565b600580546001600160a01b038381166001600160a01b0319831681179093556040519116919082907f8be0079c531659141344cd1fd0a4f28419497f9722a3daafe3b4186f6b6457e090600090a35050565b6001600160a01b0384166107815760405163e602df0560e01b8152600060048201526024016105d3565b6001600160a01b0383166107ab57604051634a1406b160e11b8152600060048201526024016105d3565b6001600160a01b038085166000908152600160209081526040808320938716835292905220829055801561067357826001600160a01b0316846001600160a01b03167f8c5be1e5ebec7d5bd14f71427d1e84f3dd0314c0f7b2291e5b200ac8c7c3b9258460405161081e91815260200190565b60405180910390a350505050565b61083461083f565b6105f5838383610863565b60075460ff16156103355760405163d93c066560e01b815260040160405180910390fd5b6001600160a01b03831661088e5780600260008282546108839190610b67565b909155506109009050565b6001600160a01b038316600090815260208190526040902054818110156108e15760405163391434e360e21b81526001600160a01b038516600482015260248101829052604481018390526064016105d3565b6001600160a01b03841660009081526020819052604090209082900390555b6001600160a01b03821661091c5760028054829003905561093b565b6001600160a01b03821660009081526020819052604090208054820190555b816001600160a01b0316836001600160a01b03167fddf252ad1be2c89b69c2b068fc378daa952ba7f163c4a11628f55a4df523b3ef8360405161098091815260200190565b60405180910390a3505050565b6000815180845260005b818110156109b357602081850181015186830182015201610997565b506000602082860101526020601f19601f83011685010191505092915050565b6020815260006109e6602083018461098d565b9392505050565b80356001600160a01b0381168114610a0457600080fd5b919050565b60008060408385031215610a1c57600080fd5b610a25836109ed565b946020939093013593505050565b600080600060608486031215610a4857600080fd5b610a51846109ed565b9250610a5f602085016109ed565b9150604084013590509250925092565b600060208284031215610a8157600080fd5b6109e6826109ed565b60e081526000610a9d60e083018a61098d565b8281036020840152610aaf818a61098d565b90508281036040840152610ac3818961098d565b905086606084015285608084015282810360a0840152610ae3818661098d565b91505082151560c083015298975050505050505050565b60008060408385031215610b0d57600080fd5b610b16836109ed565b9150610b24602084016109ed565b90509250929050565b600181811c90821680610b4157607f821691505b602082108103610b6157634e487b7160e01b600052602260045260246000fd5b50919050565b808201808211156102f957634e487b7160e01b600052601160045260246000fdfea2646970667358221220d49da701b51382baa4c7cb869284a937abff40bc6cd04694777b8112ce6961d164736f6c63430008140033",
  "linkReferences": {},
  "deployedLinkReferences": {}
}