{
  "_format": "hh-sol-artifact-1",
  "contractName": "CoffeeShopRWA",
  "sourceName": "contracts/CoffeeShopRWA.sol",
  "abi": [
    {
      "inputs": [
        {
          "internalType": "string",
          "name": "_shopName",
          "type": "string"
        },
        {
          "internalType": "string",
          "name": "_location",
          "type": "string"
        },
        {
          "internalType": "string",
          "name": "_description",
          "type": "string"
        },
        {
          "internalType": "uint256",
          "name": "_totalValuation",
          "type": "uint256"
        },
        {
          "internalType": "uint256",
          "name": "_tokenizedPercentage",
          "type": "uint256"
        },
        {
          "internalType": "uint256",
          "name": "_initialTokenSupply",
          "type": "uint256"
        }
      ],
      "stateMutability": "nonpayable",
      "type": "constructor"
    },
    {
      "inputs": [
        {
          "internalType": "address",
          "name": "spender",
          "type": "address"
        },
        {
          "internalType": "uint256",
          "name": "allowance",
          "type": "uint256"
        },
        {
          "internalType": "uint256",
          "name": "needed",
          "type": "uint256"
        }
      ],
      "name": "ERC20InsufficientAllowance",
      "type": "error"
    },
    {
      "inputs": [
        {
          "internalType": "address",
          "name": "sender",
          "type": "address"
        },
        {
          "internalType": "uint256",
          "name": "balance",
          "type": "uint256"
        },
        {
          "internalType": "uint256",
          "name": "needed",
          "type": "uint256"
        }
      ],
      "name": "ERC20InsufficientBalance",
      "type": "error"
    },
    {
      "inputs": [
        {
          "internalType": "address",
          "name": "approver",
          "type": "address"
        }
      ],
      "name": "ERC20InvalidApprover",
      "type": "error"
    },
    {
      "inputs": [
        {
          "internalType": "address",
          "name": "receiver",
          "type": "address"
        }
      ],
      "name": "ERC20InvalidReceiver",
      "type": "error"
    },
    {
      "inputs": [
        {
          "internalType": "address",
          "name": "sender",
          "type": "address"
        }
      ],
      "name": "ERC20InvalidSender",
      "type": "error"
    },
    {
      "inputs": [
        {
          "internalType": "address",
          "name": "spender",
          "type": "address"
        }
      ],
      "name": "ERC20InvalidSpender",
      "type": "error"
    },
    {
      "inputs": [],
      "name": "EnforcedPause",
      "type": "error"
    },
    {
      "inputs": [],
      "name": "ExpectedPause",
      "type": "error"
    },
    {
      "inputs": [
        {
          "internalType": "address",
          "name": "owner",
          "type": "address"
        }
      ],
      "name": "OwnableInvalidOwner",
      "type": "error"
    },
    {
      "inputs": [
        {
          "internalType": "address",
          "name": "account",
          "type": "address"
        }
      ],
      "name": "OwnableUnauthorizedAccount",
      "type": "error"
    },
    {
      "inputs": [],
      "name": "ReentrancyGuardReentrantCall",
      "type": "error"
    },
    {
      "anonymous": false,
      "inputs": [
        {
          "indexed": true,
          "internalType": "address",
          "name": "owner",
          "type": "address"
        },
        {
          "indexed": true,
          "internalType": "address",
          "name": "spender",
          "type": "address"
        },
        {
          "indexed": false,
          "internalType": "uint256",
          "name": "value",
          "type": "uint256"
        }
      ],
      "name": "Approval",
      "type": "event"
    },
    {
      "anonymous": false,
      "inputs": [
        {
          "indexed": false,
          "internalType": "string",
          "name": "shopName",
          "type": "string"
        },
        {
          "indexed": false,
          "internalType": "string",
          "name": "location",
          "type": "string"
        },
        {
          "indexed": false,
          "internalType": "uint256",
          "name": "totalValuation",
          "type": "uint256"
        },
        {
          "indexed": false,
          "internalType": "uint256",
          "name": "tokenizedPercentage",
          "type": "uint256"
        },
        {
          "indexed": false,
          "internalType": "uint256",
          "name": "tokensIssued",
          "type": "uint256"
        }
      ],
      "name": "AssetTokenized",
      "type": "event"
    },
    {
      "anonymous": false,
      "inputs": [
        {
          "indexed": false,
          "internalType": "string",
          "name": "legalDocumentHash",
          "type": "string"
        }
      ],
      "name": "AssetVerified",
      "type": "event"
    },
    {
      "anonymous": false,
      "inputs": [
        {
          "indexed": true,
          "internalType": "address",
          "name": "holder",
          "type": "address"
        },
        {
          "indexed": true,
          "internalType": "uint256",
          "name": "distributionId",
          "type": "uint256"
        },
        {
          "indexed": false,
          "internalType": "uint256",
          "name": "amount",
          "type": "uint256"
        }
      ],
      "name": "DividendClaimed",
      "type": "event"
    },
    {
      "anonymous": false,
      "inputs": [
        {
          "indexed": true,
          "internalType": "uint256",
          "name": "distributionId",
          "type": "uint256"
        },
        {
          "indexed": false,
          "internalType": "uint256",
          "name": "totalAmount",
          "type": "uint256"
        },
        {
          "indexed": false,
          "internalType": "uint256",
          "name": "pricePerToken",
          "type": "uint256"
        },
        {
          "indexed": false,
          "internalType": "uint256",
          "name": "reportId",
          "type": "uint256"
        }
      ],
      "name": "DividendDistributed",
      "type": "event"
    },
    {
      "anonymous": false,
      "inputs": [
        {
          "indexed": true,
          "internalType": "uint256",
          "name": "reportId",
          "type": "uint256"
        },
        {
          "indexed": false,
          "internalType": "uint256",
          "name": "month",
          "type": "uint256"
        },
        {
          "indexed": false,
          "internalType": "uint256",
          "name": "year",
          "type": "uint256"
        },
        {
          "indexed": false,
          "internalType": "uint256",
          "name": "revenue",
          "type": "uint256"
        },
        {
          "indexed": false,
          "internalType": "uint256",
          "name": "netProfit",
          "type": "uint256"
        },
        {
          "indexed": false,
          "internalType": "string",
          "name": "reportHash",
          "type": "string"
        }
      ],
      "name": "FinancialReportSubmitted",
      "type": "event"
    },
    {
      "anonymous": false,
      "inputs": [
        {
          "indexed": true,
          "internalType": "address",
          "name": "previousOwner",
          "type": "address"
        },
        {
          "indexed": true,
          "internalType": "address",
          "name": "newOwner",
          "type": "address"
        }
      ],
      "name": "OwnershipTransferred",
      "type": "event"
    },
    {
      "anonymous": false,
      "inputs": [
        {
          "indexed": false,
          "internalType": "address",
          "name": "account",
          "type": "address"
        }
      ],
      "name": "Paused",
      "type": "event"
    },
    {
      "anonymous": false,
      "inputs": [
        {
          "indexed": true,
          "internalType": "uint256",
          "name": "proposalId",
          "type": "uint256"
        },
        {
          "indexed": true,
          "internalType": "address",
          "name": "creator",
          "type": "address"
        },
        {
          "indexed": false,
          "internalType": "string",
          "name": "title",
          "type": "string"
        },
        {
          "indexed": false,
          "internalType": "uint256",
          "name": "votingDeadline",
          "type": "uint256"
        }
      ],
      "name": "ProposalCreated",
      "type": "event"
    },
    {
      "anonymous": false,
      "inputs": [
        {
          "indexed": true,
          "internalType": "uint256",
          "name": "proposalId",
          "type": "uint256"
        },
        {
          "indexed": false,
          "internalType": "bool",
          "name": "passed",
          "type": "bool"
        }
      ],
      "name": "ProposalExecuted",
      "type": "event"
    },
    {
      "anonymous": false,
      "inputs": [
        {
          "indexed": true,
          "internalType": "address",
          "name": "reporter",
          "type": "address"
        }
      ],
      "name": "ReporterAuthorized",
      "type": "event"
    },
    {
      "anonymous": false,
      "inputs": [
        {
          "indexed": true,
          "internalType": "address",
          "name": "reporter",
          "type": "address"
        }
      ],
      "name": "ReporterRevoked",
      "type": "event"
    },
    {
      "anonymous": false,
      "inputs": [
        {
          "indexed": true,
          "internalType": "address",
          "name": "from",
          "type": "address"
        },
        {
          "indexed": true,
          "internalType": "address",
          "name": "to",
          "type": "address"
        },
        {
          "indexed": false,
          "internalType": "uint256",
          "name": "value",
          "type": "uint256"
        }
      ],
      "name": "Transfer",
      "type": "event"
    },
    {
      "anonymous": false,
      "inputs": [
        {
          "indexed": false,
          "internalType": "address",
          "name": "account",
          "type": "address"
        }
      ],
      "name": "Unpaused",
      "type": "event"
    },
    {
      "anonymous": false,
      "inputs": [
        {
          "indexed": true,
          "internalType": "uint256",
          "name": "proposalId",
          "type": "uint256"
        },
        {
          "indexed": true,
          "internalType": "address",
          "name": "voter",
          "type": "address"
        },
        {
          "indexed": false,
          "internalType": "bool",
          "name": "support",
          "type": "bool"
        },
        {
          "indexed": false,
          "internalType": "uint256",
          "name": "votingPower",
          "type": "uint256"
        }
      ],
      "name": "VoteCast",
      "type": "event"
    },
    {
      "inputs": [],
      "name": "MIN_VOTING_PERIOD",
      "outputs": [
        {
          "internalType": "uint256",
          "name": "",
          "type": "uint256"
        }
      ],
      "stateMutability": "view",
      "type": "function"
    },
    {
      "inputs": [
        {
          "internalType": "address",
          "name": "owner",
          "type": "address"
        },
        {
          "internalType": "address",
          "name": "spender",
          "type": "address"
        }
      ],
      "name": "allowance",
      "outputs": [
        {
          "internalType": "uint256",
          "name": "",
          "type": "uint256"
        }
      ],
      "stateMutability": "view",
      "type": "function"
    },
    {
      "inputs": [
        {
          "internalType": "address",
          "name": "spender",
          "type": "address"
        },
        {
          "internalType": "uint256",
          "name": "value",
          "type": "uint256"
        }
      ],
      "name": "approve",
      "outputs": [
        {
          "internalType": "bool",
          "name": "",
          "type": "bool"
        }
      ],
      "stateMutability": "nonpayable",
      "type": "function"
    },
    {
      "inputs": [
        {
          "internalType": "uint256",
          "name": "_reportId",
          "type": "uint256"
        }
      ],
      "name": "approveFinancialReport",
      "outputs": [],
      "stateMutability": "nonpayable",
      "type": "function"
    },
    {
      "inputs": [],
      "name": "assetInfo",
      "outputs": [
        {
          "internalType": "string",
          "name": "shopName",
          "type": "string"
        },
        {
          "internalType": "string",
          "name": "location",
          "type": "string"
        },
        {
          "internalType": "string",
          "name": "description",
          "type": "string"
        },
        {
          "internalType": "uint256",
          "name": "totalValuation",
          "type": "uint256"
        },
        {
          "internalType": "uint256",
          "name": "tokenizedPercentage",
          "type": "uint256"
        },
        {
          "internalType": "string",
          "name": "legalDocumentHash",
          "type": "string"
        },
        {
          "internalType": "bool",
          "name": "isVerified",
          "type": "bool"
        }
      ],
      "stateMutability": "view",
      "type": "function"
    },
    {
      "inputs": [
        {
          "internalType": "address",
          "name": "_reporter",
          "type": "address"
        }
      ],
      "name": "authorizeReporter",
      "outputs": [],
      "stateMutability": "nonpayable",
      "type": "function"
    },
    {
      "inputs": [
        {
          "internalType": "address",
          "name": "",
          "type": "address"
        }
      ],
      "name": "authorizedReporters",
      "outputs": [
        {
          "internalType": "bool",
          "name": "",
          "type": "bool"
        }
      ],
      "stateMutability": "view",
      "type": "function"
    },
    {
      "inputs": [
        {
          "internalType": "address",
          "name": "account",
          "type": "address"
        }
      ],
      "name": "balanceOf",
      "outputs": [
        {
          "internalType": "uint256",
          "name": "",
          "type": "uint256"
        }
      ],
      "stateMutability": "view",
      "type": "function"
    },
    {
      "inputs": [],
      "name": "claimAllDividends",
      "outputs": [],
      "stateMutability": "nonpayable",
      "type": "function"
    },
    {
      "inputs": [
        {
          "internalType": "uint256",
          "name": "_distributionId",
          "type": "uint256"
        }
      ],
      "name": "claimDividend",
      "outputs": [],
      "stateMutability": "nonpayable",
      "type": "function"
    },
    {
      "inputs": [
        {
          "internalType": "string",
          "name": "_title",
          "type": "string"
        },
        {
          "internalType": "string",
          "name": "_description",
          "type": "string"
        },
        {
          "internalType": "uint256",
          "name": "_votingPeriod",
          "type": "uint256"
        }
      ],
      "name": "createProposal",
      "outputs": [
        {
          "internalType": "uint256",
          "name": "",
          "type": "uint256"
        }
      ],
      "stateMutability": "nonpayable",
      "type": "function"
    },
    {
      "inputs": [],
      "name": "currentDistributionId",
      "outputs": [
        {
          "internalType": "uint256",
          "name": "",
          "type": "uint256"
        }
      ],
      "stateMutability": "view",
      "type": "function"
    },
    {
      "inputs": [],
      "name": "currentProposalId",
      "outputs": [
        {
          "internalType": "uint256",
          "name": "",
          "type": "uint256"
        }
      ],
      "stateMutability": "view",
      "type": "function"
    },
    {
      "inputs": [],
      "name": "currentReportId",
      "outputs": [
        {
          "internalType": "uint256",
          "name": "",
          "type": "uint256"
        }
      ],
      "stateMutability": "view",
      "type": "function"
    },
    {
      "inputs": [],
      "name": "decimals",
      "outputs": [
        {
          "internalType": "uint8",
          "name": "",
          "type": "uint8"
        }
      ],
      "stateMutability": "view",
      "type": "function"
    },
    {
      "inputs": [
        {
          "internalType": "uint256",
          "name": "_reportId",
          "type": "uint256"
        }
      ],
      "name": "distributeDividends",
      "outputs": [],
      "stateMutability": "payable",
      "type": "function"
    },
    {
      "inputs": [
        {
          "internalType": "uint256",
          "name": "",
          "type": "uint256"
        }
      ],
      "name": "distributionIds",
      "outputs": [
        {
          "internalType": "uint256",
          "name": "",
          "type": "uint256"
        }
      ],
      "stateMutability": "view",
      "type": "function"
    },
    {
      "inputs": [
        {
          "internalType": "uint256",
          "name": "",
          "type": "uint256"
        },
        {
          "internalType": "address",
          "name": "",
          "type": "address"
        }
      ],
      "name": "dividendClaimed",
      "outputs": [
        {
          "internalType": "bool",
          "name": "",
          "type": "bool"
        }
      ],
      "stateMutability": "view",
      "type": "function"
    },
    {
      "inputs": [
        {
          "internalType": "uint256",
          "name": "",
          "type": "uint256"
        }
      ],
      "name": "dividendDistributions",
      "outputs": [
        {
          "internalType": "uint256",
          "name": "distributionId",
          "type": "uint256"
        },
        {
          "internalType": "uint256",
          "name": "totalAmount",
          "type": "uint256"
        },
        {
          "internalType": "uint256",
          "name": "pricePerToken",
          "type": "uint256"
        },
        {
          "internalType": "uint256",
          "name": "timestamp",
          "type": "uint256"
        },
        {
          "internalType": "uint256",
          "name": "reportId",
          "type": "uint256"
        }
      ],
      "stateMutability": "view",
      "type": "function"
    },
    {
      "inputs": [
        {
          "internalType": "uint256",
          "name": "_proposalId",
          "type": "uint256"
        }
      ],
      "name": "executeProposal",
      "outputs": [],
      "stateMutability": "nonpayable",
      "type": "function"
    },
    {
      "inputs": [
        {
          "internalType": "uint256",
          "name": "",
          "type": "uint256"
        }
      ],
      "name": "financialReports",
      "outputs": [
        {
          "internalType": "uint256",
          "name": "reportId",
          "type": "uint256"
        },
        {
          "internalType": "uint256",
          "name": "month",
          "type": "uint256"
        },
        {
          "internalType": "uint256",
          "name": "year",
          "type": "uint256"
        },
        {
          "internalType": "uint256",
          "name": "revenue",
          "type": "uint256"
        },
        {
          "internalType": "uint256",
          "name": "expenses",
          "type": "uint256"
        },
        {
          "internalType": "uint256",
          "name": "netProfit",
          "type": "uint256"
        },
        {
          "internalType": "uint256",
          "name": "dividendPool",
          "type": "uint256"
        },
        {
          "internalType": "string",
          "name": "reportHash",
          "type": "string"
        },
        {
          "internalType": "uint256",
          "name": "timestamp",
          "type": "uint256"
        },
        {
          "internalType": "bool",
          "name": "isApproved",
          "type": "bool"
        }
      ],
      "stateMutability": "view",
      "type": "function"
    },
    {
      "inputs": [],
      "name": "getAllReportIds",
      "outputs": [
        {
          "internalType": "uint256[]",
          "name": "",
          "type": "uint256[]"
        }
      ],
      "stateMutability": "view",
      "type": "function"
    },
    {
      "inputs": [],
      "name": "getAssetInfo",
      "outputs": [
        {
          "internalType": "string",
          "name": "shopName",
          "type": "string"
        },
        {
          "internalType": "string",
          "name": "location",
          "type": "string"
        },
        {
          "internalType": "string",
          "name": "description",
          "type": "string"
        },
        {
          "internalType": "uint256",
          "name": "totalValuation",
          "type": "uint256"
        },
        {
          "internalType": "uint256",
          "name": "tokenizedPercentage",
          "type": "uint256"
        },
        {
          "internalType": "string",
          "name": "legalDocumentHash",
          "type": "string"
        },
        {
          "internalType": "bool",
          "name": "isVerified",
          "type": "bool"
        }
      ],
      "stateMutability": "view",
      "type": "function"
    },
    {
      "inputs": [
        {
          "internalType": "uint256",
          "name": "_reportId",
          "type": "uint256"
        }
      ],
      "name": "getFinancialReport",
      "outputs": [
        {
          "internalType": "uint256",
          "name": "month",
          "type": "uint256"
        },
        {
          "internalType": "uint256",
          "name": "year",
          "type": "uint256"
        },
        {
          "internalType": "uint256",
          "name": "revenue",
          "type": "uint256"
        },
        {
          "internalType": "uint256",
          "name": "expenses",
          "type": "uint256"
        },
        {
          "internalType": "uint256",
          "name": "netProfit",
          "type": "uint256"
        },
        {
          "internalType": "uint256",
          "name": "dividendPool",
          "type": "uint256"
        },
        {
          "internalType": "string",
          "name": "reportHash",
          "type": "string"
        },
        {
          "internalType": "uint256",
          "name": "timestamp",
          "type": "uint256"
        },
        {
          "internalType": "bool",
          "name": "isApproved",
          "type": "bool"
        }
      ],
      "stateMutability": "view",
      "type": "function"
    },
    {
      "inputs": [
        {
          "internalType": "uint256",
          "name": "_proposalId",
          "type": "uint256"
        }
      ],
      "name": "getProposal",
      "outputs": [
        {
          "internalType": "string",
          "name": "title",
          "type": "string"
        },
        {
          "internalType": "string",
          "name": "description",
          "type": "string"
        },
        {
          "internalType": "uint256",
          "name": "votingDeadline",
          "type": "uint256"
        },
        {
          "internalType": "uint256",
          "name": "forVotes",
          "type": "uint256"
        },
        {
          "internalType": "uint256",
          "name": "againstVotes",
          "type": "uint256"
        },
        {
          "internalType": "bool",
          "name": "executed",
          "type": "bool"
        },
        {
          "internalType": "bool",
          "name": "passed",
          "type": "bool"
        }
      ],
      "stateMutability": "view",
      "type": "function"
    },
    {
      "inputs": [],
      "name": "getTokenValue",
      "outputs": [
        {
          "internalType": "uint256",
          "name": "",
          "type": "uint256"
        }
      ],
      "stateMutability": "view",
      "type": "function"
    },
    {
      "inputs": [
        {
          "internalType": "address",
          "name": "_holder",
          "type": "address"
        }
      ],
      "name": "getUnclaimedDividends",
      "outputs": [
        {
          "internalType": "uint256",
          "name": "",
          "type": "uint256"
        }
      ],
      "stateMutability": "view",
      "type": "function"
    },
    {
      "inputs": [
        {
          "internalType": "uint256",
          "name": "_proposalId",
          "type": "uint256"
        },
        {
          "internalType": "address",
          "name": "_voter",
          "type": "address"
        }
      ],
      "name": "hasVoted",
      "outputs": [
        {
          "internalType": "bool",
          "name": "",
          "type": "bool"
        }
      ],
      "stateMutability": "view",
      "type": "function"
    },
    {
      "inputs": [
        {
          "internalType": "address",
          "name": "_to",
          "type": "address"
        },
        {
          "internalType": "uint256",
          "name": "_amount",
          "type": "uint256"
        }
      ],
      "name": "issueTokens",
      "outputs": [],
      "stateMutability": "nonpayable",
      "type": "function"
    },
    {
      "inputs": [
        {
          "internalType": "address",
          "name": "",
          "type": "address"
        }
      ],
      "name": "lastDividendClaimed",
      "outputs": [
        {
          "internalType": "uint256",
          "name": "",
          "type": "uint256"
        }
      ],
      "stateMutability": "view",
      "type": "function"
    },
    {
      "inputs": [],
      "name": "maxTotalSupply",
      "outputs": [
        {
          "internalType": "uint256",
          "name": "",
          "type": "uint256"
        }
      ],
      "stateMutability": "view",
      "type": "function"
    },
    {
      "inputs": [],
      "name": "name",
      "outputs": [
        {
          "internalType": "string",
          "name": "",
          "type": "string"
        }
      ],
      "stateMutability": "view",
      "type": "function"
    },
    {
      "inputs": [],
      "name": "owner",
      "outputs": [
        {
          "internalType": "address",
          "name": "",
          "type": "address"
        }
      ],
      "stateMutability": "view",
      "type": "function"
    },
    {
      "inputs": [],
      "name": "pause",
      "outputs": [],
      "stateMutability": "nonpayable",
      "type": "function"
    },
    {
      "inputs": [],
      "name": "paused",
      "outputs": [
        {
          "internalType": "bool",
          "name": "",
          "type": "bool"
        }
      ],
      "stateMutability": "view",
      "type": "function"
    },
    {
      "inputs": [
        {
          "internalType": "uint256",
          "name": "",
          "type": "uint256"
        },
        {
          "internalType": "address",
          "name": "",
          "type": "address"
        }
      ],
      "name": "proposalHasVoted",
      "outputs": [
        {
          "internalType": "bool",
          "name": "",
          "type": "bool"
        }
      ],
      "stateMutability": "view",
      "type": "function"
    },
    {
      "inputs": [
        {
          "internalType": "uint256",
          "name": "",
          "type": "uint256"
        }
      ],
      "name": "proposalIds",
      "outputs": [
        {
          "internalType": "uint256",
          "name": "",
          "type": "uint256"
        }
      ],
      "stateMutability": "view",
      "type": "function"
    },
    {
      "inputs": [],
      "name": "proposalThreshold",
      "outputs": [
        {
          "internalType": "uint256",
          "name": "",
          "type": "uint256"
        }
      ],
      "stateMutability": "view",
      "type": "function"
    },
    {
      "inputs": [
        {
          "internalType": "uint256",
          "name": "",
          "type": "uint256"
        },
        {
          "internalType": "address",
          "name": "",
          "type": "address"
        }
      ],
      "name": "proposalVotingPower",
      "outputs": [
        {
          "internalType": "uint256",
          "name": "",
          "type": "uint256"
        }
      ],
      "stateMutability": "view",
      "type": "function"
    },
    {
      "inputs": [
        {
          "internalType": "uint256",
          "name": "",
          "type": "uint256"
        }
      ],
      "name": "proposals",
      "outputs": [
        {
          "internalType": "uint256",
          "name": "id",
          "type": "uint256"
        },
        {
          "internalType": "string",
          "name": "title",
          "type": "string"
        },
        {
          "internalType": "string",
          "name": "description",
          "type": "string"
        },
        {
          "internalType": "uint256",
          "name": "votingDeadline",
          "type": "uint256"
        },
        {
          "internalType": "uint256",
          "name": "forVotes",
          "type": "uint256"
        },
        {
          "internalType": "uint256",
          "name": "againstVotes",
          "type": "uint256"
        },
        {
          "internalType": "uint256",
          "name": "totalVotingPower",
          "type": "uint256"
        },
        {
          "internalType": "bool",
          "name": "executed",
          "type": "bool"
        },
        {
          "internalType": "bool",
          "name": "passed",
          "type": "bool"
        }
      ],
      "stateMutability": "view",
      "type": "function"
    },
    {
      "inputs": [],
      "name": "renounceOwnership",
      "outputs": [],
      "stateMutability": "nonpayable",
      "type": "function"
    },
    {
      "inputs": [
        {
          "internalType": "uint256",
          "name": "",
          "type": "uint256"
        }
      ],
      "name": "reportIds",
      "outputs": [
        {
          "internalType": "uint256",
          "name": "",
          "type": "uint256"
        }
      ],
      "stateMutability": "view",
      "type": "function"
    },
    {
      "inputs": [
        {
          "internalType": "address",
          "name": "_reporter",
          "type": "address"
        }
      ],
      "name": "revokeReporter",
      "outputs": [],
      "stateMutability": "nonpayable",
      "type": "function"
    },
    {
      "inputs": [
        {
          "internalType": "uint256",
          "name": "_month",
          "type": "uint256"
        },
        {
          "internalType": "uint256",
          "name": "_year",
          "type": "uint256"
        },
        {
          "internalType": "uint256",
          "name": "_revenue",
          "type": "uint256"
        },
        {
          "internalType": "uint256",
          "name": "_expenses",
          "type": "uint256"
        },
        {
          "internalType": "string",
          "name": "_reportHash",
          "type": "string"
        }
      ],
      "name": "submitFinancialReport",
      "outputs": [],
      "stateMutability": "nonpayable",
      "type": "function"
    },
    {
      "inputs": [],
      "name": "symbol",
      "outputs": [
        {
          "internalType": "string",
          "name": "",
          "type": "string"
        }
      ],
      "stateMutability": "view",
      "type": "function"
    },
    {
      "inputs": [],
      "name": "totalSupply",
      "outputs": [
        {
          "internalType": "uint256",
          "name": "",
          "type": "uint256"
        }
      ],
      "stateMutability": "view",
      "type": "function"
    },
    {
      "inputs": [
        {
          "internalType": "address",
          "name": "to",
          "type": "address"
        },
        {
          "internalType": "uint256",
          "name": "value",
          "type": "uint256"
        }
      ],
      "name": "transfer",
      "outputs": [
        {
          "internalType": "bool",
          "name": "",
          "type": "bool"
        }
      ],
      "stateMutability": "nonpayable",
      "type": "function"
    },
    {
      "inputs": [
        {
          "internalType": "address",
          "name": "from",
          "type": "address"
        },
        {
          "internalType": "address",
          "name": "to",
          "type": "address"
        },
        {
          "internalType": "uint256",
          "name": "value",
          "type": "uint256"
        }
      ],
      "name": "transferFrom",
      "outputs": [
        {
          "internalType": "bool",
          "name": "",
          "type": "bool"
        }
      ],
      "stateMutability": "nonpayable",
      "type": "function"
    },
    {
      "inputs": [
        {
          "internalType": "address",
          "name": "newOwner",
          "type": "address"
        }
      ],
      "name": "transferOwnership",
      "outputs": [],
      "stateMutability": "nonpayable",
      "type": "function"
    },
    {
      "inputs": [],
      "name": "unpause",
      "outputs": [],
      "stateMutability": "nonpayable",
      "type": "function"
    },
    {
      "inputs": [
        {
          "internalType": "string",
          "name": "_legalDocumentHash",
          "type": "string"
        }
      ],
      "name": "verifyAsset",
      "outputs": [],
      "stateMutability": "nonpayable",
      "type": "function"
    },
    {
      "inputs": [
        {
          "internalType": "uint256",
          "name": "_proposalId",
          "type": "uint256"
        },
        {
          "internalType": "bool",
          "name": "_support",
          "type": "bool"
        }
      ],
      "name": "vote",
      "outputs": [],
      "stateMutability": "nonpayable",
      "type": "function"
    }
  ],
  "bytecode": "0x608060405260646012553480156200001657600080fd5b5060405162003eea38038062003eea8339810160408190526200003991620005ee565b336040518060400160405280601181526020017021b7b33332b29029b437b8102a37b5b2b760791b81525060405180604001604052806006815260200165434f4646454560d01b815250816003908162000094919062000729565b506004620000a3828262000729565b5050506001600160a01b038116620000d657604051631e4fbdf760e01b8152600060048201526024015b60405180910390fd5b620000e1816200031b565b5060016006556127108211156200013b5760405162461bcd60e51b815260206004820152601e60248201527f43616e6e6f7420746f6b656e697a65206d6f7265207468616e203130302500006044820152606401620000cd565b600083116200018d5760405162461bcd60e51b815260206004820152601a60248201527f56616c756174696f6e206d75737420626520706f7369746976650000000000006044820152606401620000cd565b60008111620001df5760405162461bcd60e51b815260206004820152601f60248201527f496e697469616c20737570706c79206d75737420626520706f736974697665006044820152606401620000cd565b6040518060e0016040528087815260200186815260200185815260200184815260200183815260200160405180602001604052806000815250815260200160001515815250600860008201518160000190816200023d919062000729565b506020820151600182019062000254908262000729565b50604082015160028201906200026b908262000729565b50606082015160038201556080820151600482015560a0820151600582019062000296908262000729565b5060c091909101516006909101805460ff1916911515919091179055620002bf8160026200080b565b601355620002ce33826200036d565b7f15cbbc35f7783ea0c9f7d492a8029ee85e7383ea1948eb95ed67130e830f1ec086868585856040516200030795949392919062000859565b60405180910390a1505050505050620008b6565b600580546001600160a01b038381166001600160a01b0319831681179093556040519116919082907f8be0079c531659141344cd1fd0a4f28419497f9722a3daafe3b4186f6b6457e090600090a35050565b6001600160a01b038216620003995760405163ec442f0560e01b815260006004820152602401620000cd565b620003a760008383620003ab565b5050565b620003b5620003c7565b620003c2838383620003ee565b505050565b60075460ff1615620003ec5760405163d93c066560e01b815260040160405180910390fd5b565b6001600160a01b0383166200041d578060026000828254620004119190620008a0565b90915550620004919050565b6001600160a01b03831660009081526020819052604090205481811015620004725760405163391434e360e21b81526001600160a01b03851660048201526024810182905260448101839052606401620000cd565b6001600160a01b03841660009081526020819052604090209082900390555b6001600160a01b038216620004af57600280548290039055620004ce565b6001600160a01b03821660009081526020819052604090208054820190555b816001600160a01b0316836001600160a01b03167fddf252ad1be2c89b69c2b068fc378daa952ba7f163c4a11628f55a4df523b3ef836040516200051491815260200190565b60405180910390a3505050565b634e487b7160e01b600052604160045260246000fd5b60005b83811015620005545781810151838201526020016200053a565b50506000910152565b600082601f8301126200056f57600080fd5b81516001600160401b03808211156200058c576200058c62000521565b604051601f8301601f19908116603f01168101908282118183101715620005b757620005b762000521565b81604052838152866020858801011115620005d157600080fd5b620005e484602083016020890162000537565b9695505050505050565b60008060008060008060c087890312156200060857600080fd5b86516001600160401b03808211156200062057600080fd5b6200062e8a838b016200055d565b975060208901519150808211156200064557600080fd5b620006538a838b016200055d565b965060408901519150808211156200066a57600080fd5b506200067989828a016200055d565b945050606087015192506080870151915060a087015190509295509295509295565b600181811c90821680620006b057607f821691505b602082108103620006d157634e487b7160e01b600052602260045260246000fd5b50919050565b601f821115620003c257600081815260208120601f850160051c81016020861015620007005750805b601f850160051c820191505b8181101562000721578281556001016200070c565b505050505050565b81516001600160401b0381111562000745576200074562000521565b6200075d816200075684546200069b565b84620006d7565b602080601f8311600181146200079557600084156200077c5750858301515b600019600386901b1c1916600185901b17855562000721565b600085815260208120601f198616915b82811015620007c657888601518255948401946001909101908401620007a5565b5085821015620007e55787850151600019600388901b60f8161c191681555b5050505050600190811b01905550565b634e487b7160e01b600052601160045260246000fd5b8082028115828204841417620008255762000825620007f5565b92915050565b600081518084526200084581602086016020860162000537565b601f01601f19169290920160200192915050565b60a0815260006200086e60a08301886200082b565b82810360208401526200088281886200082b565b60408401969096525050606081019290925260809091015292915050565b80820180821115620008255762000825620007f5565b61362480620008c66000396000f3fe6080604052600436106102ff5760003560e01c806370a0823111610190578063a3026426116100dc578063b58131b011610095578063dd62ed3e1161006f578063dd62ed3e14610999578063e12f4ab3146109df578063f2fde38b14610a51578063feac729d14610a7157600080fd5b8063b58131b014610930578063c7f758a814610946578063c9d27afe1461097957600080fd5b8063a302642614610885578063a40bee50146108a5578063a9059cbb146108ba578063acad4949146108da578063af3f56ae146108fa578063b13545941461091a57600080fd5b80638cdcc9551161014957806395d89b411161012357806395d89b41146108105780639abd3572146108255780639b5b6ddc146108455780639b644a231461086557600080fd5b80638cdcc955146107905780638da5cb5b146107b05780638da71287146107d857600080fd5b806370a08231146106e5578063715018a61461071b578063780069e01461073057806381c369da146107465780638456cb591461075b57806387cc66de1461077057600080fd5b806329b97ca31161024f57806343859632116102085780634e58c977116101e25780634e58c9771461064a57806357c70c041461066a5780635c975abb146106a55780635e3109e7146106bd57600080fd5b806343859632146105b757806346103c4b146105fd578063475a9fa91461062a57600080fd5b806329b97ca3146104f25780632ab4d0521461052d578063313ce567146105435780633243c7911461055f5780633a41429a146105725780633f4ba83a146105a257600080fd5b8063131eb28e116102bc578063215809ca11610296578063215809ca1461045057806322b6ed261461046757806323b872dd1461049c57806324fb10c0146104bc57600080fd5b8063131eb28e146103f957806318160ddd1461041b578063189285c21461043057600080fd5b8063013cf08b1461030457806306fdde031461034257806306ffce5314610364578063095ea7b3146103875780630ce0ebf4146103b75780630d61b519146103d7575b600080fd5b34801561031057600080fd5b5061032461031f366004612e49565b610a87565b60405161033999989796959493929190612ea8565b60405180910390f35b34801561034e57600080fd5b50610357610be5565b6040516103399190612f0f565b34801561037057600080fd5b50610379610c77565b604051908152602001610339565b34801561039357600080fd5b506103a76103a2366004612f45565b610ccb565b6040519015158152602001610339565b3480156103c357600080fd5b506103796103d2366004613012565b610ce5565b3480156103e357600080fd5b506103f76103f2366004612e49565b610f5c565b005b34801561040557600080fd5b5061040e6110e1565b604051610339919061307f565b34801561042757600080fd5b50600254610379565b34801561043c57600080fd5b506103f761044b366004612e49565b611138565b34801561045c57600080fd5b5061037962093a8081565b34801561047357600080fd5b50610487610482366004612e49565b6111b0565b604051610339999897969594939291906130c3565b3480156104a857600080fd5b506103a76104b736600461311a565b61132d565b3480156104c857600080fd5b506104dc6104d7366004612e49565b611351565b6040516103399a99989796959493929190613156565b3480156104fe57600080fd5b506103a761050d3660046131b5565b601b60209081526000928352604080842090915290825290205460ff1681565b34801561053957600080fd5b5061037960135481565b34801561054f57600080fd5b5060405160128152602001610339565b6103f761056d366004612e49565b611431565b34801561057e57600080fd5b506103a761058d3660046131e1565b60176020526000908152604090205460ff1681565b3480156105ae57600080fd5b506103f7611652565b3480156105c357600080fd5b506103a76105d23660046131b5565b60009182526019602090815260408084206001600160a01b0393909316845291905290205460ff1690565b34801561060957600080fd5b506103796106183660046131e1565b60186020526000908152604090205481565b34801561063657600080fd5b506103f7610645366004612f45565b611664565b34801561065657600080fd5b506103f76106653660046131fc565b6116df565b34801561067657600080fd5b506103a76106853660046131b5565b601960209081526000928352604080842090915290825290205460ff1681565b3480156106b157600080fd5b5060075460ff166103a7565b3480156106c957600080fd5b506106d261173c565b6040516103399796959493929190613239565b3480156106f157600080fd5b506103796107003660046131e1565b6001600160a01b031660009081526020819052604090205490565b34801561072757600080fd5b506103f76119b2565b34801561073c57600080fd5b5061037960115481565b34801561075257600080fd5b506103f76119c4565b34801561076757600080fd5b506103f7611c2f565b34801561077c57600080fd5b5061037961078b366004612e49565b611c3f565b34801561079c57600080fd5b506103f76107ab3660046131e1565b611c60565b3480156107bc57600080fd5b506005546040516001600160a01b039091168152602001610339565b3480156107e457600080fd5b506103796107f33660046131b5565b601a60209081526000928352604080842090915290825290205481565b34801561081c57600080fd5b50610357611cb1565b34801561083157600080fd5b506103f7610840366004612e49565b611cc0565b34801561085157600080fd5b506103f76108603660046131e1565b611f1f565b34801561087157600080fd5b50610379610880366004612e49565b611f73565b34801561089157600080fd5b506103f76108a03660046132a9565b611f83565b3480156108b157600080fd5b506106d26122b3565b3480156108c657600080fd5b506103a76108d5366004612f45565b612504565b3480156108e657600080fd5b506103796108f5366004612e49565b612512565b34801561090657600080fd5b506103796109153660046131e1565b612522565b34801561092657600080fd5b50610379600f5481565b34801561093c57600080fd5b5061037960125481565b34801561095257600080fd5b50610966610961366004612e49565b6125c1565b604051610339979695949392919061330d565b34801561098557600080fd5b506103f7610994366004613361565b612741565b3480156109a557600080fd5b506103796109b4366004613396565b6001600160a01b03918216600090815260016020908152604080832093909416825291909152205490565b3480156109eb57600080fd5b50610a296109fa366004612e49565b601660205260009081526040902080546001820154600283015460038401546004909401549293919290919085565b604080519586526020860194909452928401919091526060830152608082015260a001610339565b348015610a5d57600080fd5b506103f7610a6c3660046131e1565b612957565b348015610a7d57600080fd5b5061037960105481565b60156020526000908152604090208054600182018054919291610aa9906133c0565b80601f0160208091040260200160405190810160405280929190818152602001828054610ad5906133c0565b8015610b225780601f10610af757610100808354040283529160200191610b22565b820191906000526020600020905b815481529060010190602001808311610b0557829003601f168201915b505050505090806002018054610b37906133c0565b80601f0160208091040260200160405190810160405280929190818152602001828054610b63906133c0565b8015610bb05780601f10610b8557610100808354040283529160200191610bb0565b820191906000526020600020905b815481529060010190602001808311610b9357829003601f168201915b505050600384015460048501546005860154600687015460079097015495969295919450925060ff8082169161010090041689565b606060038054610bf4906133c0565b80601f0160208091040260200160405190810160405280929190818152602001828054610c20906133c0565b8015610c6d5780601f10610c4257610100808354040283529160200191610c6d565b820191906000526020600020905b815481529060010190602001808311610c5057829003601f168201915b5050505050905090565b6000610c8260025490565b600003610c8f5750600090565b600c54600b5460009161271091610ca69190613410565b610cb09190613427565b9050610cbb60025490565b610cc59082613427565b91505090565b600033610cd9818585612992565b60019150505b92915050565b600062093a80821015610d3f5760405162461bcd60e51b815260206004820152601760248201527f566f74696e6720706572696f6420746f6f2073686f727400000000000000000060448201526064015b60405180910390fd5b6000612710601254610d5060025490565b610d5a9190613410565b610d649190613427565b33600090815260208190526040902054909150811115610dd55760405162461bcd60e51b815260206004820152602660248201527f496e73756666696369656e7420746f6b656e7320746f206372656174652070726044820152651bdc1bdcd85b60d21b6064820152608401610d36565b60108054906000610de583613449565b9091555060009050610df78442613462565b905060405180610120016040528060105481526020018781526020018681526020018281526020016000815260200160008152602001610e3660025490565b815260006020808301829052604092830182905260105482526015815291902082518155908201516001820190610e6d90826134c3565b5060408201516002820190610e8290826134c3565b50606082015160038201556080820151600482015560a0820151600582015560c0820151600682015560e0820151600790910180546101009384015161ffff1990911692151561ff00191692909217911515909202179055601054601d80546001810182556000919091527f6d4407e7be21f808e6509aa9fa9143369579dd7d760fe20a2c09680fc146134f018190556040513391907f98120a6aaa04295520ab4e01c6c1235dd316e822cc9ff31db7b3f197366d18bd90610f47908a908690613583565b60405180910390a35050601054949350505050565b80600081118015610f6f57506010548111155b610fb15760405162461bcd60e51b8152602060048201526013602482015272125b9d985b1a59081c1c9bdc1bdcd85b081251606a1b6044820152606401610d36565b6000828152601560205260409020600381015442116110125760405162461bcd60e51b815260206004820152601760248201527f566f74696e6720706572696f64206e6f7420656e6465640000000000000000006044820152606401610d36565b600781015460ff16156110675760405162461bcd60e51b815260206004820152601960248201527f50726f706f73616c20616c7265616479206578656375746564000000000000006044820152606401610d36565b60078101805460ff191660011790556005810154600482015411156110985760078101805461ff0019166101001790555b600781015460405161010090910460ff161515815283907f948f4a9cd986f1118c3fbd459f7a22b23c0693e1ca3ef06a6a8be5aa7d39cc039060200160405180910390a2505050565b6060601c805480602002602001604051908101604052809291908181526020018280548015610c6d57602002820191906000526020600020905b81548152602001906001019080831161111b575050505050905090565b6111406129a4565b6000811180156111525750600f548111155b6111925760405162461bcd60e51b8152602060048201526011602482015270125b9d985b1a59081c995c1bdc9d081251607a1b6044820152606401610d36565b6000908152601460205260409020600901805460ff19166001179055565b60008060008060008060606000806000601460008c81526020019081526020016000206040518061014001604052908160008201548152602001600182015481526020016002820154815260200160038201548152602001600482015481526020016005820154815260200160068201548152602001600782018054611235906133c0565b80601f0160208091040260200160405190810160405280929190818152602001828054611261906133c0565b80156112ae5780601f10611283576101008083540402835291602001916112ae565b820191906000526020600020905b81548152906001019060200180831161129157829003601f168201915b50505050508152602001600882015481526020016009820160009054906101000a900460ff161515151581525050905080602001518160400151826060015183608001518460a001518560c001518660e00151876101000151886101200151995099509950995099509950995099509950509193959799909294969850565b60003361133b8582856129d1565b611346858585612a50565b506001949350505050565b601460205280600052604060002060009150905080600001549080600101549080600201549080600301549080600401549080600501549080600601549080600701805461139e906133c0565b80601f01602080910402602001604051908101604052809291908181526020018280546113ca906133c0565b80156114175780601f106113ec57610100808354040283529160200191611417565b820191906000526020600020905b8154815290600101906020018083116113fa57829003601f168201915b50505050600883015460099093015491929160ff1690508a565b6114396129a4565b611441612aaf565b6000811180156114535750600f548111155b6114935760405162461bcd60e51b8152602060048201526011602482015270125b9d985b1a59081c995c1bdc9d081251607a1b6044820152606401610d36565b6000818152601460205260409020600981015460ff166114eb5760405162461bcd60e51b815260206004820152601360248201527214995c1bdc9d081b9bdd08185c1c1c9bdd9959606a1b6044820152606401610d36565b806006015434101561153f5760405162461bcd60e51b815260206004820152601c60248201527f496e73756666696369656e74206469766964656e6420616d6f756e74000000006044820152606401610d36565b6011805490600061154f83613449565b9190505550600061155f60025490565b6115699034613427565b6040805160a08101825260118054808352346020808501828152858701888152426060808901918252608089018e81526000978852601686528a882099518a5593516001808b0191909155925160028a01559051600389015591516004909701969096559354601e805496870181559093527f50bb669a95c7b50b7e8a6f09454034b2b14cf2b85c730dca9a539ca82cb6e350909401829055845190815292830185905292820187905292935090917fc6570a09263e2dbe9b55b3b62e5c111af20c6cfb770f70c0aab4660ef56cc337910160405180910390a2505061164f6001600655565b50565b61165a6129a4565b611662612ad9565b565b61166c6129a4565b6013548161167960025490565b6116839190613462565b11156116d15760405162461bcd60e51b815260206004820152601c60248201527f45786365656473206d6178696d756d20746f74616c20737570706c79000000006044820152606401610d36565b6116db8282612b2b565b5050565b6116e76129a4565b600d6116f382826134c3565b50600e805460ff191660011790556040517ff2de8a66cd2e6c657c2929b640a0eb95e493499b37fdc89c0c3c75d7a3fb6e3890611731908390612f0f565b60405180910390a150565b600b54600c54600e5460088054606094859485946000948594879486949293600993600a939091600d9160ff909116908790611777906133c0565b80601f01602080910402602001604051908101604052809291908181526020018280546117a3906133c0565b80156117f05780601f106117c5576101008083540402835291602001916117f0565b820191906000526020600020905b8154815290600101906020018083116117d357829003601f168201915b50505050509650858054611803906133c0565b80601f016020809104026020016040519081016040528092919081815260200182805461182f906133c0565b801561187c5780601f106118515761010080835404028352916020019161187c565b820191906000526020600020905b81548152906001019060200180831161185f57829003601f168201915b5050505050955084805461188f906133c0565b80601f01602080910402602001604051908101604052809291908181526020018280546118bb906133c0565b80156119085780601f106118dd57610100808354040283529160200191611908565b820191906000526020600020905b8154815290600101906020018083116118eb57829003601f168201915b5050505050945081805461191b906133c0565b80601f0160208091040260200160405190810160405280929190818152602001828054611947906133c0565b80156119945780601f1061196957610100808354040283529160200191611994565b820191906000526020600020905b81548152906001019060200180831161197757829003601f168201915b50505050509150965096509650965096509650965090919293949596565b6119ba6129a4565b6116626000612b61565b6119cc612aaf565b3360009081526020819052604081205460008111611a1d5760405162461bcd60e51b815260206004820152600e60248201526d139bc81d1bdad95b9cc81a195b1960921b6044820152606401610d36565b33600090815260186020526040812054611a38906001613462565b90505b6011548111611b35576000818152601b6020908152604080832033845290915290205460ff16611b23576000818152601660209081526040808320815160a08101835281548152600182015493810193909352600281015491830182905260038101546060840152600401546080830152909190611ab99085613410565b9050611ac58186613462565b6000848152601b602090815260408083203380855290835292819020805460ff191660011790555184815292975085927fa1c93169468f71ef26f4adf10bca8df21460f11843a01ed9c69da306e33c3847910160405180910390a350505b80611b2d81613449565b915050611a3b565b5060008211611b7e5760405162461bcd60e51b81526020600482015260156024820152744e6f206469766964656e647320746f20636c61696d60581b6044820152606401610d36565b6011543360008181526018602052604080822093909355915184908381818185875af1925050503d8060008114611bd1576040519150601f19603f3d011682016040523d82523d6000602084013e611bd6565b606091505b5050905080611c225760405162461bcd60e51b8152602060048201526018602482015277111a5d9a59195b99081d1c985b9cd9995c8819985a5b195960421b6044820152606401610d36565b5050506116626001600655565b611c376129a4565b611662612bb3565b601c8181548110611c4f57600080fd5b600091825260209091200154905081565b611c686129a4565b6001600160a01b038116600081815260176020526040808220805460ff19169055517f0c235024c0c7c9d272caaf380c642d240b96f1cbc26acecca0ba9146e90927519190a250565b606060048054610bf4906133c0565b611cc8612aaf565b600081118015611cda57506011548111155b611d265760405162461bcd60e51b815260206004820152601760248201527f496e76616c696420646973747269627574696f6e2049440000000000000000006044820152606401610d36565b6000818152601b6020908152604080832033845290915290205460ff1615611d825760405162461bcd60e51b815260206004820152600f60248201526e105b1c9958591e4818db185a5b5959608a1b6044820152606401610d36565b3360009081526020819052604090205480611dd05760405162461bcd60e51b815260206004820152600e60248201526d139bc81d1bdad95b9cc81a195b1960921b6044820152606401610d36565b6000828152601660209081526040808320815160a08101835281548152600182015493810193909352600281015491830182905260038101546060840152600401546080830152909190611e249084613410565b6000858152601b60209081526040808320338085529252808320805460ff1916600117905551929350909183908381818185875af1925050503d8060008114611e89576040519150601f19603f3d011682016040523d82523d6000602084013e611e8e565b606091505b5050905080611eda5760405162461bcd60e51b8152602060048201526018602482015277111a5d9a59195b99081d1c985b9cd9995c8819985a5b195960421b6044820152606401610d36565b604051828152859033907fa1c93169468f71ef26f4adf10bca8df21460f11843a01ed9c69da306e33c38479060200160405180910390a35050505061164f6001600655565b611f276129a4565b6001600160a01b038116600081815260176020526040808220805460ff19166001179055517fd576729e54c1a0846f1efbfdf9ec547dea55be936f85a664fa0e40801e17caf99190a250565b601d8181548110611c4f57600080fd5b3360009081526017602052604090205460ff1680611fab57506005546001600160a01b031633145b611ff75760405162461bcd60e51b815260206004820152601760248201527f4e6f7420617574686f72697a6564207265706f727465720000000000000000006044820152606401610d36565b600185101580156120095750600c8511155b6120455760405162461bcd60e51b815260206004820152600d60248201526c092dcecc2d8d2c840dadedce8d609b1b6044820152606401610d36565b6107e48410156120865760405162461bcd60e51b815260206004820152600c60248201526b24b73b30b634b2103cb2b0b960a11b6044820152606401610d36565b818310156120e25760405162461bcd60e51b8152602060048201526024808201527f526576656e75652063616e6e6f74206265206c657373207468616e20657870656044820152636e73657360e01b6064820152608401610d36565b600f80549060006120f283613449565b909155506000905061210483856135a5565b905060006127106008600401548361211c9190613410565b6121269190613427565b9050604051806101400160405280600f54815260200188815260200187815260200186815260200185815260200183815260200182815260200184815260200142815260200161217e6005546001600160a01b031690565b6001600160a01b0316336001600160a01b03161461219d5760006121a0565b60015b15159052600f5460009081526014602090815260409182902083518155908301516001820155908201516002820155606082015160038201556080820151600482015560a0820151600582015560c0820151600682015560e0820151600782019061220b90826134c3565b506101008201516008820155610120909101516009909101805460ff1916911515919091179055600f54601c80546001810182556000919091527f0e4562a10381dec21b205ed72637e6b1b523bdd0e4d4d50af5cd23dd4500a211018190556040517f9b07382dc89f246ef0c712bed8dc138a5b53a61f64718c0fa9edfb0a6bde895d906122a2908a908a908a9088908a906135b8565b60405180910390a250505050505050565b6008805481906122c2906133c0565b80601f01602080910402602001604051908101604052809291908181526020018280546122ee906133c0565b801561233b5780601f106123105761010080835404028352916020019161233b565b820191906000526020600020905b81548152906001019060200180831161231e57829003601f168201915b505050505090806001018054612350906133c0565b80601f016020809104026020016040519081016040528092919081815260200182805461237c906133c0565b80156123c95780601f1061239e576101008083540402835291602001916123c9565b820191906000526020600020905b8154815290600101906020018083116123ac57829003601f168201915b5050505050908060020180546123de906133c0565b80601f016020809104026020016040519081016040528092919081815260200182805461240a906133c0565b80156124575780601f1061242c57610100808354040283529160200191612457565b820191906000526020600020905b81548152906001019060200180831161243a57829003601f168201915b505050505090806003015490806004015490806005018054612478906133c0565b80601f01602080910402602001604051908101604052809291908181526020018280546124a4906133c0565b80156124f15780601f106124c6576101008083540402835291602001916124f1565b820191906000526020600020905b8154815290600101906020018083116124d457829003601f168201915b5050506006909301549192505060ff1687565b600033610cd9818585612a50565b601e8181548110611c4f57600080fd5b60008080612545846001600160a01b031660009081526020819052604090205490565b905060015b60115481116125b8576000818152601b602090815260408083206001600160a01b038916845290915290205460ff166125a6576000818152601660205260409020600201546125999083613410565b6125a39084613462565b92505b806125b081613449565b91505061254a565b50909392505050565b600081815260156020526040812060038101546004820154600583015460078401546001850180546060978897909687968796879687969495600287019493929160ff808216926101009092041690879061261b906133c0565b80601f0160208091040260200160405190810160405280929190818152602001828054612647906133c0565b80156126945780601f1061266957610100808354040283529160200191612694565b820191906000526020600020905b81548152906001019060200180831161267757829003601f168201915b505050505096508580546126a7906133c0565b80601f01602080910402602001604051908101604052809291908181526020018280546126d3906133c0565b80156127205780601f106126f557610100808354040283529160200191612720565b820191906000526020600020905b81548152906001019060200180831161270357829003601f168201915b50505050509550975097509750975097509750975050919395979092949650565b8160008111801561275457506010548111155b6127965760405162461bcd60e51b8152602060048201526013602482015272125b9d985b1a59081c1c9bdc1bdcd85b081251606a1b6044820152606401610d36565b600083815260156020526040902060038101544211156127ee5760405162461bcd60e51b8152602060048201526013602482015272159bdd1a5b99c81c195c9a5bd908195b991959606a1b6044820152606401610d36565b600084815260196020908152604080832033845290915290205460ff16156128485760405162461bcd60e51b815260206004820152600d60248201526c105b1c9958591e481d9bdd1959609a1b6044820152606401610d36565b33600090815260208190526040902054806128975760405162461bcd60e51b815260206004820152600f60248201526e2737903b37ba34b733903837bbb2b960891b6044820152606401610d36565b600085815260196020908152604080832033808552908352818420805460ff19166001179055888452601a8352818420908452909152902081905583156128f757808260040160008282546128ec9190613462565b909155506129119050565b8082600501600082825461290b9190613462565b90915550505b60408051851515815260208101839052339187917fcbdf6214089cba887ecbf35a0b6a734589959c9763342c756bb2a80ca2bc9f6e910160405180910390a35050505050565b61295f6129a4565b6001600160a01b03811661298957604051631e4fbdf760e01b815260006004820152602401610d36565b61164f81612b61565b61299f8383836001612bf0565b505050565b6005546001600160a01b031633146116625760405163118cdaa760e01b8152336004820152602401610d36565b6001600160a01b03838116600090815260016020908152604080832093861683529290522054600019811015612a4a5781811015612a3b57604051637dc7a0d960e11b81526001600160a01b03841660048201526024810182905260448101839052606401610d36565b612a4a84848484036000612bf0565b50505050565b6001600160a01b038316612a7a57604051634b637e8f60e11b815260006004820152602401610d36565b6001600160a01b038216612aa45760405163ec442f0560e01b815260006004820152602401610d36565b61299f838383612cc5565b600260065403612ad257604051633ee5aeb560e01b815260040160405180910390fd5b6002600655565b612ae1612cd8565b6007805460ff191690557f5db9ee0a495bf2e6ff9c91a7834c1ba4fdd244a5e8aa4e537bd38aeae4b073aa335b6040516001600160a01b03909116815260200160405180910390a1565b6001600160a01b038216612b555760405163ec442f0560e01b815260006004820152602401610d36565b6116db60008383612cc5565b600580546001600160a01b038381166001600160a01b0319831681179093556040519116919082907f8be0079c531659141344cd1fd0a4f28419497f9722a3daafe3b4186f6b6457e090600090a35050565b612bbb612cfb565b6007805460ff191660011790557f62e78cea01bee320cd4e420270b5ea74000d11b0c9f74754ebdbfc544b05a258612b0e3390565b6001600160a01b038416612c1a5760405163e602df0560e01b815260006004820152602401610d36565b6001600160a01b038316612c4457604051634a1406b160e11b815260006004820152602401610d36565b6001600160a01b0380851660009081526001602090815260408083209387168352929052208290558015612a4a57826001600160a01b0316846001600160a01b03167f8c5be1e5ebec7d5bd14f71427d1e84f3dd0314c0f7b2291e5b200ac8c7c3b92584604051612cb791815260200190565b60405180910390a350505050565b612ccd612cfb565b61299f838383612d1f565b60075460ff1661166257604051638dfc202b60e01b815260040160405180910390fd5b60075460ff16156116625760405163d93c066560e01b815260040160405180910390fd5b6001600160a01b038316612d4a578060026000828254612d3f9190613462565b90915550612dbc9050565b6001600160a01b03831660009081526020819052604090205481811015612d9d5760405163391434e360e21b81526001600160a01b03851660048201526024810182905260448101839052606401610d36565b6001600160a01b03841660009081526020819052604090209082900390555b6001600160a01b038216612dd857600280548290039055612df7565b6001600160a01b03821660009081526020819052604090208054820190555b816001600160a01b0316836001600160a01b03167fddf252ad1be2c89b69c2b068fc378daa952ba7f163c4a11628f55a4df523b3ef83604051612e3c91815260200190565b60405180910390a3505050565b600060208284031215612e5b57600080fd5b5035919050565b6000815180845260005b81811015612e8857602081850181015186830182015201612e6c565b506000602082860101526020601f19601f83011685010191505092915050565b60006101208b8352806020840152612ec28184018c612e62565b90508281036040840152612ed6818b612e62565b60608401999099525050608081019590955260a085019390935260c0840191909152151560e08301521515610100909101529392505050565b602081526000612f226020830184612e62565b9392505050565b80356001600160a01b0381168114612f4057600080fd5b919050565b60008060408385031215612f5857600080fd5b612f6183612f29565b946020939093013593505050565b634e487b7160e01b600052604160045260246000fd5b600082601f830112612f9657600080fd5b813567ffffffffffffffff80821115612fb157612fb1612f6f565b604051601f8301601f19908116603f01168101908282118183101715612fd957612fd9612f6f565b81604052838152866020858801011115612ff257600080fd5b836020870160208301376000602085830101528094505050505092915050565b60008060006060848603121561302757600080fd5b833567ffffffffffffffff8082111561303f57600080fd5b61304b87838801612f85565b9450602086013591508082111561306157600080fd5b5061306e86828701612f85565b925050604084013590509250925092565b6020808252825182820181905260009190848201906040850190845b818110156130b75783518352928401929184019160010161309b565b50909695505050505050565b60006101208b83528a60208401528960408401528860608401528760808401528660a08401528060c08401526130fb81840187612e62565b60e0840195909552505090151561010090910152979650505050505050565b60008060006060848603121561312f57600080fd5b61313884612f29565b925061314660208501612f29565b9150604084013590509250925092565b60006101408c83528b60208401528a60408401528960608401528860808401528760a08401528660c08401528060e084015261319481840187612e62565b61010084019590955250509015156101209091015298975050505050505050565b600080604083850312156131c857600080fd5b823591506131d860208401612f29565b90509250929050565b6000602082840312156131f357600080fd5b612f2282612f29565b60006020828403121561320e57600080fd5b813567ffffffffffffffff81111561322557600080fd5b61323184828501612f85565b949350505050565b60e08152600061324c60e083018a612e62565b828103602084015261325e818a612e62565b905082810360408401526132728189612e62565b905086606084015285608084015282810360a08401526132928186612e62565b91505082151560c083015298975050505050505050565b600080600080600060a086880312156132c157600080fd5b85359450602086013593506040860135925060608601359150608086013567ffffffffffffffff8111156132f457600080fd5b61330088828901612f85565b9150509295509295909350565b60e08152600061332060e083018a612e62565b8281036020840152613332818a612e62565b6040840198909852505060608101949094526080840192909252151560a0830152151560c09091015292915050565b6000806040838503121561337457600080fd5b823591506020830135801515811461338b57600080fd5b809150509250929050565b600080604083850312156133a957600080fd5b6133b283612f29565b91506131d860208401612f29565b600181811c908216806133d457607f821691505b6020821081036133f457634e487b7160e01b600052602260045260246000fd5b50919050565b634e487b7160e01b600052601160045260246000fd5b8082028115828204841417610cdf57610cdf6133fa565b60008261344457634e487b7160e01b600052601260045260246000fd5b500490565b60006001820161345b5761345b6133fa565b5060010190565b80820180821115610cdf57610cdf6133fa565b601f82111561299f57600081815260208120601f850160051c8101602086101561349c5750805b601f850160051c820191505b818110156134bb578281556001016134a8565b505050505050565b815167ffffffffffffffff8111156134dd576134dd612f6f565b6134f1816134eb84546133c0565b84613475565b602080601f831160018114613526576000841561350e5750858301515b600019600386901b1c1916600185901b1785556134bb565b600085815260208120601f198616915b8281101561355557888601518255948401946001909101908401613536565b50858210156135735787850151600019600388901b60f8161c191681555b5050505050600190811b01905550565b6040815260006135966040830185612e62565b90508260208301529392505050565b81810381811115610cdf57610cdf6133fa565b85815284602082015283604082015282606082015260a0608082015260006135e360a0830184612e62565b97965050505050505056fea26469706673582212206df898f0964bc1adfa9e8b930df3495195fc6e33ca7f878310100935b4b1f59f64736f6c63430008140033",
  "linkReferences": {},
  "deployedLinkReferences": {}
}