{
  "_format": "hh-sol-artifact-1",
  "contractName": "CoffeeShopRWA",
  "sourceName": "contracts/CoffeeShopRWA.sol",
  "abi": [
    {
      "inputs": [
        {
          "internalType": "string",
          "name": "_shopName",
          "type": "string"
        },
        {
          "internalType": "string",
          "name": "_location",
          "type": "string"
        },
        {
          "internalType": "string",
          "name": "_description",
          "type": "string"
        },
        {
          "internalType": "uint256",
          "name": "_totalValuation",
          "type": "uint256"
        },
        {
          "internalType": "uint256",
          "name": "_tokenizedPercentage",
          "type": "uint256"
        },
        {
          "internalType": "uint256",
          "name": "_initialTokenSupply",
          "type": "uint256"
        }
      ],
      "stateMutability": "nonpayable",
      "type": "constructor"
    },
    {
      "inputs": [
        {
          "internalType": "address",
          "name": "spender",
          "type": "address"
        },
        {
          "internalType": "uint256",
          "name": "allowance",
          "type": "uint256"
        },
        {
          "internalType": "uint256",
          "name": "needed",
          "type": "uint256"
        }
      ],
      "name": "ERC20InsufficientAllowance",
      "type": "error"
    },
    {
      "inputs": [
        {
          "internalType": "address",
          "name": "sender",
          "type": "address"
        },
        {
          "internalType": "uint256",
          "name": "balance",
          "type": "uint256"
        },
        {
          "internalType": "uint256",
          "name": "needed",
          "type": "uint256"
        }
      ],
      "name": "ERC20InsufficientBalance",
      "type": "error"
    },
    {
      "inputs": [
        {
          "internalType": "address",
          "name": "approver",
          "type": "address"
        }
      ],
      "name": "ERC20InvalidApprover",
      "type": "error"
    },
    {
      "inputs": [
        {
          "internalType": "address",
          "name": "receiver",
          "type": "address"
        }
      ],
      "name": "ERC20InvalidReceiver",
      "type": "error"
    },
    {
      "inputs": [
        {
          "internalType": "address",
          "name": "sender",
          "type": "address"
        }
      ],
      "name": "ERC20InvalidSender",
      "type": "error"
    },
    {
      "inputs": [
        {
          "internalType": "address",
          "name": "spender",
          "type": "address"
        }
      ],
      "name": "ERC20InvalidSpender",
      "type": "error"
    },
    {
      "inputs": [],
      "name": "EnforcedPause",
      "type": "error"
    },
    {
      "inputs": [],
      "name": "ExpectedPause",
      "type": "error"
    },
    {
      "inputs": [
        {
          "internalType": "address",
          "name": "owner",
          "type": "address"
        }
      ],
      "name": "OwnableInvalidOwner",
      "type": "error"
    },
    {
      "inputs": [
        {
          "internalType": "address",
          "name": "account",
          "type": "address"
        }
      ],
      "name": "OwnableUnauthorizedAccount",
      "type": "error"
    },
    {
      "inputs": [],
      "name": "ReentrancyGuardReentrantCall",
      "type": "error"
    },
    {
      "anonymous": false,
      "inputs": [
        {
          "indexed": true,
          "internalType": "address",
          "name": "owner",
          "type": "address"
        },
        {
          "indexed": true,
          "internalType": "address",
          "name": "spender",
          "type": "address"
        },
        {
          "indexed": false,
          "internalType": "uint256",
          "name": "value",
          "type": "uint256"
        }
      ],
      "name": "Approval",
      "type": "event"
    },
    {
      "anonymous": false,
      "inputs": [
        {
          "indexed": false,
          "internalType": "string",
          "name": "shopName",
          "type": "string"
        },
        {
          "indexed": false,
          "internalType": "string",
          "name": "location",
          "type": "string"
        },
        {
          "indexed": false,
          "internalType": "uint256",
          "name": "totalValuation",
          "type": "uint256"
        },
        {
          "indexed": false,
          "internalType": "uint256",
          "name": "tokenizedPercentage",
          "type": "uint256"
        },
        {
          "indexed": false,
          "internalType": "uint256",
          "name": "tokensIssued",
          "type": "uint256"
        }
      ],
      "name": "AssetTokenized",
      "type": "event"
    },
    {
      "anonymous": false,
      "inputs": [
        {
          "indexed": false,
          "internalType": "string",
          "name": "legalDocumentHash",
          "type": "string"
        }
      ],
      "name": "AssetVerified",
      "type": "event"
    },
    {
      "anonymous": false,
      "inputs": [
        {
          "indexed": true,
          "internalType": "address",
          "name": "holder",
          "type": "address"
        },
        {
          "indexed": true,
          "internalType": "uint256",
          "name": "distributionId",
          "type": "uint256"
        },
        {
          "indexed": false,
          "internalType": "uint256",
          "name": "amount",
          "type": "uint256"
        }
      ],
      "name": "DividendClaimed",
      "type": "event"
    },
    {
      "anonymous": false,
      "inputs": [
        {
          "indexed": true,
          "internalType": "uint256",
          "name": "distributionId",
          "type": "uint256"
        },
        {
          "indexed": false,
          "internalType": "uint256",
          "name": "totalAmount",
          "type": "uint256"
        },
        {
          "indexed": false,
          "internalType": "uint256",
          "name": "pricePerToken",
          "type": "uint256"
        },
        {
          "indexed": false,
          "internalType": "uint256",
          "name": "reportId",
          "type": "uint256"
        }
      ],
      "name": "DividendDistributed",
      "type": "event"
    },
    {
      "anonymous": false,
      "inputs": [
        {
          "indexed": true,
          "internalType": "uint256",
          "name": "reportId",
          "type": "uint256"
        },
        {
          "indexed": false,
          "internalType": "uint256",
          "name": "month",
          "type": "uint256"
        },
        {
          "indexed": false,
          "internalType": "uint256",
          "name": "year",
          "type": "uint256"
        },
        {
          "indexed": false,
          "internalType": "uint256",
          "name": "revenue",
          "type": "uint256"
        },
        {
          "indexed": false,
          "internalType": "uint256",
          "name": "netProfit",
          "type": "uint256"
        },
        {
          "indexed": false,
          "internalType": "string",
          "name": "reportHash",
          "type": "string"
        }
      ],
      "name": "FinancialReportSubmitted",
      "type": "event"
    },
    {
      "anonymous": false,
      "inputs": [
        {
          "indexed": true,
          "internalType": "address",
          "name": "previousOwner",
          "type": "address"
        },
        {
          "indexed": true,
          "internalType": "address",
          "name": "newOwner",
          "type": "address"
        }
      ],
      "name": "OwnershipTransferred",
      "type": "event"
    },
    {
      "anonymous": false,
      "inputs": [
        {
          "indexed": false,
          "internalType": "address",
          "name": "account",
          "type": "address"
        }
      ],
      "name": "Paused",
      "type": "event"
    },
    {
      "anonymous": false,
      "inputs": [
        {
          "indexed": true,
          "internalType": "uint256",
          "name": "proposalId",
          "type": "uint256"
        },
        {
          "indexed": true,
          "internalType": "address",
          "name": "creator",
          "type": "address"
        },
        {
          "indexed": false,
          "internalType": "string",
          "name": "title",
          "type": "string"
        },
        {
          "indexed": false,
          "internalType": "uint256",
          "name": "votingDeadline",
          "type": "uint256"
        }
      ],
      "name": "ProposalCreated",
      "type": "event"
    },
    {
      "anonymous": false,
      "inputs": [
        {
          "indexed": true,
          "internalType": "uint256",
          "name": "proposalId",
          "type": "uint256"
        },
        {
          "indexed": false,
          "internalType": "bool",
          "name": "passed",
          "type": "bool"
        }
      ],
      "name": "ProposalExecuted",
      "type": "event"
    },
    {
      "anonymous": false,
      "inputs": [
        {
          "indexed": true,
          "internalType": "address",
          "name": "reporter",
          "type": "address"
        }
      ],
      "name": "ReporterAuthorized",
      "type": "event"
    },
    {
      "anonymous": false,
      "inputs": [
        {
          "indexed": true,
          "internalType": "address",
          "name": "reporter",
          "type": "address"
        }
      ],
      "name": "ReporterRevoked",
      "type": "event"
    },
    {
      "anonymous": false,
      "inputs": [
        {
          "indexed": true,
          "internalType": "address",
          "name": "from",
          "type": "address"
        },
        {
          "indexed": true,
          "internalType": "address",
          "name": "to",
          "type": "address"
        },
        {
          "indexed": false,
          "internalType": "uint256",
          "name": "value",
          "type": "uint256"
        }
      ],
      "name": "Transfer",
      "type": "event"
    },
    {
      "anonymous": false,
      "inputs": [
        {
          "indexed": false,
          "internalType": "address",
          "name": "account",
          "type": "address"
        }
      ],
      "name": "Unpaused",
      "type": "event"
    },
    {
      "anonymous": false,
      "inputs": [
        {
          "indexed": true,
          "internalType": "uint256",
          "name": "proposalId",
          "type": "uint256"
        },
        {
          "indexed": true,
          "internalType": "address",
          "name": "voter",
          "type": "address"
        },
        {
          "indexed": false,
          "internalType": "bool",
          "name": "support",
          "type": "bool"
        },
        {
          "indexed": false,
          "internalType": "uint256",
          "name": "votingPower",
          "type": "uint256"
        }
      ],
      "name": "VoteCast",
      "type": "event"
    },
    {
      "inputs": [],
      "name": "MIN_VOTING_PERIOD",
      "outputs": [
        {
          "internalType": "uint256",
          "name": "",
          "type": "uint256"
        }
      ],
      "stateMutability": "view",
      "type": "function"
    },
    {
      "inputs": [
        {
          "internalType": "address",
          "name": "owner",
          "type": "address"
        },
        {
          "internalType": "address",
          "name": "spender",
          "type": "address"
        }
      ],
      "name": "allowance",
      "outputs": [
        {
          "internalType": "uint256",
          "name": "",
          "type": "uint256"
        }
      ],
      "stateMutability": "view",
      "type": "function"
    },
    {
      "inputs": [
        {
          "internalType": "address",
          "name": "spender",
          "type": "address"
        },
        {
          "internalType": "uint256",
          "name": "value",
          "type": "uint256"
        }
      ],
      "name": "approve",
      "outputs": [
        {
          "internalType": "bool",
          "name": "",
          "type": "bool"
        }
      ],
      "stateMutability": "nonpayable",
      "type": "function"
    },
    {
      "inputs": [
        {
          "internalType": "uint256",
          "name": "_reportId",
          "type": "uint256"
        }
      ],
      "name": "approveFinancialReport",
      "outputs": [],
      "stateMutability": "nonpayable",
      "type": "function"
    },
    {
      "inputs": [],
      "name": "assetInfo",
      "outputs": [
        {
          "internalType": "string",
          "name": "shopName",
          "type": "string"
        },
        {
          "internalType": "string",
          "name": "location",
          "type": "string"
        },
        {
          "internalType": "string",
          "name": "description",
          "type": "string"
        },
        {
          "internalType": "uint256",
          "name": "totalValuation",
          "type": "uint256"
        },
        {
          "internalType": "uint256",
          "name": "tokenizedPercentage",
          "type": "uint256"
        },
        {
          "internalType": "string",
          "name": "legalDocumentHash",
          "type": "string"
        },
        {
          "internalType": "bool",
          "name": "isVerified",
          "type": "bool"
        }
      ],
      "stateMutability": "view",
      "type": "function"
    },
    {
      "inputs": [
        {
          "internalType": "address",
          "name": "_reporter",
          "type": "address"
        }
      ],
      "name": "authorizeReporter",
      "outputs": [],
      "stateMutability": "nonpayable",
      "type": "function"
    },
    {
      "inputs": [
        {
          "internalType": "address",
          "name": "",
          "type": "address"
        }
      ],
      "name": "authorizedReporters",
      "outputs": [
        {
          "internalType": "bool",
          "name": "",
          "type": "bool"
        }
      ],
      "stateMutability": "view",
      "type": "function"
    },
    {
      "inputs": [
        {
          "internalType": "address",
          "name": "account",
          "type": "address"
        }
      ],
      "name": "balanceOf",
      "outputs": [
        {
          "internalType": "uint256",
          "name": "",
          "type": "uint256"
        }
      ],
      "stateMutability": "view",
      "type": "function"
    },
    {
      "inputs": [],
      "name": "claimAllDividends",
      "outputs": [],
      "stateMutability": "nonpayable",
      "type": "function"
    },
    {
      "inputs": [
        {
          "internalType": "uint256",
          "name": "_distributionId",
          "type": "uint256"
        }
      ],
      "name": "claimDividend",
      "outputs": [],
      "stateMutability": "nonpayable",
      "type": "function"
    },
    {
      "inputs": [
        {
          "internalType": "string",
          "name": "_title",
          "type": "string"
        },
        {
          "internalType": "string",
          "name": "_description",
          "type": "string"
        },
        {
          "internalType": "uint256",
          "name": "_votingPeriod",
          "type": "uint256"
        }
      ],
      "name": "createProposal",
      "outputs": [
        {
          "internalType": "uint256",
          "name": "",
          "type": "uint256"
        }
      ],
      "stateMutability": "nonpayable",
      "type": "function"
    },
    {
      "inputs": [],
      "name": "currentDistributionId",
      "outputs": [
        {
          "internalType": "uint256",
          "name": "",
          "type": "uint256"
        }
      ],
      "stateMutability": "view",
      "type": "function"
    },
    {
      "inputs": [],
      "name": "currentProposalId",
      "outputs": [
        {
          "internalType": "uint256",
          "name": "",
          "type": "uint256"
        }
      ],
      "stateMutability": "view",
      "type": "function"
    },
    {
      "inputs": [],
      "name": "currentReportId",
      "outputs": [
        {
          "internalType": "uint256",
          "name": "",
          "type": "uint256"
        }
      ],
      "stateMutability": "view",
      "type": "function"
    },
    {
      "inputs": [],
      "name": "decimals",
      "outputs": [
        {
          "internalType": "uint8",
          "name": "",
          "type": "uint8"
        }
      ],
      "stateMutability": "view",
      "type": "function"
    },
    {
      "inputs": [
        {
          "internalType": "uint256",
          "name": "_reportId",
          "type": "uint256"
        }
      ],
      "name": "distributeDividends",
      "outputs": [],
      "stateMutability": "payable",
      "type": "function"
    },
    {
      "inputs": [
        {
          "internalType": "uint256",
          "name": "",
          "type": "uint256"
        }
      ],
      "name": "distributionIds",
      "outputs": [
        {
          "internalType": "uint256",
          "name": "",
          "type": "uint256"
        }
      ],
      "stateMutability": "view",
      "type": "function"
    },
    {
      "inputs": [
        {
          "internalType": "uint256",
          "name": "",
          "type": "uint256"
        }
      ],
      "name": "dividendDistributions",
      "outputs": [
        {
          "internalType": "uint256",
          "name": "distributionId",
          "type": "uint256"
        },
        {
          "internalType": "uint256",
          "name": "totalAmount",
          "type": "uint256"
        },
        {
          "internalType": "uint256",
          "name": "pricePerToken",
          "type": "uint256"
        },
        {
          "internalType": "uint256",
          "name": "timestamp",
          "type": "uint256"
        },
        {
          "internalType": "uint256",
          "name": "reportId",
          "type": "uint256"
        }
      ],
      "stateMutability": "view",
      "type": "function"
    },
    {
      "inputs": [
        {
          "internalType": "uint256",
          "name": "_proposalId",
          "type": "uint256"
        }
      ],
      "name": "executeProposal",
      "outputs": [],
      "stateMutability": "nonpayable",
      "type": "function"
    },
    {
      "inputs": [
        {
          "internalType": "uint256",
          "name": "",
          "type": "uint256"
        }
      ],
      "name": "financialReports",
      "outputs": [
        {
          "internalType": "uint256",
          "name": "reportId",
          "type": "uint256"
        },
        {
          "internalType": "uint256",
          "name": "month",
          "type": "uint256"
        },
        {
          "internalType": "uint256",
          "name": "year",
          "type": "uint256"
        },
        {
          "internalType": "uint256",
          "name": "revenue",
          "type": "uint256"
        },
        {
          "internalType": "uint256",
          "name": "expenses",
          "type": "uint256"
        },
        {
          "internalType": "uint256",
          "name": "netProfit",
          "type": "uint256"
        },
        {
          "internalType": "uint256",
          "name": "dividendPool",
          "type": "uint256"
        },
        {
          "internalType": "string",
          "name": "reportHash",
          "type": "string"
        },
        {
          "internalType": "uint256",
          "name": "timestamp",
          "type": "uint256"
        },
        {
          "internalType": "bool",
          "name": "isApproved",
          "type": "bool"
        }
      ],
      "stateMutability": "view",
      "type": "function"
    },
    {
      "inputs": [],
      "name": "getAllReportIds",
      "outputs": [
        {
          "internalType": "uint256[]",
          "name": "",
          "type": "uint256[]"
        }
      ],
      "stateMutability": "view",
      "type": "function"
    },
    {
      "inputs": [],
      "name": "getAssetInfo",
      "outputs": [
        {
          "internalType": "string",
          "name": "shopName",
          "type": "string"
        },
        {
          "internalType": "string",
          "name": "location",
          "type": "string"
        },
        {
          "internalType": "string",
          "name": "description",
          "type": "string"
        },
        {
          "internalType": "uint256",
          "name": "totalValuation",
          "type": "uint256"
        },
        {
          "internalType": "uint256",
          "name": "tokenizedPercentage",
          "type": "uint256"
        },
        {
          "internalType": "string",
          "name": "legalDocumentHash",
          "type": "string"
        },
        {
          "internalType": "bool",
          "name": "isVerified",
          "type": "bool"
        }
      ],
      "stateMutability": "view",
      "type": "function"
    },
    {
      "inputs": [
        {
          "internalType": "uint256",
          "name": "_reportId",
          "type": "uint256"
        }
      ],
      "name": "getFinancialReport",
      "outputs": [
        {
          "internalType": "uint256",
          "name": "month",
          "type": "uint256"
        },
        {
          "internalType": "uint256",
          "name": "year",
          "type": "uint256"
        },
        {
          "internalType": "uint256",
          "name": "revenue",
          "type": "uint256"
        },
        {
          "internalType": "uint256",
          "name": "expenses",
          "type": "uint256"
        },
        {
          "internalType": "uint256",
          "name": "netProfit",
          "type": "uint256"
        },
        {
          "internalType": "uint256",
          "name": "dividendPool",
          "type": "uint256"
        },
        {
          "internalType": "string",
          "name": "reportHash",
          "type": "string"
        },
        {
          "internalType": "uint256",
          "name": "timestamp",
          "type": "uint256"
        },
        {
          "internalType": "bool",
          "name": "isApproved",
          "type": "bool"
        }
      ],
      "stateMutability": "view",
      "type": "function"
    },
    {
      "inputs": [
        {
          "internalType": "uint256",
          "name": "_proposalId",
          "type": "uint256"
        }
      ],
      "name": "getProposal",
      "outputs": [
        {
          "internalType": "string",
          "name": "title",
          "type": "string"
        },
        {
          "internalType": "string",
          "name": "description",
          "type": "string"
        },
        {
          "internalType": "uint256",
          "name": "votingDeadline",
          "type": "uint256"
        },
        {
          "internalType": "uint256",
          "name": "forVotes",
          "type": "uint256"
        },
        {
          "internalType": "uint256",
          "name": "againstVotes",
          "type": "uint256"
        },
        {
          "internalType": "bool",
          "name": "executed",
          "type": "bool"
        },
        {
          "internalType": "bool",
          "name": "passed",
          "type": "bool"
        }
      ],
      "stateMutability": "view",
      "type": "function"
    },
    {
      "inputs": [],
      "name": "getTokenValue",
      "outputs": [
        {
          "internalType": "uint256",
          "name": "",
          "type": "uint256"
        }
      ],
      "stateMutability": "view",
      "type": "function"
    },
    {
      "inputs": [
        {
          "internalType": "address",
          "name": "_holder",
          "type": "address"
        }
      ],
      "name": "getUnclaimedDividends",
      "outputs": [
        {
          "internalType": "uint256",
          "name": "",
          "type": "uint256"
        }
      ],
      "stateMutability": "view",
      "type": "function"
    },
    {
      "inputs": [
        {
          "internalType": "uint256",
          "name": "_proposalId",
          "type": "uint256"
        },
        {
          "internalType": "address",
          "name": "_voter",
          "type": "address"
        }
      ],
      "name": "hasVoted",
      "outputs": [
        {
          "internalType": "bool",
          "name": "",
          "type": "bool"
        }
      ],
      "stateMutability": "view",
      "type": "function"
    },
    {
      "inputs": [
        {
          "internalType": "address",
          "name": "_to",
          "type": "address"
        },
        {
          "internalType": "uint256",
          "name": "_amount",
          "type": "uint256"
        }
      ],
      "name": "issueTokens",
      "outputs": [],
      "stateMutability": "nonpayable",
      "type": "function"
    },
    {
      "inputs": [
        {
          "internalType": "address",
          "name": "",
          "type": "address"
        }
      ],
      "name": "lastDividendClaimed",
      "outputs": [
        {
          "internalType": "uint256",
          "name": "",
          "type": "uint256"
        }
      ],
      "stateMutability": "view",
      "type": "function"
    },
    {
      "inputs": [],
      "name": "maxTotalSupply",
      "outputs": [
        {
          "internalType": "uint256",
          "name": "",
          "type": "uint256"
        }
      ],
      "stateMutability": "view",
      "type": "function"
    },
    {
      "inputs": [],
      "name": "name",
      "outputs": [
        {
          "internalType": "string",
          "name": "",
          "type": "string"
        }
      ],
      "stateMutability": "view",
      "type": "function"
    },
    {
      "inputs": [],
      "name": "owner",
      "outputs": [
        {
          "internalType": "address",
          "name": "",
          "type": "address"
        }
      ],
      "stateMutability": "view",
      "type": "function"
    },
    {
      "inputs": [],
      "name": "pause",
      "outputs": [],
      "stateMutability": "nonpayable",
      "type": "function"
    },
    {
      "inputs": [],
      "name": "paused",
      "outputs": [
        {
          "internalType": "bool",
          "name": "",
          "type": "bool"
        }
      ],
      "stateMutability": "view",
      "type": "function"
    },
    {
      "inputs": [
        {
          "internalType": "uint256",
          "name": "",
          "type": "uint256"
        }
      ],
      "name": "proposalIds",
      "outputs": [
        {
          "internalType": "uint256",
          "name": "",
          "type": "uint256"
        }
      ],
      "stateMutability": "view",
      "type": "function"
    },
    {
      "inputs": [],
      "name": "proposalThreshold",
      "outputs": [
        {
          "internalType": "uint256",
          "name": "",
          "type": "uint256"
        }
      ],
      "stateMutability": "view",
      "type": "function"
    },
    {
      "inputs": [
        {
          "internalType": "uint256",
          "name": "",
          "type": "uint256"
        }
      ],
      "name": "proposals",
      "outputs": [
        {
          "internalType": "uint256",
          "name": "id",
          "type": "uint256"
        },
        {
          "internalType": "string",
          "name": "title",
          "type": "string"
        },
        {
          "internalType": "string",
          "name": "description",
          "type": "string"
        },
        {
          "internalType": "uint256",
          "name": "votingDeadline",
          "type": "uint256"
        },
        {
          "internalType": "uint256",
          "name": "forVotes",
          "type": "uint256"
        },
        {
          "internalType": "uint256",
          "name": "againstVotes",
          "type": "uint256"
        },
        {
          "internalType": "uint256",
          "name": "totalVotingPower",
          "type": "uint256"
        },
        {
          "internalType": "bool",
          "name": "executed",
          "type": "bool"
        },
        {
          "internalType": "bool",
          "name": "passed",
          "type": "bool"
        }
      ],
      "stateMutability": "view",
      "type": "function"
    },
    {
      "inputs": [],
      "name": "renounceOwnership",
      "outputs": [],
      "stateMutability": "nonpayable",
      "type": "function"
    },
    {
      "inputs": [
        {
          "internalType": "uint256",
          "name": "",
          "type": "uint256"
        }
      ],
      "name": "reportIds",
      "outputs": [
        {
          "internalType": "uint256",
          "name": "",
          "type": "uint256"
        }
      ],
      "stateMutability": "view",
      "type": "function"
    },
    {
      "inputs": [
        {
          "internalType": "address",
          "name": "_reporter",
          "type": "address"
        }
      ],
      "name": "revokeReporter",
      "outputs": [],
      "stateMutability": "nonpayable",
      "type": "function"
    },
    {
      "inputs": [
        {
          "internalType": "uint256",
          "name": "_month",
          "type": "uint256"
        },
        {
          "internalType": "uint256",
          "name": "_year",
          "type": "uint256"
        },
        {
          "internalType": "uint256",
          "name": "_revenue",
          "type": "uint256"
        },
        {
          "internalType": "uint256",
          "name": "_expenses",
          "type": "uint256"
        },
        {
          "internalType": "string",
          "name": "_reportHash",
          "type": "string"
        }
      ],
      "name": "submitFinancialReport",
      "outputs": [],
      "stateMutability": "nonpayable",
      "type": "function"
    },
    {
      "inputs": [],
      "name": "symbol",
      "outputs": [
        {
          "internalType": "string",
          "name": "",
          "type": "string"
        }
      ],
      "stateMutability": "view",
      "type": "function"
    },
    {
      "inputs": [],
      "name": "totalSupply",
      "outputs": [
        {
          "internalType": "uint256",
          "name": "",
          "type": "uint256"
        }
      ],
      "stateMutability": "view",
      "type": "function"
    },
    {
      "inputs": [
        {
          "internalType": "address",
          "name": "to",
          "type": "address"
        },
        {
          "internalType": "uint256",
          "name": "value",
          "type": "uint256"
        }
      ],
      "name": "transfer",
      "outputs": [
        {
          "internalType": "bool",
          "name": "",
          "type": "bool"
        }
      ],
      "stateMutability": "nonpayable",
      "type": "function"
    },
    {
      "inputs": [
        {
          "internalType": "address",
          "name": "from",
          "type": "address"
        },
        {
          "internalType": "address",
          "name": "to",
          "type": "address"
        },
        {
          "internalType": "uint256",
          "name": "value",
          "type": "uint256"
        }
      ],
      "name": "transferFrom",
      "outputs": [
        {
          "internalType": "bool",
          "name": "",
          "type": "bool"
        }
      ],
      "stateMutability": "nonpayable",
      "type": "function"
    },
    {
      "inputs": [
        {
          "internalType": "address",
          "name": "newOwner",
          "type": "address"
        }
      ],
      "name": "transferOwnership",
      "outputs": [],
      "stateMutability": "nonpayable",
      "type": "function"
    },
    {
      "inputs": [],
      "name": "unpause",
      "outputs": [],
      "stateMutability": "nonpayable",
      "type": "function"
    },
    {
      "inputs": [
        {
          "internalType": "string",
          "name": "_legalDocumentHash",
          "type": "string"
        }
      ],
      "name": "verifyAsset",
      "outputs": [],
      "stateMutability": "nonpayable",
      "type": "function"
    },
    {
      "inputs": [
        {
          "internalType": "uint256",
          "name": "_proposalId",
          "type": "uint256"
        },
        {
          "internalType": "bool",
          "name": "_support",
          "type": "bool"
        }
      ],
      "name": "vote",
      "outputs": [],
      "stateMutability": "nonpayable",
      "type": "function"
    }
  ],
  "bytecode": "0x608060405260646012553480156200001657600080fd5b5060405162003c8c38038062003c8c8339810160408190526200003991620005ee565b336040518060400160405280601181526020017021b7b33332b29029b437b8102a37b5b2b760791b81525060405180604001604052806006815260200165434f4646454560d01b815250816003908162000094919062000729565b506004620000a3828262000729565b5050506001600160a01b038116620000d657604051631e4fbdf760e01b8152600060048201526024015b60405180910390fd5b620000e1816200031b565b5060016006556127108211156200013b5760405162461bcd60e51b815260206004820152601e60248201527f43616e6e6f7420746f6b656e697a65206d6f7265207468616e203130302500006044820152606401620000cd565b600083116200018d5760405162461bcd60e51b815260206004820152601a60248201527f56616c756174696f6e206d75737420626520706f7369746976650000000000006044820152606401620000cd565b60008111620001df5760405162461bcd60e51b815260206004820152601f60248201527f496e697469616c20737570706c79206d75737420626520706f736974697665006044820152606401620000cd565b6040518060e0016040528087815260200186815260200185815260200184815260200183815260200160405180602001604052806000815250815260200160001515815250600860008201518160000190816200023d919062000729565b506020820151600182019062000254908262000729565b50604082015160028201906200026b908262000729565b50606082015160038201556080820151600482015560a0820151600582019062000296908262000729565b5060c091909101516006909101805460ff1916911515919091179055620002bf8160026200080b565b601355620002ce33826200036d565b7f15cbbc35f7783ea0c9f7d492a8029ee85e7383ea1948eb95ed67130e830f1ec086868585856040516200030795949392919062000859565b60405180910390a1505050505050620008b6565b600580546001600160a01b038381166001600160a01b0319831681179093556040519116919082907f8be0079c531659141344cd1fd0a4f28419497f9722a3daafe3b4186f6b6457e090600090a35050565b6001600160a01b038216620003995760405163ec442f0560e01b815260006004820152602401620000cd565b620003a760008383620003ab565b5050565b620003b5620003c7565b620003c2838383620003ee565b505050565b60075460ff1615620003ec5760405163d93c066560e01b815260040160405180910390fd5b565b6001600160a01b0383166200041d578060026000828254620004119190620008a0565b90915550620004919050565b6001600160a01b03831660009081526020819052604090205481811015620004725760405163391434e360e21b81526001600160a01b03851660048201526024810182905260448101839052606401620000cd565b6001600160a01b03841660009081526020819052604090209082900390555b6001600160a01b038216620004af57600280548290039055620004ce565b6001600160a01b03821660009081526020819052604090208054820190555b816001600160a01b0316836001600160a01b03167fddf252ad1be2c89b69c2b068fc378daa952ba7f163c4a11628f55a4df523b3ef836040516200051491815260200190565b60405180910390a3505050565b634e487b7160e01b600052604160045260246000fd5b60005b83811015620005545781810151838201526020016200053a565b50506000910152565b600082601f8301126200056f57600080fd5b81516001600160401b03808211156200058c576200058c62000521565b604051601f8301601f19908116603f01168101908282118183101715620005b757620005b762000521565b81604052838152866020858801011115620005d157600080fd5b620005e484602083016020890162000537565b9695505050505050565b60008060008060008060c087890312156200060857600080fd5b86516001600160401b03808211156200062057600080fd5b6200062e8a838b016200055d565b975060208901519150808211156200064557600080fd5b620006538a838b016200055d565b965060408901519150808211156200066a57600080fd5b506200067989828a016200055d565b945050606087015192506080870151915060a087015190509295509295509295565b600181811c90821680620006b057607f821691505b602082108103620006d157634e487b7160e01b600052602260045260246000fd5b50919050565b601f821115620003c257600081815260208120601f850160051c81016020861015620007005750805b601f850160051c820191505b8181101562000721578281556001016200070c565b505050505050565b81516001600160401b0381111562000745576200074562000521565b6200075d816200075684546200069b565b84620006d7565b602080601f8311600181146200079557600084156200077c5750858301515b600019600386901b1c1916600185901b17855562000721565b600085815260208120601f198616915b82811015620007c657888601518255948401946001909101908401620007a5565b5085821015620007e55787850151600019600388901b60f8161c191681555b5050505050600190811b01905550565b634e487b7160e01b600052601160045260246000fd5b8082028115828204841417620008255762000825620007f5565b92915050565b600081518084526200084581602086016020860162000537565b601f01601f19169290920160200192915050565b60a0815260006200086e60a08301886200082b565b82810360208401526200088281886200082b565b60408401969096525050606081019290925260809091015292915050565b80820180821115620008255762000825620007f5565b6133c680620008c66000396000f3fe6080604052600436106102ae5760003560e01c806370a0823111610175578063a3026426116100dc578063b58131b011610095578063dd62ed3e1161006f578063dd62ed3e1461089e578063e12f4ab3146108e4578063f2fde38b14610956578063feac729d1461097657600080fd5b8063b58131b014610835578063c7f758a81461084b578063c9d27afe1461087e57600080fd5b8063a30264261461078a578063a40bee50146107aa578063a9059cbb146107bf578063acad4949146107df578063af3f56ae146107ff578063b13545941461081f57600080fd5b80638cdcc9551161012e5780638cdcc955146106cd5780638da5cb5b146106ed57806395d89b41146107155780639abd35721461072a5780639b5b6ddc1461074a5780639b644a231461076a57600080fd5b806370a0823114610622578063715018a614610658578063780069e01461066d57806381c369da146106835780638456cb591461069857806387cc66de146106ad57600080fd5b806324fb10c01161021957806343859632116101d2578063438596321461052b57806346103c4b14610575578063475a9fa9146105a25780634e58c977146105c25780635c975abb146105e25780635e3109e7146105fa57600080fd5b806324fb10c01461046b5780632ab4d052146104a1578063313ce567146104b75780633243c791146104d35780633a41429a146104e65780633f4ba83a1461051657600080fd5b8063131eb28e1161026b578063131eb28e146103a857806318160ddd146103ca578063189285c2146103df578063215809ca146103ff57806322b6ed261461041657806323b872dd1461044b57600080fd5b8063013cf08b146102b357806306fdde03146102f157806306ffce5314610313578063095ea7b3146103365780630ce0ebf4146103665780630d61b51914610386575b600080fd5b3480156102bf57600080fd5b506102d36102ce366004612beb565b61098c565b6040516102e899989796959493929190612c4a565b60405180910390f35b3480156102fd57600080fd5b50610306610aea565b6040516102e89190612cb1565b34801561031f57600080fd5b50610328610b7c565b6040519081526020016102e8565b34801561034257600080fd5b50610356610351366004612ce7565b610bd0565b60405190151581526020016102e8565b34801561037257600080fd5b50610328610381366004612db4565b610bea565b34801561039257600080fd5b506103a66103a1366004612beb565b610dc3565b005b3480156103b457600080fd5b506103bd610f48565b6040516102e89190612e21565b3480156103d657600080fd5b50600254610328565b3480156103eb57600080fd5b506103a66103fa366004612beb565b610f9f565b34801561040b57600080fd5b5061032862093a8081565b34801561042257600080fd5b50610436610431366004612beb565b611017565b6040516102e899989796959493929190612e65565b34801561045757600080fd5b50610356610466366004612ebc565b611194565b34801561047757600080fd5b5061048b610486366004612beb565b6111b8565b6040516102e89a99989796959493929190612ef8565b3480156104ad57600080fd5b5061032860135481565b3480156104c357600080fd5b50604051601281526020016102e8565b6103a66104e1366004612beb565b611298565b3480156104f257600080fd5b50610356610501366004612f57565b60176020526000908152604090205460ff1681565b34801561052257600080fd5b506103a661148c565b34801561053757600080fd5b50610356610546366004612f72565b60008281526015602090815260408083206001600160a01b038516845260080190915290205460ff1692915050565b34801561058157600080fd5b50610328610590366004612f57565b60186020526000908152604090205481565b3480156105ae57600080fd5b506103a66105bd366004612ce7565b61149e565b3480156105ce57600080fd5b506103a66105dd366004612f9e565b611519565b3480156105ee57600080fd5b5060075460ff16610356565b34801561060657600080fd5b5061060f611576565b6040516102e89796959493929190612fdb565b34801561062e57600080fd5b5061032861063d366004612f57565b6001600160a01b031660009081526020819052604090205490565b34801561066457600080fd5b506103a66117ec565b34801561067957600080fd5b5061032860115481565b34801561068f57600080fd5b506103a66117fe565b3480156106a457600080fd5b506103a6611a2c565b3480156106b957600080fd5b506103286106c8366004612beb565b611a3c565b3480156106d957600080fd5b506103a66106e8366004612f57565b611a5d565b3480156106f957600080fd5b506005546040516001600160a01b0390911681526020016102e8565b34801561072157600080fd5b50610306611aae565b34801561073657600080fd5b506103a6610745366004612beb565b611abd565b34801561075657600080fd5b506103a6610765366004612f57565b611cd6565b34801561077657600080fd5b50610328610785366004612beb565b611d2a565b34801561079657600080fd5b506103a66107a536600461304b565b611d3a565b3480156107b657600080fd5b5061060f61206a565b3480156107cb57600080fd5b506103566107da366004612ce7565b6122bb565b3480156107eb57600080fd5b506103286107fa366004612beb565b6122c9565b34801561080b57600080fd5b5061032861081a366004612f57565b6122d9565b34801561082b57600080fd5b50610328600f5481565b34801561084157600080fd5b5061032860125481565b34801561085757600080fd5b5061086b610866366004612beb565b61237b565b6040516102e897969594939291906130af565b34801561088a57600080fd5b506103a6610899366004613103565b6124fb565b3480156108aa57600080fd5b506103286108b9366004613138565b6001600160a01b03918216600090815260016020908152604080832093909416825291909152205490565b3480156108f057600080fd5b5061092e6108ff366004612beb565b601660205260009081526040902080546001820154600283015460038401546004909401549293919290919085565b604080519586526020860194909452928401919091526060830152608082015260a0016102e8565b34801561096257600080fd5b506103a6610971366004612f57565b6126f9565b34801561098257600080fd5b5061032860105481565b601560205260009081526040902080546001820180549192916109ae90613162565b80601f01602080910402602001604051908101604052809291908181526020018280546109da90613162565b8015610a275780601f106109fc57610100808354040283529160200191610a27565b820191906000526020600020905b815481529060010190602001808311610a0a57829003601f168201915b505050505090806002018054610a3c90613162565b80601f0160208091040260200160405190810160405280929190818152602001828054610a6890613162565b8015610ab55780601f10610a8a57610100808354040283529160200191610ab5565b820191906000526020600020905b815481529060010190602001808311610a9857829003601f168201915b505050600384015460048501546005860154600687015460079097015495969295919450925060ff8082169161010090041689565b606060038054610af990613162565b80601f0160208091040260200160405190810160405280929190818152602001828054610b2590613162565b8015610b725780601f10610b4757610100808354040283529160200191610b72565b820191906000526020600020905b815481529060010190602001808311610b5557829003601f168201915b5050505050905090565b6000610b8760025490565b600003610b945750600090565b600c54600b5460009161271091610bab91906131b2565b610bb591906131c9565b9050610bc060025490565b610bca90826131c9565b91505090565b600033610bde818585612734565b60019150505b92915050565b600062093a80821015610c445760405162461bcd60e51b815260206004820152601760248201527f566f74696e6720706572696f6420746f6f2073686f727400000000000000000060448201526064015b60405180910390fd5b6000612710601254610c5560025490565b610c5f91906131b2565b610c6991906131c9565b33600090815260208190526040902054909150811115610cda5760405162461bcd60e51b815260206004820152602660248201527f496e73756666696369656e7420746f6b656e7320746f206372656174652070726044820152651bdc1bdcd85b60d21b6064820152608401610c3b565b60108054906000610cea836131eb565b9091555060009050610cfc8442613204565b601054600081815260156020526040902090815590915060018101610d218882613265565b5060028101610d308782613265565b50600381018290556002546006820155601054601a80546001810182556000919091527f057c384a7d1c54f3a1b2e5e67b2617b8224fdfd1ea7234eea573a6ff665ff63e018190556040513391907f98120a6aaa04295520ab4e01c6c1235dd316e822cc9ff31db7b3f197366d18bd90610dad908b908790613325565b60405180910390a3505060105495945050505050565b80600081118015610dd657506010548111155b610e185760405162461bcd60e51b8152602060048201526013602482015272125b9d985b1a59081c1c9bdc1bdcd85b081251606a1b6044820152606401610c3b565b600082815260156020526040902060038101544211610e795760405162461bcd60e51b815260206004820152601760248201527f566f74696e6720706572696f64206e6f7420656e6465640000000000000000006044820152606401610c3b565b600781015460ff1615610ece5760405162461bcd60e51b815260206004820152601960248201527f50726f706f73616c20616c7265616479206578656375746564000000000000006044820152606401610c3b565b60078101805460ff19166001179055600581015460048201541115610eff5760078101805461ff0019166101001790555b600781015460405161010090910460ff161515815283907f948f4a9cd986f1118c3fbd459f7a22b23c0693e1ca3ef06a6a8be5aa7d39cc039060200160405180910390a2505050565b60606019805480602002602001604051908101604052809291908181526020018280548015610b7257602002820191906000526020600020905b815481526020019060010190808311610f82575050505050905090565b610fa7612746565b600081118015610fb95750600f548111155b610ff95760405162461bcd60e51b8152602060048201526011602482015270125b9d985b1a59081c995c1bdc9d081251607a1b6044820152606401610c3b565b6000908152601460205260409020600901805460ff19166001179055565b60008060008060008060606000806000601460008c8152602001908152602001600020604051806101400160405290816000820154815260200160018201548152602001600282015481526020016003820154815260200160048201548152602001600582015481526020016006820154815260200160078201805461109c90613162565b80601f01602080910402602001604051908101604052809291908181526020018280546110c890613162565b80156111155780601f106110ea57610100808354040283529160200191611115565b820191906000526020600020905b8154815290600101906020018083116110f857829003601f168201915b50505050508152602001600882015481526020016009820160009054906101000a900460ff161515151581525050905080602001518160400151826060015183608001518460a001518560c001518660e00151876101000151886101200151995099509950995099509950995099509950509193959799909294969850565b6000336111a2858285612773565b6111ad8585856127f2565b506001949350505050565b601460205280600052604060002060009150905080600001549080600101549080600201549080600301549080600401549080600501549080600601549080600701805461120590613162565b80601f016020809104026020016040519081016040528092919081815260200182805461123190613162565b801561127e5780601f106112535761010080835404028352916020019161127e565b820191906000526020600020905b81548152906001019060200180831161126157829003601f168201915b50505050600883015460099093015491929160ff1690508a565b6112a0612746565b6112a8612851565b6000811180156112ba5750600f548111155b6112fa5760405162461bcd60e51b8152602060048201526011602482015270125b9d985b1a59081c995c1bdc9d081251607a1b6044820152606401610c3b565b6000818152601460205260409020600981015460ff166113525760405162461bcd60e51b815260206004820152601360248201527214995c1bdc9d081b9bdd08185c1c1c9bdd9959606a1b6044820152606401610c3b565b80600601543410156113a65760405162461bcd60e51b815260206004820152601c60248201527f496e73756666696369656e74206469766964656e6420616d6f756e74000000006044820152606401610c3b565b601180549060006113b6836131eb565b919050555060006113c660025490565b6113d090346131c9565b60118054600081815260166020908152604080832093845534600180860182905560028601889055426003870155600486018b90559554601b805497880181559094527f3ad8aa4f87544323a9d1e5dd902f40c356527a7955687113db5f9a85ad579dc19095018390558051948552908401859052830187905292935091907fc6570a09263e2dbe9b55b3b62e5c111af20c6cfb770f70c0aab4660ef56cc3379060600160405180910390a25050506114896001600655565b50565b611494612746565b61149c61287b565b565b6114a6612746565b601354816114b360025490565b6114bd9190613204565b111561150b5760405162461bcd60e51b815260206004820152601c60248201527f45786365656473206d6178696d756d20746f74616c20737570706c79000000006044820152606401610c3b565b61151582826128cd565b5050565b611521612746565b600d61152d8282613265565b50600e805460ff191660011790556040517ff2de8a66cd2e6c657c2929b640a0eb95e493499b37fdc89c0c3c75d7a3fb6e389061156b908390612cb1565b60405180910390a150565b600b54600c54600e5460088054606094859485946000948594879486949293600993600a939091600d9160ff9091169087906115b190613162565b80601f01602080910402602001604051908101604052809291908181526020018280546115dd90613162565b801561162a5780601f106115ff5761010080835404028352916020019161162a565b820191906000526020600020905b81548152906001019060200180831161160d57829003601f168201915b5050505050965085805461163d90613162565b80601f016020809104026020016040519081016040528092919081815260200182805461166990613162565b80156116b65780601f1061168b576101008083540402835291602001916116b6565b820191906000526020600020905b81548152906001019060200180831161169957829003601f168201915b505050505095508480546116c990613162565b80601f01602080910402602001604051908101604052809291908181526020018280546116f590613162565b80156117425780601f1061171757610100808354040283529160200191611742565b820191906000526020600020905b81548152906001019060200180831161172557829003601f168201915b5050505050945081805461175590613162565b80601f016020809104026020016040519081016040528092919081815260200182805461178190613162565b80156117ce5780601f106117a3576101008083540402835291602001916117ce565b820191906000526020600020905b8154815290600101906020018083116117b157829003601f168201915b50505050509150965096509650965096509650965090919293949596565b6117f4612746565b61149c6000612903565b611806612851565b33600090815260208190526040812054600081116118575760405162461bcd60e51b815260206004820152600e60248201526d139bc81d1bdad95b9cc81a195b1960921b6044820152606401610c3b565b33600090815260186020526040812054611872906001613204565b90505b6011548111611932576000818152601660209081526040808320338452600581019092529091205460ff1661191f5760008160020154846118b691906131b2565b90506118c28186613204565b33600081815260058501602052604090819020805460ff191660011790555191965084917fa1c93169468f71ef26f4adf10bca8df21460f11843a01ed9c69da306e33c3847906119159085815260200190565b60405180910390a3505b508061192a816131eb565b915050611875565b506000821161197b5760405162461bcd60e51b81526020600482015260156024820152744e6f206469766964656e647320746f20636c61696d60581b6044820152606401610c3b565b6011543360008181526018602052604080822093909355915184908381818185875af1925050503d80600081146119ce576040519150601f19603f3d011682016040523d82523d6000602084013e6119d3565b606091505b5050905080611a1f5760405162461bcd60e51b8152602060048201526018602482015277111a5d9a59195b99081d1c985b9cd9995c8819985a5b195960421b6044820152606401610c3b565b50505061149c6001600655565b611a34612746565b61149c612955565b60198181548110611a4c57600080fd5b600091825260209091200154905081565b611a65612746565b6001600160a01b038116600081815260176020526040808220805460ff19169055517f0c235024c0c7c9d272caaf380c642d240b96f1cbc26acecca0ba9146e90927519190a250565b606060048054610af990613162565b611ac5612851565b600081118015611ad757506011548111155b611b235760405162461bcd60e51b815260206004820152601760248201527f496e76616c696420646973747269627574696f6e2049440000000000000000006044820152606401610c3b565b6000818152601660209081526040808320338452600581019092529091205460ff1615611b845760405162461bcd60e51b815260206004820152600f60248201526e105b1c9958591e4818db185a5b5959608a1b6044820152606401610c3b565b3360009081526020819052604090205480611bd25760405162461bcd60e51b815260206004820152600e60248201526d139bc81d1bdad95b9cc81a195b1960921b6044820152606401610c3b565b6000826002015482611be491906131b2565b336000818152600586016020526040808220805460ff19166001179055519293509183908381818185875af1925050503d8060008114611c40576040519150601f19603f3d011682016040523d82523d6000602084013e611c45565b606091505b5050905080611c915760405162461bcd60e51b8152602060048201526018602482015277111a5d9a59195b99081d1c985b9cd9995c8819985a5b195960421b6044820152606401610c3b565b604051828152859033907fa1c93169468f71ef26f4adf10bca8df21460f11843a01ed9c69da306e33c38479060200160405180910390a3505050506114896001600655565b611cde612746565b6001600160a01b038116600081815260176020526040808220805460ff19166001179055517fd576729e54c1a0846f1efbfdf9ec547dea55be936f85a664fa0e40801e17caf99190a250565b601a8181548110611a4c57600080fd5b3360009081526017602052604090205460ff1680611d6257506005546001600160a01b031633145b611dae5760405162461bcd60e51b815260206004820152601760248201527f4e6f7420617574686f72697a6564207265706f727465720000000000000000006044820152606401610c3b565b60018510158015611dc05750600c8511155b611dfc5760405162461bcd60e51b815260206004820152600d60248201526c092dcecc2d8d2c840dadedce8d609b1b6044820152606401610c3b565b6107e4841015611e3d5760405162461bcd60e51b815260206004820152600c60248201526b24b73b30b634b2103cb2b0b960a11b6044820152606401610c3b565b81831015611e995760405162461bcd60e51b8152602060048201526024808201527f526576656e75652063616e6e6f74206265206c657373207468616e20657870656044820152636e73657360e01b6064820152608401610c3b565b600f8054906000611ea9836131eb565b9091555060009050611ebb8385613347565b9050600061271060086004015483611ed391906131b2565b611edd91906131c9565b9050604051806101400160405280600f548152602001888152602001878152602001868152602001858152602001838152602001828152602001848152602001428152602001611f356005546001600160a01b031690565b6001600160a01b0316336001600160a01b031614611f54576000611f57565b60015b15159052600f5460009081526014602090815260409182902083518155908301516001820155908201516002820155606082015160038201556080820151600482015560a0820151600582015560c0820151600682015560e08201516007820190611fc29082613265565b506101008201516008820155610120909101516009909101805460ff1916911515919091179055600f54601980546001810182556000919091527f944998273e477b495144fb8794c914197f3ccb46be2900f4698fd0ef743c9695018190556040517f9b07382dc89f246ef0c712bed8dc138a5b53a61f64718c0fa9edfb0a6bde895d90612059908a908a908a9088908a9061335a565b60405180910390a250505050505050565b60088054819061207990613162565b80601f01602080910402602001604051908101604052809291908181526020018280546120a590613162565b80156120f25780601f106120c7576101008083540402835291602001916120f2565b820191906000526020600020905b8154815290600101906020018083116120d557829003601f168201915b50505050509080600101805461210790613162565b80601f016020809104026020016040519081016040528092919081815260200182805461213390613162565b80156121805780601f1061215557610100808354040283529160200191612180565b820191906000526020600020905b81548152906001019060200180831161216357829003601f168201915b50505050509080600201805461219590613162565b80601f01602080910402602001604051908101604052809291908181526020018280546121c190613162565b801561220e5780601f106121e35761010080835404028352916020019161220e565b820191906000526020600020905b8154815290600101906020018083116121f157829003601f168201915b50505050509080600301549080600401549080600501805461222f90613162565b80601f016020809104026020016040519081016040528092919081815260200182805461225b90613162565b80156122a85780601f1061227d576101008083540402835291602001916122a8565b820191906000526020600020905b81548152906001019060200180831161228b57829003601f168201915b5050506006909301549192505060ff1687565b600033610bde8185856127f2565b601b8181548110611a4c57600080fd5b600080806122fc846001600160a01b031660009081526020819052604090205490565b905060015b60115481116123725760008181526016602090815260408083206001600160a01b038916845260050190915290205460ff166123605760008181526016602052604090206002015461235390836131b2565b61235d9084613204565b92505b8061236a816131eb565b915050612301565b50909392505050565b600081815260156020526040812060038101546004820154600583015460078401546001850180546060978897909687968796879687969495600287019493929160ff80821692610100909204169087906123d590613162565b80601f016020809104026020016040519081016040528092919081815260200182805461240190613162565b801561244e5780601f106124235761010080835404028352916020019161244e565b820191906000526020600020905b81548152906001019060200180831161243157829003601f168201915b5050505050965085805461246190613162565b80601f016020809104026020016040519081016040528092919081815260200182805461248d90613162565b80156124da5780601f106124af576101008083540402835291602001916124da565b820191906000526020600020905b8154815290600101906020018083116124bd57829003601f168201915b50505050509550975097509750975097509750975050919395979092949650565b8160008111801561250e57506010548111155b6125505760405162461bcd60e51b8152602060048201526013602482015272125b9d985b1a59081c1c9bdc1bdcd85b081251606a1b6044820152606401610c3b565b600083815260156020526040902060038101544211156125a85760405162461bcd60e51b8152602060048201526013602482015272159bdd1a5b99c81c195c9a5bd908195b991959606a1b6044820152606401610c3b565b33600090815260088201602052604090205460ff16156125fa5760405162461bcd60e51b815260206004820152600d60248201526c105b1c9958591e481d9bdd1959609a1b6044820152606401610c3b565b33600090815260208190526040902054806126495760405162461bcd60e51b815260206004820152600f60248201526e2737903b37ba34b733903837bbb2b960891b6044820152606401610c3b565b3360009081526008830160209081526040808320805460ff191660011790556009850190915290208190558315612699578082600401600082825461268e9190613204565b909155506126b39050565b808260050160008282546126ad9190613204565b90915550505b60408051851515815260208101839052339187917fcbdf6214089cba887ecbf35a0b6a734589959c9763342c756bb2a80ca2bc9f6e910160405180910390a35050505050565b612701612746565b6001600160a01b03811661272b57604051631e4fbdf760e01b815260006004820152602401610c3b565b61148981612903565b6127418383836001612992565b505050565b6005546001600160a01b0316331461149c5760405163118cdaa760e01b8152336004820152602401610c3b565b6001600160a01b038381166000908152600160209081526040808320938616835292905220546000198110156127ec57818110156127dd57604051637dc7a0d960e11b81526001600160a01b03841660048201526024810182905260448101839052606401610c3b565b6127ec84848484036000612992565b50505050565b6001600160a01b03831661281c57604051634b637e8f60e11b815260006004820152602401610c3b565b6001600160a01b0382166128465760405163ec442f0560e01b815260006004820152602401610c3b565b612741838383612a67565b60026006540361287457604051633ee5aeb560e01b815260040160405180910390fd5b6002600655565b612883612a7a565b6007805460ff191690557f5db9ee0a495bf2e6ff9c91a7834c1ba4fdd244a5e8aa4e537bd38aeae4b073aa335b6040516001600160a01b03909116815260200160405180910390a1565b6001600160a01b0382166128f75760405163ec442f0560e01b815260006004820152602401610c3b565b61151560008383612a67565b600580546001600160a01b038381166001600160a01b0319831681179093556040519116919082907f8be0079c531659141344cd1fd0a4f28419497f9722a3daafe3b4186f6b6457e090600090a35050565b61295d612a9d565b6007805460ff191660011790557f62e78cea01bee320cd4e420270b5ea74000d11b0c9f74754ebdbfc544b05a2586128b03390565b6001600160a01b0384166129bc5760405163e602df0560e01b815260006004820152602401610c3b565b6001600160a01b0383166129e657604051634a1406b160e11b815260006004820152602401610c3b565b6001600160a01b03808516600090815260016020908152604080832093871683529290522082905580156127ec57826001600160a01b0316846001600160a01b03167f8c5be1e5ebec7d5bd14f71427d1e84f3dd0314c0f7b2291e5b200ac8c7c3b92584604051612a5991815260200190565b60405180910390a350505050565b612a6f612a9d565b612741838383612ac1565b60075460ff1661149c57604051638dfc202b60e01b815260040160405180910390fd5b60075460ff161561149c5760405163d93c066560e01b815260040160405180910390fd5b6001600160a01b038316612aec578060026000828254612ae19190613204565b90915550612b5e9050565b6001600160a01b03831660009081526020819052604090205481811015612b3f5760405163391434e360e21b81526001600160a01b03851660048201526024810182905260448101839052606401610c3b565b6001600160a01b03841660009081526020819052604090209082900390555b6001600160a01b038216612b7a57600280548290039055612b99565b6001600160a01b03821660009081526020819052604090208054820190555b816001600160a01b0316836001600160a01b03167fddf252ad1be2c89b69c2b068fc378daa952ba7f163c4a11628f55a4df523b3ef83604051612bde91815260200190565b60405180910390a3505050565b600060208284031215612bfd57600080fd5b5035919050565b6000815180845260005b81811015612c2a57602081850181015186830182015201612c0e565b506000602082860101526020601f19601f83011685010191505092915050565b60006101208b8352806020840152612c648184018c612c04565b90508281036040840152612c78818b612c04565b60608401999099525050608081019590955260a085019390935260c0840191909152151560e08301521515610100909101529392505050565b602081526000612cc46020830184612c04565b9392505050565b80356001600160a01b0381168114612ce257600080fd5b919050565b60008060408385031215612cfa57600080fd5b612d0383612ccb565b946020939093013593505050565b634e487b7160e01b600052604160045260246000fd5b600082601f830112612d3857600080fd5b813567ffffffffffffffff80821115612d5357612d53612d11565b604051601f8301601f19908116603f01168101908282118183101715612d7b57612d7b612d11565b81604052838152866020858801011115612d9457600080fd5b836020870160208301376000602085830101528094505050505092915050565b600080600060608486031215612dc957600080fd5b833567ffffffffffffffff80821115612de157600080fd5b612ded87838801612d27565b94506020860135915080821115612e0357600080fd5b50612e1086828701612d27565b925050604084013590509250925092565b6020808252825182820181905260009190848201906040850190845b81811015612e5957835183529284019291840191600101612e3d565b50909695505050505050565b60006101208b83528a60208401528960408401528860608401528760808401528660a08401528060c0840152612e9d81840187612c04565b60e0840195909552505090151561010090910152979650505050505050565b600080600060608486031215612ed157600080fd5b612eda84612ccb565b9250612ee860208501612ccb565b9150604084013590509250925092565b60006101408c83528b60208401528a60408401528960608401528860808401528760a08401528660c08401528060e0840152612f3681840187612c04565b61010084019590955250509015156101209091015298975050505050505050565b600060208284031215612f6957600080fd5b612cc482612ccb565b60008060408385031215612f8557600080fd5b82359150612f9560208401612ccb565b90509250929050565b600060208284031215612fb057600080fd5b813567ffffffffffffffff811115612fc757600080fd5b612fd384828501612d27565b949350505050565b60e081526000612fee60e083018a612c04565b8281036020840152613000818a612c04565b905082810360408401526130148189612c04565b905086606084015285608084015282810360a08401526130348186612c04565b91505082151560c083015298975050505050505050565b600080600080600060a0868803121561306357600080fd5b85359450602086013593506040860135925060608601359150608086013567ffffffffffffffff81111561309657600080fd5b6130a288828901612d27565b9150509295509295909350565b60e0815260006130c260e083018a612c04565b82810360208401526130d4818a612c04565b6040840198909852505060608101949094526080840192909252151560a0830152151560c09091015292915050565b6000806040838503121561311657600080fd5b823591506020830135801515811461312d57600080fd5b809150509250929050565b6000806040838503121561314b57600080fd5b61315483612ccb565b9150612f9560208401612ccb565b600181811c9082168061317657607f821691505b60208210810361319657634e487b7160e01b600052602260045260246000fd5b50919050565b634e487b7160e01b600052601160045260246000fd5b8082028115828204841417610be457610be461319c565b6000826131e657634e487b7160e01b600052601260045260246000fd5b500490565b6000600182016131fd576131fd61319c565b5060010190565b80820180821115610be457610be461319c565b601f82111561274157600081815260208120601f850160051c8101602086101561323e5750805b601f850160051c820191505b8181101561325d5782815560010161324a565b505050505050565b815167ffffffffffffffff81111561327f5761327f612d11565b6132938161328d8454613162565b84613217565b602080601f8311600181146132c857600084156132b05750858301515b600019600386901b1c1916600185901b17855561325d565b600085815260208120601f198616915b828110156132f7578886015182559484019460019091019084016132d8565b50858210156133155787850151600019600388901b60f8161c191681555b5050505050600190811b01905550565b6040815260006133386040830185612c04565b90508260208301529392505050565b81810381811115610be457610be461319c565b85815284602082015283604082015282606082015260a06080820152600061338560a0830184612c04565b97965050505050505056fea26469706673582212209c931fd84034af194bfd13976816805b0c12c87e2d1775ff89cbf6878b69d43e64736f6c63430008140033",
  "linkReferences": {},
  "deployedLinkReferences": {}
}